:100000000C9449000C9468000C9468000C946800EF
:100010000C9468000C9468000C9468000C946800C0
:100020000C9468000C9468000C9468000C946800B0
:100030000C9468000C9468000C941F0E0C946800DB
:100040000C9468000C94C2050C9468000C94680031
:100050000C9468000C9468000C9468000C94680080
:100060000C9468000C9468000C9468000C94680070
:100070000C9468000C9468000C9468000C94680060
:100080000C9468000C947C020C946800322E313180
:10009000000011241FBECFEFD0E1DEBFCDBF13E0C3
:1000A000A0E0B1E0EAE8F3E200E00BBF02C0079095
:1000B0000D92AE34B107D9F724E0AEE4B3E001C04D
:1000C0001D92AA3EB207E1F70E94C8010C94C31129
:1000D0000C940000CF93DF93CDB7DEB765970FB6D2
:1000E000F894DEBF0FBECDBF1B821A8222E1CE0183
:1000F0000496FC01322F11923A95E9F70E942F0CD9
:100100000E94730D0E94280489830E944E018981F8
:10011000882F90E0292F2F938F9380E091E0892FF3
:100120008F9380E091E08F93CE010296292F2F9339
:100130008F930E94DA0E0F900F900F900F900F90F8
:100140000F9080E00E94D40664E180E00E94A20645
:10015000CE0102960E940C0884E690E00E948E0573
:1001600080919A0490919B0481159E42C0F08091E9
:100170009C0490919D048115934388F080919E0486
:1001800090919F0481159E4250F047E050E065E059
:1001900070E082E70E94E5010E945C0107C047E031
:1001A00050E065E070E087E60E94E50180919C04E4
:1001B00090919D0481159F4150F046E050E066E02B
:1001C00070E082E70E94E5010E94720107C046E0EC
:1001D00050E066E070E087E60E94E5018091A204AD
:1001E0009091A30481159E42C0F08091A00490914B
:1001F000A1048115934388F080919E0490919F04FF
:1002000081159E4250F044E050E062E070E082E7E9
:100210000E94E5010E94880107C044E050E062E0CE
:1002200070E087E60E94E5018091A0049091A1040E
:1002300081159F4150F043E050E063E070E082E7B9
:100240000E94E5010E949E0107C043E050E063E088
:1002500070E087E60E94E50180919E0490919F04E2
:100260008115934350F045E050E064E070E082E790
:100270000E94E5010E945C0107C045E050E064E097
:1002800070E087E60E94E501000065960FB6F894DD
:10029000DEBF0FBECDBFDF91CF910895CF93DF9327
:1002A000CDB7DEB76AE070E08AE090E00E94F20C21
:1002B0000000DF91CF910895CF93DF93CDB7DEB7E4
:1002C0004FE050E06BE170E085EE9FEF0E94180D6B
:1002D00060E070E080E090E00E943F0D0000DF9160
:1002E000CF910895CF93DF93CDB7DEB74AE050E0CA
:1002F0006DE070E083EF9FEF0E94180D60E070E00A
:1003000080E090E00E943F0D0000DF91CF910895C2
:10031000CF93DF93CDB7DEB74FE050E065EE7FEFD0
:100320008BE190E00E94180D60E070E080E090E0CA
:100330000E943F0D0000DF91CF910895CF93DF938E
:10034000CDB7DEB74FE050E063EF7FEF8DE090E098
:100350000E94180D60E070E080E090E00E943F0D88
:100360000000DF91CF910895CF93DF93CDB7DEB733
:1003700063EF7FEF83EF9FEF0E94F20C60E070E08D
:1003800080E090E00E943F0D0000DF91CF91089542
:10039000CF93DF93CDB7DEB778940E94900D0E9483
:1003A000BB050E94A30D0E942C050E9457080E94C5
:1003B000730D0E946D0284EB0E9476040E946A0015
:1003C00084EF91E00E948E05F9CFCF93DF93CDB7F4
:1003D000DEB727970FB6F894DEBF0FBECDBF8B8375
:1003E0007D836C835F834E838C819D819A83898317
:1003F00013C08B81823731F48981682F82E00E949B
:10040000AB0D05C08981682F81E00E94AB0D898109
:100410009A8101969A83898329813A818E819F816D
:100420008217930734F7000027960FB6F894DEBFC3
:100430000FBECDBFDF91CF910895F89480917303E3
:10044000882311F481E105C08091740084FF05C008
:1004500082E18093730380E015C08091740085FF72
:1004600007C01092740084E08093740088E1F1CF9B
:1004700010927303809176038093740385EA8093CE
:10048000740081E07894089580E197E235E00DC032
:100490002091740020FD06C02091740024FD02C04C
:1004A00081E00895232F2A95F1F701972FEF8F3FD1
:1004B000920771F7F8941092740084E080937400AE
:1004C00080917303803118F483E1809373037894EF
:1004D00080E00895809173030895E4E7F0E01082CE
:1004E00088E4809370008FEF8093730084E08083B2
:1004F00081E08093730308951F920F920FB60F92BD
:100500000BB60F9211242F933F938F939F93EF93EA
:10051000FF9380917100887F80937503883251F139
:10052000893288F4803121F1813138F4882309F44B
:1005300071C0883009F073C01BC08831D9F0803297
:1005400009F06DC067C0803409F442C0813438F4CA
:10055000803309F45FC0883309F061C056C080352C
:1005600059F1883509F442C0883409F058C052C0A6
:10057000109277039091770380917403981768F431
:1005800080917703E82FF0E0E15AFC4F90818F5F74
:10059000809377039093730027C08091780388231A
:1005A00069F1809178038093740380915F03816087
:1005B00080935F0385EA26C0809177039091730052
:1005C000E82FF0E0E15AFC4F90838F5F8093770330
:1005D000809177032091740390E0019630E08217B8
:1005E000930714F485EC0EC085E80CC0E091770306
:1005F00080917300F0E0E15AFC4F808382E08093A9
:10060000730384E98093740010C084E880937400BD
:1006100085E109C084E98093740086E104C084E820
:100620008093740087E180937303FF91EF919F9112
:100630008F913F912F910F900BBE0F900FBE0F9097
:100640001F901895089580937603609378030E9415
:100650001D020E944402089584E580935F0384E2B2
:10066000809360038091590390915A0390936103A2
:100670008093620380915B0390915C03909363038A
:10068000809364038091500390915103909365038C
:100690008093660388E062E00E942303089584E566
:1006A00080935F0383E28093600382E067E00E94AF
:1006B00023039091600380E020916103820F911DDC
:1006C00090935A03809359039091620380E02091A4
:1006D0006303820F911D90935C0380935B03909161
:1006E000640380E020916503820F911D9093510374
:1006F00080935003089584E580935F0382E28093A2
:100700006003809157039091580390936103809305
:1007100062038091520390915303909363038093FB
:10072000640380915D0390915E03909365038093D1
:10073000660388E062E00E942303089584E58093C5
:100740005F0381E28093600382E067E00E942303FD
:100750009091600380E020916103820F911D90933E
:100760005803809357039091620380E020916303C4
:10077000820F911D909353038093520390916403D1
:1007800080E020916503820F911D90935E0380931A
:100790005D03089524E520935F0320E22093600326
:1007A000909361038093620384E062E00E942303DC
:1007B000089594E590935F0393E190936003809391
:1007C000610383E063E00E9423033091600320E033
:1007D00080916103280F311DC901089584E580933C
:1007E0005F0382E18093600382E062E00E94230362
:1007F0008091600380935403089584E580935F03A0
:1008000081E180936003809156038093610383E0CC
:1008100062E00E942303089584E580935F0380E1F2
:1008200080936003809155038093610383E062E0CD
:100830000E942303089584E580935F0386E08093FC
:10084000600382E062E00E942303809160030895C8
:1008500084E580935F0385E08093600382E062E03B
:100860000E94230380916003089584E580935F03D1
:1008700084E08093600382E062E00E942303809121
:10088000600308950F931F93182F062F84E580931C
:100890005F0383E0809360031093610360936203BE
:1008A00084E061E10E942303E0E6F3E007C0A12FAA
:1008B000B0E0A758BC4F81918C93100F153B20F4EA
:1008C00083E0E037F80799F71F910F91089594E5B9
:1008D00090935F0392E09093600380936103609331
:1008E000620384E062E00E942303089594E59093FC
:1008F0005F0391E0909360038093610383E062E083
:100900000E942303089584E580935F03109260039F
:1009100082E062E00E942303089590916500382FE1
:100920003170292F2E7F91E09327922B90936500B1
:10093000909165009D7F311102C020E001C022E04E
:10094000922B9093650090916500977F81FD02C086
:1009500080E001C088E0892B80936500809165006C
:100960008F7E809365008FEF8ABB6BBB85E08A9595
:10097000F1F700008091650084608093650085E058
:100980008A95F1F70000809165008B7F8093650068
:1009900085E08A95F1F700001BBA1ABA0895909184
:1009A0006500382F3170292F2E7F91E09327922BED
:1009B00090936500909165009D7F311102C020E009
:1009C00001C022E0922B9093650090916500977F83
:1009D00081FD02C080E001C088E0892B8093650022
:1009E000809165008061809365001ABA85E08A95E0
:1009F000F1F700008091650084608093650095E1C7
:100A00009A95F1F7000089B3909165009B7F9093D0
:100A1000650095E09A95F1F7000008950F931F93F4
:100A2000CF9390912E04911102C080E011C0C82F85
:100A3000C17000E010E08C2F0E94CF040F5F1F4FA9
:100A400087FF05C00F3F8FEF1807A9F7EECF81E0B2
:100A5000CF911F910F9108958FEF80932E04809175
:100A6000640088608093640080916400806180935A
:100A700064008091640084608093640080916400CD
:100A80008160809364008091640082608093640040
:100A9000B89A1ABA80916500877F8093650080912B
:100AA00065008F7E80936500809165008B7F8093C9
:100AB0006500809165008E7F809365008091650060
:100AC0008D7F80936500C098979B09C097988FE9A8
:100AD0009FE00197F1F700C00000979A06C08FE9E8
:100AE0009FE00197F1F700C00000C09A80E00E94EB
:100AF0000E05882351F081E00E940E05882311F035
:100B000082E001C081E080932E0480912E048F3F0B
:100B100011F410922E0480912E040895009741F054
:100B2000EFE9FFE03197F1F700C000000197F6CF41
:100B300008958FB990916A04892780936A04089573
:100B400010926B0480934C0491E0980F90934E04A4
:100B500096E990936A0490936C04F894B09903C05A
:100B600078940000FACF90EC9DB90E949905779A8D
:100B7000789480E00895B898C098BB9AC39A80E0B2
:100B80000C94A0051F920F920FB60F9211240BB672
:100B90000F922F933F934F935F936F937F938F9316
:100BA0009F93AF93BF93EF93FF938FB190916C049A
:100BB000982790936C04E0916B04E11116C0809328
:100BC0004A048C3130F010924C0410924A0481E0B7
:100BD00009C0482F50E020914E0430E042175307DF
:100BE000FCF08F5F80934E041BC02E2F30E04091AD
:100BF0004A0450E0421753072CF0D901A25BBB4FC7
:100C00008C930EC0215031094217530749F49923A0
:100C100039F080914B048F5F80934B0410924A040B
:100C200080914C04E81728F4F0E0E15DFB4F8081EF
:100C30000AC0E81303C080916A0405C080914E0485
:100C4000E81748F48FEF0E94990580916B048F5F3D
:100C500080936B0411C0B898C0981DB8B898C0981C
:100C600080914D048F5F80934D04789480914A0465
:100C70000E94CE0B0E94A005FF91EF91BF91AF9112
:100C80009F918F917F916F915F914F913F912F91A4
:100C90000F900BBE0F900FBE0F901F901895CF9323
:100CA000DF93C82FD8EBD60F883000F580E00E9484
:100CB0000E056D2F80E00E948D0480E00E940E05DD
:100CC0006C2F660F660F660F605C80E00E948D04DB
:100CD000C1E7D4E082E00E940E05699182E00E94A3
:100CE0008D0484E0C937D807A9F720C0C85081E037
:100CF0000E940E056D2F81E00E948D0481E00E940C
:100D00000E05CC0FCC0FCC0F60E46C0F81E00E947D
:100D10008D04C1E7D4E083E00E940E05699183E071
:100D20000E948D0484E0C937D807A9F7DF91CF91DD
:100D300008958091700408958091790408958093B6
:100D40006D040895CF93DF93D82FC62F809370043E
:100D50006093790480E00E940E0581E00E940E05F8
:100D6000C695C695C695C8546C2F80E00E948D0428
:100D70006C2F81E00E948D0480E00E940E0581E0CE
:100D80000E940E0560E4D13428F080E00E948D04BA
:100D90006D2F05C06D0F80E00E948D0460E481E03E
:100DA000DF91CF910C948D041F93CF93DF93182F75
:100DB000C8EB80E00E940E0581E00E940E056C2FBA
:100DC00080E00E948D046C2F81E00E948D04D0E4AD
:100DD00082E00E940E0583E00E940E05612F82E0F2
:100DE0000E948D04612F83E00E948D04D15081F711
:100DF000CF5FC03CF1F680E00E940E0581E00E94CA
:100E00000E0568EB80E00E948D0468EB81E0DF91C5
:100E1000CF911F910C948D040F931F93CF93DF9369
:100E2000D82FC62F8091700487FD37C011E0803421
:100E300008F410E0812F0E940E0502E0010F802FC0
:100E40000E94CF04802F0E94CF0490916D0492FFE6
:100E500002C0D0959B7FDC23911102C0C82F04C033
:100E6000913021F4C095C823CD2B02C0C82FCD27C7
:100E7000812F0E940E05609170046064812F0E9492
:100E80008D04812F0E940E056C2F802F0E948D04EF
:100E9000809170048F5F80937004DF91CF911F91D8
:100EA0000F91089590EE980F903608F080E88052E8
:100EB00096E0899FF0011124E35FFE4F90818091BD
:100EC0006F04811101C09FE125E080E090FD8F5FFC
:100ED00096952150D9F708957F928F929F92AF9265
:100EE000BF92CF92DF92EF92FF920F931F93CF9317
:100EF000DF93C62F90EE980F903608F080E880526E
:100F000026E0829FC0011124FC01E25FFE4F7F01B9
:100F1000FC01E35FFE4F908080916F04811102C05D
:100F20009FE1992EAC2E0C2E000CBB086FEF70E0E9
:100F30006B010C2E01C0CC0C0A94EAF78C2C002714
:100F400011270A191B09002E02C0759567950A948E
:100F5000E2F7D62F85E0782E90FE15C0F70180814C
:100F6000C7FD07C0682D0A2C01C0880F0A94EAF754
:100F700008C090E0002E02C0959587950A94E2F78C
:100F80006D2F0E940C079694FFEFEF1AFF0A7A94D8
:100F90007110E2CFC7FD02C06C2D07C06FEF70E08B
:100FA00002C0759567950A95E2F780E0DF91CF91D1
:100FB0001F910F91FF90EF90DF90CF90BF90AF9077
:100FC0009F908F907F900C940C071F93CF93DF938B
:100FD000D82F10917004C0917904C7706C2F0E94B3
:100FE0006C07CC23A9F060917904685F812F0E947F
:100FF000A20668EF6C0F8D2F0E946C076091790438
:10100000685080917004DF91CF911F910C94A206DB
:10101000DF91CF911F910895CF93DF93EC018991D8
:10102000882319F00E94E507FACFDF91CF91089548
:101030000F931F93CF938C01C0E0F80181918F0132
:10104000882331F00E9452078C0FC1E0C80FF5CF02
:101050008C2FCF911F910F910895CF93DF93EC01C7
:10106000CE01FE012491222331F02196FC018491CE
:101070000E94E507F5CFDF91CF9108950F931F935D
:10108000CF938C01C0E0C801F8012491222351F0D4
:101090000F5F1F4FFC0184910E9452078C0FC1E02B
:1010A000C80FF1CF8C2FCF911F910F91089580E041
:1010B0000E940E056FE380E00E948D0480E00E9494
:1010C0000E0560EC80E00E948D0480E00E940E0519
:1010D00060E480E00E948D0480E00E940E0568EBD1
:1010E00080E00E948D0481E00E940E056FE381E0A4
:1010F0000E948D0481E00E940E0560EC81E00E9458
:101100008D0481E00E940E0560E481E00E948D0460
:1011100081E00E940E0568EB81E00E948D0480E072
:101120000E94D40681E080936D04089580936F043B
:10113000089580916F040895CF93DF93909179047F
:101140009770C1E001C0CC0F9A95EAF7D82FDD2344
:1011500031F06C2F8C2F0E940C07D150F8CFDF910B
:10116000CF910895AF92BF92CF92DF92EF92FF920C
:101170000F931F93CF93DF93B82EC62FE090700488
:1011800010917904812F8770DFEF01C0DD0F8A9500
:10119000EAF788E0A82ECC24CA94D12CCC2321F1E4
:1011A000812F87700A2D081BC01748F4802F8C1BD5
:1011B000960102C0359527958A95E2F7D223FB2C3C
:1011C000FF2031F06D2F8D2F0E940C07FA94F8CF7D
:1011D0008C2F0C1708F4802FC81B180F612F8E2D31
:1011E0000E94A206DFEFDACFDF91CF911F910F911E
:1011F000FF90EF90DF90CF90BF90AF900895682F51
:1012000081E00C94B2082F923F924F925F926F92BE
:101210007F928F929F92AF92BF92CF92DF92EF9286
:10122000FF920F931F93CF93DF93482ED62F5A012F
:101230003090700480907904882D87709FEF992EEC
:1012400001C0990C8A95EAF7242D30E0C901019775
:1012500097FD079623E0959587952A95E1F7C1E0DC
:10126000C80FEC2EF12C670133E0CC0CDD1C3A9555
:10127000E1F7512C48E0242EDD2309F456C0882DD7
:101280008770722C781AD71550F4872D8D1B2FEF8D
:1012900030E002C0359527958A95E2F79222052D18
:1012A000070DC09F80011124612C641481F1862DEB
:1012B000877059F0E82FF0E0EF58FB4F8081692DDF
:1012C00089210E940C076394F0CF962D96959695F0
:1012D0009695F801E90FF11DEC19FD09EA0DFB1DCA
:1012E00028E030E04081A1E7B4E09C91969540FD74
:1012F00090689C934695119669E774E06A177B079E
:10130000A1F7EE0DFF1D2150310961F7D3CF8D2FCD
:101310007D1608F4872DD81B880E580E682D832D56
:101320000E94A20699249A94A7CFDF91CF911F9192
:101330000F91FF90EF90DF90CF90BF90AF909F9074
:101340008F907F906F905F904F903F902F90089577
:101350002F923F924F925F926F927F928F929F92C5
:10136000AF92BF92CF92DF92EF92FF920F931F93B3
:10137000CF93DF93482ED62F4A013090700400910E
:101380007904802F87701FEF01C0110F8A95EAF74B
:10139000242D30E0C901019797FD079623E095952C
:1013A00087952A95E1F7C1E0C80FCC2ED12C5601C4
:1013B00033E0AA0CBB1C3A95E1F7512C48E0242EEF
:1013C000DD2309F455C0802F8770722C781AD71549
:1013D00050F4872D8D1B2FEF30E002C035952795F7
:1013E0008A95E2F71223E52CE70CCE9D70011124BB
:1013F000612C641481F1862D877059F0E82FF0E09C
:10140000EF58FB4F8081612F81230E940C0763946A
:10141000F0CF962D969596959695F701E90FF11DCB
:10142000EA19FB09E80DF91D28E030E04491A1E735
:10143000B4E09C91969540FD90689C9346951196DA
:1014400069E774E06A177B07A1F7EC0DFD1D2150D9
:10145000310961F7D3CF8D2F7D1608F4872DD81B66
:10146000080F580E602F832D0E94A2061FEFA8CFF1
:10147000DF91CF911F910F91FF90EF90DF90CF9070
:10148000BF90AF909F908F907F906F905F904F90A4
:101490003F902F90089590917904977021E030E06B
:1014A00001C0220F9A95EAF7882311F0622F01C03C
:1014B00060E0822F0C940C07BF92CF92DF92EF92E4
:1014C000FF920F931F93CF93DF93182F062FD09186
:1014D000700480917904D1130FC0861720F4962FE1
:1014E000981B892F06C0C82FC61B812F0E94A206F9
:1014F0008C2F0E94FF085AC0F82E68130DC0D11718
:1015000018F4812F8D1B05C0D11B812F0E94A206CC
:101510008D2F0E949C084AC01D1728F4DD2ED11A79
:10152000CC24CA9409C0D11728F4D12EDD1ACC24BA
:10153000C39402C0C12CD12C081728F4C82FC01B9B
:10154000BB24BA9409C0801728F4C02FC81BBB2441
:10155000B39402C0B12CC0E081E00E944B0ACD15CB
:1015600098F4ED2CE694E194EC0EDC0D1E1414F4CA
:10157000ED18FB0C6F2D8D2F0E94A20681E00E94BA
:101580004B0A1D13F1CF12C0EC2EE694E194ED0C42
:10159000FB0C1E1414F4EC1ADC0D6F2D8D2F0E9421
:1015A000A20681E00E944B0A0F11F1CF602F812F1C
:1015B000DF91CF911F910F91FF90EF90DF90CF902F
:1015C000BF900C94A20680E00E94D40610926E0494
:1015D00010927A040895863130F4683020F46093D4
:1015E0006E0480937A040895CF92DF92EF92FF9277
:1015F0000F931F93CF93DF93C9EB29E7C22E24E00B
:10160000D22E10E0D0E007E40C0FD83050F580E087
:101610000E940E056C2F80E00E948D0480E00E94E5
:101620000E0560E4610F80E00E948D0482E00E945C
:10163000CF0491E7E92E94E0F92E82E00E94CF04D6
:10164000F70181937F01F9E7EF16F4E0FF06A9F7B0
:10165000602F8D2F0E944F06DF5F185FD031A9F6F3
:101660001FC081E00E940E056C2F81E00E948D0456
:1016700081E00E940E05612F81E00E948D0483E0CD
:101680000E94CF0481E7E82E84E0F82E83E00E94D8
:10169000CF04F70181937F01CE16DF06B9F7D8CFCB
:1016A000CF5FC03C09F0ADCFE1E7F4E089E794E01B
:1016B00011928E179F07E1F7C0E067E08C2F0E9420
:1016C0004F06CF5FC031C9F780916E04882319F0AF
:1016D000815080936E04DF91CF911F910F91FF9005
:1016E000EF90DF90CF9008950F931F93CF931092B8
:1016F0006F048C01F801C1918F01CC23B9F1CA307C
:1017000069F410927A0480916E048F5F80936E0466
:10171000883081F781E00E94F40AECCFCD3051F39C
:1017200080917A04853160F010927A0480916E0481
:101730008F5F80936E04883019F481E00E94F40A70
:1017400060916E04660F660F660F80917A04982F81
:10175000990F890F880F0E94A2068C2F0E94E5071F
:1017600080917A048F5F80937A04C4CFCF911F91C8
:101770000F910895789420E137E297E0899FF00176
:101780001124EF57FB4F2150310919F080818F3F11
:10179000D1F781E0232B09F480E008959091D504DE
:1017A0009F5F9093D5048B3141F4EFE4F4E0A8EB14
:1017B000B4E001900D928A95E1F78FEF80933D049C
:1017C0008093360480932F04909181049F3F69F0A9
:1017D00097E0E1E8F4E0AFE2B4E001900D929A9571
:1017E000E1F78093810487E001C080E09091880454
:1017F0009F3F79F0A82FB0E0A15DBB4F97E0E8E8EC
:10180000F4E001900D929A95E1F79FEF9093880490
:10181000895F90918F049F3F79F0A82FB0E0A15D80
:10182000BB4F87E0EFE8F4E001900D928A95E1F775
:101830008FEF80938F0404C0811102C087E0089568
:1018400085E1089527E0829FC0011124FC01EF5734
:10185000FB4F81E090819F3F09F480E00895F89468
:10186000AAE9B4E0E8EBF4E0818190E0982F8827C2
:101870002081820F911D11969C938E93838190E01D
:10188000982F88272281820F911D13969C938E9307
:101890001297858190E0982F88272481820F911DCF
:1018A00015969C938E931497878190E0982F8827A4
:1018B0002681820F911D17969C938E931697818592
:1018C00090E0982F88272085820F911D19969C9370
:1018D0008E9318977894F894228580917D04909146
:1018E0007E04AC01420F511D9385892F90E0982F03
:1018F0008827840F951F90939704809396042485DE
:1019000080917B0490917C04AC01420F511D958520
:10191000892F90E0982F8827840F951F9093AF040C
:101920008093AE04878590E0982F88272685820FC4
:10193000911D9093D7048093D604818990E0982FCD
:1019400088272089820F911D9093AD048093AC0469
:10195000838990E0982F88272289820F911D909388
:10196000800480937F04858990E0982F88272489BC
:10197000820F911D9093B7048093B6047894F894E5
:10198000808D90E0982F88272789820F911D909352
:10199000990480939804828D90E0982F8827218D58
:1019A000820F911D9093D4048093D304789481E0A6
:1019B0000895F89481E08093810478940895F894D0
:1019C0008AE080938104789481E00895F894E1E8B6
:1019D000F4E025E020838183928363837483789489
:1019E00081E00895F894E1E8F4E022E02083818327
:1019F000928363837483789481E0089520917D04B9
:101A000030917E04821B930B20917B0430917C04E7
:101A1000621B730BF894E1E8F4E023E020838183F8
:101A200092836383748345835683789481E0089519
:101A3000F894E1E8F4E024E02083818392836383D7
:101A4000748345835683789481E008951F93CF93E0
:101A5000DF93182FD62FC42F82E00E94BA0BF89480
:101A6000E1E8F4E086E086871787D08BC18B789415
:101A700081E0DF91CF911F91089581E00895F8945E
:101A8000E8EBF4E0258530E0322F22274485240F4F
:101A9000311D438550E0542F4427E2854E0F511DE0
:101AA000FC01E41BF50BF0937E04E0937D04AB0195
:101AB000421B530B50937C0440937B0490939704F8
:101AC000809396047093AF046093AE04789481E0A1
:101AD000089581E00E94BA0BF89488E0809388040E
:101AE000789481E0089581E00E94BA0BF89487E031
:101AF00080938804789481E00895CF93DF93D82F62
:101B0000C92F81E00E94BA0BF894E1E8F4E089E083
:101B10008783D087C187789481E0DF91CF91089542
:101B20008F9A97988AE090E00E948E05979A84E6B3
:101B300090E00C948E0587E00E94B70E9093D90434
:101B40008093D8040895BF9AC79ABD9ABE9A8FEF22
:101B500082B984BB089595B321E030E0062E01C020
:101B6000220F0A94EAF780FF02C0292B02C02095B9
:101B7000292325BB23B181FF08C081E090E001C08B
:101B8000880F6A95EAF7822B08C081E090E001C0D7
:101B9000880F6A95EAF78095822383B90895909318
:101BA000E1048093E00408958091E0049091E104C1
:101BB00008959093DB048093DA0408958091DA0409
:101BC0009091DB0408959093DD048093DC040895E4
:101BD0008091DC049091DD0408951092E30410924A
:101BE000E2041092DF041092DE041092E4041092DA
:101BF000E5041092E6041092E7041092DB041092C0
:101C0000DA041092DD041092DC048FEF93E09093DD
:101C1000E1048093E004C598C698BD9ABE9ABF9A25
:101C2000C79A1DBC1CBC8AEA8FBD82E18EBD80E0D4
:101C300094E097BD86BD87B7846087BF08951F92E3
:101C40000F920FB60F9211242F933F934F938F93C0
:101C50009F93AF93BF938091E2049091E3049C0122
:101C6000285E3F4F283E43E0340728F43093E304D6
:101C70002093E2040FC0805D93409093E30480932F
:101C8000E2048091DE049091DF0401969093DF04DA
:101C90008093DE048091DE049091DF049C012F5F2D
:101CA0003F4F283E43E0340728F43093DF0420936D
:101CB000DE0419C0875E93409093DF048093DE04B6
:101CC0008091E4049091E504A091E604B091E704CA
:101CD0000196A11DB11D8093E4049093E504A093A7
:101CE000E604B093E7048091DA049091DB048F3F1F
:101CF00023E0920710F080E094E09BBD8ABD8091C4
:101D0000DC049091DD048F3F43E0940710F080E005
:101D100094E099BD88BD8091E0049091E1048F3FEB
:101D200023E0920710F080E094E090937900809394
:101D30007800BF91AF919F918F914F913F912F91DB
:101D40000F900FBE0F901F901895E1E6F0E0908184
:101D500021E030E001C0220F8A95EAF72095922316
:101D60009083E2E6F0E0808128232083089590E4C8
:101D700097B997B18770982B97B987EC86B9369B3E
:101D800002C00000FCCF24B185B190E0982F8827D5
:101D9000820F911D2091E8043091E904280F391F2A
:101DA0003093E9042093E80408958091E804909129
:101DB000E90408950F931F93CF93DF93CDB7DEB758
:101DC0002E970FB6F894DEBF0FBECDBF0D891E89CA
:101DD00086E08C831A8309838FEF9FE79E838D8330
:101DE000AE01475E5F4F6F89788DCE0101960E94EC
:101DF000090FEF81F885E00FF11F10822E960FB6C4
:101E0000F894DEBF0FBECDBFDF91CF911F910F9130
:101E100008952F923F924F925F926F927F928F928E
:101E20009F92AF92BF92CF92DF92EF92FF920F9369
:101E30001F93CF93DF93CDB7DEB72B970FB6F894F0
:101E4000DEBF0FBECDBF6C017B018A01FC01178292
:101E50001682838181FFCCC1CE0101963C01F6013F
:101E60009381F70193FD859193FF81917F018823F1
:101E700009F4BAC1853239F493FD859193FF8191BC
:101E80007F01853229F4B60190E00E942911E7CF45
:101E9000912C212C312CFFE1F315D8F08B3279F005
:101EA00038F4803279F08332A1F4232D20611DC0F3
:101EB0008D3261F0803369F4232D216016C0832DAB
:101EC0008260382EE32DE4603E2E2AC0F32DF860A8
:101ED0001DC037FC2DC020ED280F2A3040F08E3277
:101EE000B9F436FC81C1232D2064322E19C036FE90
:101EF00006C08AE0989E200D1124922E11C0EAE0BF
:101F00002E9E200D1124222EF32DF0623F2E08C0AC
:101F10008C3621F4832D8068382E02C0883641F437
:101F2000F70193FD859193FF81917F018111B3CFDB
:101F3000982F9F7D9554933028F40C5F1F4F9FE39B
:101F400099830DC0833631F0833771F0833509F002
:101F500059C021C0F801808189830E5F1F4F8824FA
:101F60008394912C530113C02801F2E04F0E511CB1
:101F7000F801A080B18036FE03C0692D70E002C078
:101F80006FEF7FEFC5010E941E114C018201F32DFE
:101F9000FF773F2E16C0280122E0420E511CF801A7
:101FA000A080B18036FE03C0692D70E002C06FEFE3
:101FB0007FEFC5010E9413114C01F32DF0683F2EF5
:101FC000820133FC1BC0822D90E088169906B0F484
:101FD000B60180E290E00E9429112A94F4CFF50125
:101FE00037FC859137FE81915F01B60190E00E9438
:101FF000291121102A9421E0821A91088114910458
:1020000071F7E8C0843611F0893641F5F80137FEE2
:1020100007C060817181828193810C5F1F4F08C06E
:1020200060817181072E000C880B990B0E5F1F4F8A
:10203000F32DFF763F2E97FF09C090958095709500
:1020400061957F4F8F4F9F4FF0683F2E2AE030E021
:10205000A3010E946511882E861845C0853731F48A
:10206000232D2F7EB22E2AE030E025C0932D997FBC
:10207000B92E8F36C1F018F4883579F0B5C08037A5
:1020800019F0883721F0B0C0E92FE061BE2EB4FE10
:102090000DC0FB2DF460BF2E09C034FE0AC0292FED
:1020A0002660B22E06C028E030E005C020E130E016
:1020B00002C020E132E0F801B7FE07C06081718103
:1020C000828193810C5F1F4F06C06081718180E027
:1020D00090E00E5F1F4FA3010E946511882E8618A5
:1020E000FB2DFF773F2E36FE0DC0232D2E7FA22E17
:1020F000891458F434FE0BC032FC09C0832D8E7E47
:10210000A82E05C0B82CA32C03C0B82C01C0B92C34
:10211000A4FE0FC0FE01E80DF11D8081803321F483
:102120009A2D997EA92E09C0A2FE06C0B394B3943D
:1021300004C08A2D867809F0B394A3FC11C0A0FED8
:1021400006C0B21488F4280C922C9B180EC0B2144E
:1021500060F4B60180E290E00E942911B394F7CFB9
:10216000B21418F42B1802C0982C212CA4FE10C015
:10217000B60180E390E00E942911A2FE17C0A1FCE5
:1021800003C088E790E002C088E590E0B6010CC08B
:102190008A2D867859F0A1FE02C08BE201C080E250
:1021A000A7FC8DE2B60190E00E942911891438F451
:1021B000B60180E390E00E9429119A94F7CF8A94A7
:1021C000F301E80DF11D8081B60190E00E94291114
:1021D0008110F5CF222009F442CEB60180E290E0D2
:1021E0000E9429112A94F6CFF6018681978102C0B8
:1021F0008FEF9FEF2B960FB6F894DEBF0FBECDBFCB
:10220000DF91CF911F910F91FF90EF90DF90CF90D2
:10221000BF90AF909F908F907F906F905F904F9006
:102220003F902F900895FC0105906150704001107F
:10223000D8F7809590958E0F9F1F0895FC016150EF
:10224000704001900110D8F7809590958E0F9F1FD8
:1022500008950F931F93CF93DF93FB01238121FDFB
:1022600003C08FEF9FEF2CC022FF16C0468157811D
:10227000248135814217530744F4A081B1819D0127
:102280002F5F3F4F318320838C93268137812F5FCF
:102290003F4F3783268314C08B01EC01FB01008480
:1022A000F185E02D0995892BE1F6D80116968D91DF
:1022B0009C911797019617969C938E931697CE0133
:1022C000DF91CF911F910F910895FA01AA2728302D
:1022D00051F1203181F1E8946F936E7F6E5F7F4FF3
:1022E0008F4F9F4FAF4FB1E03ED0B4E03CD0670F6F
:1022F000781F891F9A1FA11D680F791F8A1F911DC2
:10230000A11D6A0F711D811D911DA11D20D009F411
:1023100068943F912AE0269F11243019305D319353
:10232000DEF6CF010895462F4770405D4193B3E03C
:102330000FD0C9F7F6CF462F4F70405D4A3318F0E3
:10234000495D31FD4052419302D0A9F7EACFB4E094
:10235000A6959795879577956795BA95C9F700974C
:102360006105710508959B01AC010A2E06945795ED
:10237000479537952795BA95C9F7620F731F841F44
:0A238000951FA01D0895F894FFCFEB
:10238A0044697374616E7A3A202533690003000048
:10239A000000000400005F00000E00070007001F95
:1023AA00147F147F141F242A7F2A121F2313086400
:1023BA00621F36495522500600050300000E001C14
:1023CA002241000E0041221C001F14083E08141F5F
:1023DA0008083E08080600A06000000F0808080860
:1023EA00080600606000000E00601C03001F3E51DA
:1023FA0049453E0E00427F40001F42615149461D39
:10240A002141454B311F1814127F101D27454545A0
:10241A0039173C4A4949301E01710905031D3649DD
:10242A004949361D064949291E0600363600000666
:10243A0000AC6C00000F08142241000F141414148D
:10244A00141E00412214081F02015109061F3249B5
:10245A0079413E1F7C1211127C177F494949361770
:10246A003E414141221F7F4141221C177F49494970
:10247A0041177F09090901173E4149497A177F081F
:10248A0008087F0E00417F41001F2040413F011F85
:10249A007F08142241177F404040401F7F020C02F0
:1024AA007F1F7F0408107F173E4141413E177F0975
:1024BA00090906173E414141BE1D7F0919294617E0
:1024CA0046494949311F01017F0101173F404040F8
:1024DA003F1F1F2040201F1F3F4038403F1F6314EB
:1024EA000814631F07087008071F61514945430E06
:1024FA00007F4141000E00031C60000E0041417F35
:10250A00000E04020102041F40404040400C00003B
:10251A00030400172054545478177F48444438174A
:10252A0038444444201D384444487F17385454548E
:10253A001817087E0901021718A4A4A478177F089F
:10254A000404780E00447D40000D4080847D000F15
:10255A007F102844000E00417F40001F7C0478044D
:10256A0078177C0804047817384444443817FC2444
:10257A002424181718242424FC177C080404081798
:10258A00485454542017043F4440201D3C404020E6
:10259A007C1F1C2040201C1F3C4030403C1F44280C
:1025AA00102844171CA0A0A07C1F4464544C440E5D
:1025BA0000083641000400007F00000E0041360882
:0E25CA00001F02010204021FAA55AA55AA0012
:00000001FF
