:100000000C9449000C9468000C9468000C946800EF
:100010000C9468000C9468000C9468000C946800C0
:100020000C9468000C9468000C9468000C946800B0
:100030000C9468000C9468000C94190B0C946800E4
:100040000C9468000C94BC020C9468000C9468003A
:100050000C9468000C9468000C9468000C94680080
:100060000C9468000C9468000C9468000C94680070
:100070000C9468000C9468000C9468000C94680060
:100080000C9468000C9468000C946800322E313196
:10009000000011241FBECFEFD0E1DEBFCDBF13E0C3
:1000A000A0E0B1E0E6E2F9E100E00BBF02C007909A
:1000B0000D92A235B107D9F724E0A2E5B3E001C063
:1000C0001D92A031B207E1F70E946A000C94910CD6
:1000D0000C940000CF93DF93CDB7DEB768970FB6CF
:1000E000F894DEBF0FBECDBF78940E948A0A0E94AA
:1000F000B5020E949D0A0E9426020E9451050E949C
:100100006D0A1E821D8222E1CE010796FC01322F6C
:1001100011923A95E9F71A82198280E00E94CE0383
:1001200060E08EE10E949C0384E091E00E9406055D
:100130000E9429096FE070E08FE090E00E94EC09D6
:100140008091C4039091C5038115934308F10E94E7
:100150001F0C81709078992324F401978E6F9F6F04
:1001600001969C838B838B819C81892B49F44FE082
:1001700050E06BE170E085EE9FEF0E94120A08C02C
:100180004FE050E065EE7FEF8BE190E00E94120AB5
:100190008091C2039091C3038115934340F04AE0DC
:1001A00050E06DE070E083EF9FEF0E94120A8091B3
:1001B000C6039091C7038115934340F04FE050E090
:1001C00063EF7FEF8DE090E00E94120A8091C00300
:1001D0009091C10381159E4290F18091C20390914C
:1001E000C3038115934358F18091C4039091C503D3
:1001F00081159E4220F167E082E00E94A50A66E038
:1002000082E00E94A50A65E082E00E94A50A84EFD0
:1002100091E00E94880267E080E00E94A50A66E003
:1002200080E00E94A50A65E080E00E94A50A4FE0F8
:1002300050E06BE170E085EE9FEF0E94120A809122
:10024000C8039091C90381159E4290F18091C60325
:100250009091C7038115934358F18091C403909105
:10026000C50381159E4220F162E082E00E94A50A4A
:1002700063E082E00E94A50A64E082E00E94A50A91
:1002800084EF91E00E94880262E080E00E94A50A6B
:1002900063E080E00E94A50A64E080E00E94A50A75
:1002A0004FE050E065EE7FEF8BE190E00E94120A94
:1002B0008091C0039091C1038115934318F18091FF
:1002C000C8039091C90381159343E0F08091C40362
:1002D0009091C50381159343A8F006C061EF7FEFAD
:1002E00081EF9FEF0E94EC098091C0039091C103C0
:1002F0008115934338F08091C8039091C90381150B
:10030000934360F784EF91E00E94880206CF9091BA
:100310006500382F3170292F2E7F91E09327922B83
:1003200090936500909165009D7F311102C020E09F
:1003300001C022E0922B9093650090916500977F19
:1003400081FD02C080E001C088E0892B80936500B8
:10035000809165008F7E809365008FEF8ABB6BBBB9
:1003600085E08A95F1F700008091650084608093B4
:10037000650085E08A95F1F70000809165008B7F2C
:100380008093650085E08A95F1F700001BBA1ABAE0
:10039000089590916500382F3170292F2E7F91E0BC
:1003A0009327922B90936500909165009D7F31116A
:1003B00002C020E001C022E0922B90936500909152
:1003C0006500977F81FD02C080E001C088E0892B35
:1003D00080936500809165008061809365001ABA02
:1003E00085E08A95F1F70000809165008460809334
:1003F000650095E19A95F1F7000089B39091650049
:100400009B7F9093650095E09A95F1F70000089521
:100410000F931F93CF9390915403911102C080E0EA
:1004200011C0C82FC17000E010E08C2F0E94C901DC
:100430000F5F1F4F87FF05C00F3F8FEF1807A9F70A
:10044000EECF81E0CF911F910F9108958FEF8093B0
:1004500054038091640088608093640080916400FC
:100460008061809364008091640084608093640064
:100470008091640081608093640080916400826058
:1004800080936400B89A1ABA80916500877F809340
:100490006500809165008F7E809365008091650086
:1004A0008B7F80936500809165008E7F80936500CF
:1004B000809165008D7F80936500C098979B09C0EF
:1004C00097988FE99FE00197F1F700C00000979A95
:1004D00006C08FE99FE00197F1F700C00000C09AC5
:1004E00080E00E940802882351F081E00E94080207
:1004F000882311F082E001C081E080935403809151
:1005000054038F3F11F410925403809154030895C3
:10051000009741F0EFE9FFE03197F1F700C00000EC
:100520000197F6CF08958FB9909190038927809312
:1005300090030895109291038093720391E0980FB5
:100540009093740396E99093900390939203F89498
:10055000B09903C078940000FACF90EC9DB90E9446
:100560009302779A789480E00895B898C098BB9ADF
:10057000C39A80E00C949A021F920F920FB60F92CA
:1005800011240BB60F922F933F934F935F936F936A
:100590007F938F939F93AF93BF93EF93FF938FB10D
:1005A00090919203982790939203E0919103E11127
:1005B00016C0809370038C3130F010927203109249
:1005C000700381E009C0482F50E02091740330E0AF
:1005D00042175307FCF08F5F809374031BC02E2FCC
:1005E00030E04091700350E0421753072CF0D901DE
:1005F000AC58BC4F8C930EC02150310942175307A1
:1006000049F4992339F0809171038F5F80937103CE
:100610001092700380917203E81728F4F0E0EB5A0F
:10062000FC4F80810AC0E81303C08091900305C08D
:1006300080917403E81748F48FEF0E949302809131
:1006400091038F5F8093910311C0B898C0981DB833
:10065000B898C098809173038F5F809373037894E8
:10066000809170030E94C8080E949A02FF91EF9146
:10067000BF91AF919F918F917F916F915F914F91BA
:100680003F912F910F900BBE0F900FBE0F901F90B8
:100690001895CF93DF93C82FD8EBD60F883000F58D
:1006A00080E00E9408026D2F80E00E94870180E0B8
:1006B0000E9408026C2F660F660F660F605C80E078
:1006C0000E948701C7E9D3E082E00E940802699195
:1006D00082E00E94870183E0CF39D807A9F720C0C4
:1006E000C85081E00E9408026D2F81E00E948701BE
:1006F00081E00E940802CC0FCC0FCC0F60E46C0F9D
:1007000081E00E948701C7E9D3E083E00E940802EC
:10071000699183E00E94870183E0CF39D807A9F768
:10072000DF91CF91089580919603089580919F0362
:100730000895809393030895CF93DF93D82FC62F06
:100740008093960360939F0380E00E94080281E0FB
:100750000E940802C695C695C695C8546C2F80E0C5
:100760000E9487016C2F81E00E94870180E00E9437
:10077000080281E00E94080260E4D13428F080E0A1
:100780000E9487016D2F05C06D0F80E00E948701D8
:1007900060E481E0DF91CF910C9487011F93CF93A8
:1007A000DF93182FC8EB80E00E94080281E00E94CE
:1007B00008026C2F80E00E9487016C2F81E00E946C
:1007C0008701D0E482E00E94080283E00E940802D0
:1007D000612F82E00E948701612F83E00E948701E0
:1007E000D15081F7CF5FC03CF1F680E00E94080253
:1007F00081E00E94080268EB80E00E94870168EBBC
:1008000081E0DF91CF911F910C9487010F931F938B
:10081000CF93DF93D82FC62F8091960387FD37C0E3
:1008200011E0803408F410E0812F0E94080202E0F9
:10083000010F802F0E94C901802F0E94C901909151
:10084000930392FF02C0D0959B7FDC23911102C0DD
:10085000C82F04C0913021F4C095C823CD2B02C00D
:10086000C82FCD27812F0E940802609196036064F3
:10087000812F0E948701812F0E9408026C2F802FF8
:100880000E948701809196038F5F80939603DF918A
:10089000CF911F910F91089590EE980F903608F028
:1008A00080E8805296E0899FF0011124EF5EFE4FB0
:1008B000908180919503811101C09FE125E080E046
:1008C00090FD8F5F96952150D9F708957F928F9272
:1008D0009F92AF92BF92CF92DF92EF92FF920F93CF
:1008E0001F93CF93DF93C62F90EE980F903608F0AA
:1008F00080E8805226E0829FC0011124FC01EE5E58
:10090000FE4F7F01FC01EF5EFE4F908080919503CA
:10091000811102C09FE1992EAC2E0C2E000CBB0859
:100920006FEF70E06B010C2E01C0CC0C0A94EAF75B
:100930008C2C002711270A191B09002E02C075955F
:1009400067950A94E2F7D62F85E0782E90FE15C0C1
:10095000F7018081C7FD07C0682D0A2C01C0880FF0
:100960000A94EAF708C090E0002E02C0959587959A
:100970000A94E2F76D2F0E9406049694FFEFEF1A97
:10098000FF0A7A947110E2CFC7FD02C06C2D07C038
:100990006FEF70E002C0759567950A95E2F780E009
:1009A000DF91CF911F910F91FF90EF90DF90CF904B
:1009B000BF90AF909F908F907F900C9406041F93F0
:1009C000CF93DF93D82F10919603C0919F03C770E8
:1009D0006C2F0E946604CC23A9F060919F03685F8E
:1009E000812F0E949C0368EF6C0F8D2F0E9466047C
:1009F00060919F03685080919603DF91CF911F9182
:100A00000C949C03DF91CF911F910895CF93DF93B6
:100A1000EC018991882319F00E94DF04FACFDF915D
:100A2000CF9108950F931F93CF938C01C0E0F801ED
:100A300081918F01882331F00E944C048C0FC1E01A
:100A4000C80FF5CF8C2FCF911F910F910895CF93A1
:100A5000DF93EC01CE01FE012491222331F0219697
:100A6000FC0184910E94DF04F5CFDF91CF910895BE
:100A70000F931F93CF938C01C0E0C801F80124911C
:100A8000222351F00F5F1F4FFC0184910E944C0400
:100A90008C0FC1E0C80FF1CF8C2FCF911F910F9118
:100AA000089580E00E9408026FE380E00E948701C1
:100AB00080E00E94080260EC80E00E94870180E0F4
:100AC0000E94080260E480E00E94870180E00E94AA
:100AD000080268EB80E00E94870181E00E94080222
:100AE0006FE381E00E94870181E00E94080260ECD0
:100AF00081E00E94870181E00E94080260E481E0B9
:100B00000E94870181E00E94080268EB81E00E9458
:100B1000870180E00E94CE0381E0809393030895D3
:100B2000809395030895809195030895CF93DF9363
:100B300090919F039770C1E001C0CC0F9A95EAF79E
:100B4000D82FDD2331F06C2F8C2F0E940604D1505A
:100B5000F8CFDF91CF910895AF92BF92CF92DF92FD
:100B6000EF92FF920F931F93CF93DF93B82EC62F70
:100B7000E090960310919F03812F8770DFEF01C0F3
:100B8000DD0F8A95EAF788E0A82ECC24CA94D12CF0
:100B9000CC2321F1812F87700A2D081BC01748F440
:100BA000802F8C1B960102C0359527958A95E2F718
:100BB000D223FB2CFF2031F06D2F8D2F0E940604D5
:100BC000FA94F8CF8C2F0C1708F4802FC81B180F3D
:100BD000612F8E2D0E949C03DFEFDACFDF91CF9142
:100BE0001F910F91FF90EF90DF90CF90BF90AF904B
:100BF0000895682F81E00C94AC052F923F924F929C
:100C00005F926F927F928F929F92AF92BF92CF929C
:100C1000DF92EF92FF920F931F93CF93DF93482EB3
:100C2000D62F5A013090960380909F03882D8770AD
:100C30009FEF992E01C0990C8A95EAF7242D30E098
:100C4000C901019797FD079623E0959587952A9509
:100C5000E1F7C1E0C80FEC2EF12C670133E0CC0CBA
:100C6000DD1C3A95E1F7512C48E0242EDD2309F4F0
:100C700056C0882D8770722C781AD71550F4872D9E
:100C80008D1B2FEF30E002C0359527958A95E2F74E
:100C90009222052D070DC09F80011124612C641440
:100CA00081F1862D877059F0E82FF0E0E956FC4F6E
:100CB0008081692D89210E9406046394F0CF962DCE
:100CC000969596959695F801E90FF11DEC19FD0999
:100CD000EA0DFB1D28E030E04081A7E9B3E09C91DC
:100CE000969540FD90689C93469511966FE973E048
:100CF0006A177B07A1F7EE0DFF1D2150310961F73F
:100D0000D3CF8D2F7D1608F4872DD81B880E580E53
:100D1000682D832D0E949C0399249A94A7CFDF917C
:100D2000CF911F910F91FF90EF90DF90CF90BF90E8
:100D3000AF909F908F907F906F905F904F903F907B
:100D40002F9008952F923F924F925F926F927F92D1
:100D50008F929F92AF92BF92CF92DF92EF92FF92CB
:100D60000F931F93CF93DF93482ED62F4A013090D5
:100D7000960300919F03802F87701FEF01C0110F12
:100D80008A95EAF7242D30E0C901019797FD07966F
:100D900023E0959587952A95E1F7C1E0C80FCC2E01
:100DA000D12C560133E0AA0CBB1C3A95E1F7512C2B
:100DB00048E0242EDD2309F455C0802F8770722C63
:100DC000781AD71550F4872D8D1B2FEF30E002C015
:100DD000359527958A95E2F71223E52CE70CCE9DF1
:100DE00070011124612C641481F1862D877059F0F3
:100DF000E82FF0E0E956FC4F8081612F81230E94AB
:100E000006046394F0CF962D969596959695F701E6
:100E1000E90FF11DEA19FB09E80DF91D28E030E0A2
:100E20004491A7E9B3E09C91969540FD90689C930E
:100E3000469511966FE973E06A177B07A1F7EC0DF1
:100E4000FD1D2150310961F7D3CF8D2F7D1608F498
:100E5000872DD81B080F580E602F832D0E949C03EE
:100E60001FEFA8CFDF91CF911F910F91FF90EF90CF
:100E7000DF90CF90BF90AF909F908F907F906F90BA
:100E80005F904F903F902F90089590919F0397709F
:100E900021E030E001C0220F9A95EAF7882311F093
:100EA000622F01C060E0822F0C940604BF92CF92A3
:100EB000DF92EF92FF920F931F93CF93DF93182F40
:100EC000062FD091960380919F03D1130FC08617F0
:100ED00020F4962F981B892F06C0C82FC61B812F80
:100EE0000E949C038C2F0E94F9055AC0F82E6813AB
:100EF0000DC0D11718F4812F8D1B05C0D11B812F78
:100F00000E949C038D2F0E9496054AC01D1728F44D
:100F1000DD2ED11ACC24CA9409C0D11728F4D12EC1
:100F2000DD1ACC24C39402C0C12CD12C081728F49C
:100F3000C82FC01BBB24BA9409C0801728F4C02F47
:100F4000C81BBB24B39402C0B12CC0E081E00E9456
:100F50004507CD1598F4ED2CE694E194EC0EDC0DEC
:100F60001E1414F4ED18FB0C6F2D8D2F0E949C03A2
:100F700081E00E9445071D13F1CF12C0EC2EE694CC
:100F8000E194ED0CFB0C1E1414F4EC1ADC0D6F2D27
:100F90008D2F0E949C0381E00E9445070F11F1CF25
:100FA000602F812FDF91CF911F910F91FF90EF90D4
:100FB000DF90CF90BF900C949C0380E00E94CE0302
:100FC000109294031092A0030895863130F4683093
:100FD00020F4609394038093A0030895CF92DF924E
:100FE000EF92FF920F931F93CF93DF93C9EB2FE9FB
:100FF000C22E23E0D22E10E0D0E007E40C0FD83050
:1010000050F580E00E9408026C2F80E00E9487016A
:1010100080E00E94080260E4610F80E00E94870186
:1010200082E00E94C90197E9E92E93E0F92E82E05F
:101030000E94C901F70181937F01FFE9EF16F3E0F8
:10104000FF06A9F7602F8D2F0E944903DF5F185F0D
:10105000D031A9F61FC081E00E9408026C2F81E008
:101060000E94870181E00E940802612F81E00E94B6
:10107000870183E00E94C90187E9E82E83E0F82E0A
:1010800083E00E94C901F70181937F01CE16DF063C
:10109000B9F7D8CFCF5FC03C09F0ADCFE7E9F3E0B7
:1010A0008FE993E011928E179F07E1F7C0E067E0A8
:1010B0008C2F0E944903CF5FC031C9F78091940300
:1010C000882319F0815080939403DF91CF911F9171
:1010D0000F91FF90EF90DF90CF9008950F931F93A3
:1010E000CF93109295038C01F801C1918F01CC230D
:1010F000B9F1CA3069F41092A003809194038F5F14
:1011000080939403883081F781E00E94EE07ECCF52
:10111000CD3051F38091A003853160F01092A0038F
:10112000809194038F5F80939403883019F481E059
:101130000E94EE0760919403660F660F660F809120
:10114000A003982F990F890F880F0E949C038C2F62
:101150000E94DF048091A0038F5F8093A003C4CF1F
:10116000CF911F910F910895789420E137E297E095
:10117000899FF0011124E955FC4F2150310919F0E4
:1011800080818F3FD1F781E0232B09F480E008951F
:101190009091FB039F5F9093FB038B3141F4E5E754
:1011A000F3E0AEEDB3E001900D928A95E1F78FEF99
:1011B0008093630380935C03809355039091A7030E
:1011C0009F3F69F097E0E7EAF3E0A5E5B3E001901F
:1011D0000D929A95E1F78093A70387E001C080E024
:1011E0009091AE039F3F79F0A82FB0E0AB5ABC4F6F
:1011F00097E0EEEAF3E001900D929A95E1F79FEF08
:101200009093AE03895F9091B5039F3F79F0A82F2B
:10121000B0E0AB5ABC4F87E0E5EBF3E001900D92F4
:101220008A95E1F78FEF8093B50304C0811102C066
:1012300087E0089585E1089527E0829FC001112489
:10124000FC01E955FC4F81E090819F3F09F480E06B
:101250000895F894A0ECB3E0EEEDF3E0818190E026
:10126000982F88272081820F911D11969C938E9331
:10127000838190E0982F88272281820F911D1396F9
:101280009C938E931297858190E0982F88272481D4
:10129000820F911D15969C938E931497878190E0F1
:1012A000982F88272681820F911D17969C938E93E5
:1012B0001697818590E0982F88272085820F911DB1
:1012C00019969C938E9318977894F8942285809120
:1012D000A3039091A403AC01420F511D9385892F64
:1012E00090E0982F8827840F951F9093BD038093DB
:1012F000BC0324858091A1039091A203AC01420F0D
:10130000511D9585892F90E0982F8827840F951F70
:101310009093D5038093D403878590E0982F8827F6
:101320002685820F911D9093FD038093FC03818994
:1013300090E0982F88272089820F911D9093D303E6
:101340008093D203838990E0982F88272289820F87
:10135000911D9093A6038093A503858990E0982F13
:1013600088272489820F911D9093DD038093DC03ED
:101370007894F894808D90E0982F88272789820FA1
:10138000911D9093BF038093BE03828D90E0982FB0
:101390008827218D820F911D9093FA038093F90382
:1013A000789481E00895F89481E08093A70378947D
:1013B0000895F8948AE08093A703789481E00895D3
:1013C000F894E7EAF3E025E0208381839283638346
:1013D0007483789481E00895F894E7EAF3E022E0DA
:1013E00020838183928363837483789481E008955A
:1013F0002091A3033091A403821B930B2091A1039E
:101400003091A203621B730BF894E7EAF3E023E048
:101410002083818392836383748345835683789486
:1014200081E00895F894E7EAF3E024E020838183E3
:1014300092836383748345835683789481E008950F
:101440001F93CF93DF93182FD62FC42F82E00E94D3
:10145000B408F894E7EAF3E086E086871787D08B34
:10146000C18B789481E0DF91CF911F91089581E045
:101470000895F894EEEDF3E0258530E0322F222731
:101480004485240F311D438550E0542F4427E285C5
:101490004E0F511DFC01E41BF50BF093A403E093E8
:1014A000A303AB01421B530B5093A2034093A10330
:1014B0009093BD038093BC037093D5036093D403D2
:1014C000789481E0089581E00E94B408F89488E05F
:1014D0008093AE03789481E0089581E00E94B4087F
:1014E000F89487E08093AE03789481E00895CF93D9
:1014F000DF93D82FC92F81E00E94B408F894E7EA5F
:10150000F3E089E08783D087C187789481E0DF9119
:10151000CF9108958F9A97988AE090E00E94880270
:10152000979A84E690E00C94880287E00E94B10BC1
:101530009093FF038093FE030895BF9AC79ABD9AC4
:10154000BE9A8FEF82B984BB089595B321E030E055
:10155000062E01C0220F0A94EAF780FF02C0292B51
:1015600002C02095292325BB23B181FF08C081E05B
:1015700090E001C0880F6A95EAF7822B08C081E0ED
:1015800090E001C0880F6A95EAF78095822383B9BD
:1015900008959093070480930604089580910604AB
:1015A0009091070408959093010480930004089596
:1015B0008091000490910104089590930304809316
:1015C00002040895809102049091030408951092FA
:1015D0000904109208041092050410920404109259
:1015E0000A0410920B0410920C0410920D04109235
:1015F00001041092000410920304109202048FEF71
:1016000093E09093070480930604C598C698BD9A0A
:10161000BE9ABF9AC79A1DBC1CBC8AEA8FBD82E1E4
:101620008EBD80E094E097BD86BD87B7846087BF9C
:1016300008951F920F920FB60F9211242F933F938C
:101640004F938F939F93AF93BF9380910804909192
:1016500009049C01285E3F4F283E43E0340728F4EC
:1016600030930904209308040FC0805D9340909349
:101670000904809308048091040490910504019664
:1016800090930504809304048091040490910504D0
:101690009C012F5F3F4F283E43E0340728F43093EE
:1016A00005042093040419C0875E934090930504B9
:1016B0008093040480910A0490910B04A0910C047F
:1016C000B0910D040196A11DB11D80930A04909361
:1016D0000B04A0930C04B0930D048091000490912E
:1016E00001048F3F23E0920710F080E094E09BBD5F
:1016F0008ABD80910204909103048F3F43E09407D8
:1017000010F080E094E099BD88BD8091060490912E
:1017100007048F3F23E0920710F080E094E090935D
:10172000790080937800BF91AF919F918F914F91F5
:101730003F912F910F900FBE0F901F901895E1E6EB
:10174000F0E0908121E030E001C0220F8A95EAF7B5
:10175000209592239083E2E6F0E080812823208385
:10176000089590E497B997B18770982B97B987EC53
:1017700086B9369B02C00000FCCF24B185B190E051
:10178000982F8827820F911D20910E0430910F040D
:10179000280F391F30930F0420930E040895809171
:1017A0000E0490910F0408958F929F92AF92BF9272
:1017B000CF92DF92EF92FF92CF93DF93EC0168819B
:1017C00079818A819B81611571058105910521F4DB
:1017D00064E279ED8BE597E02DE133EF41E050E0F5
:1017E0000E942E0C49015A019B01AC01A7EAB1E409
:1017F0000E944D0C6B017C01ACEEB4EFA50194018D
:101800000E945B0CDC01CB018C0D9D1DAE1DBF1D2C
:10181000B7FF03C00197A109B04888839983AA83C1
:10182000BB839F77DF91CF91FF90EF90DF90CF90B8
:10183000BF90AF909F908F9008950C94D40B80E050
:1018400091E00C94D40BA0E0B0E080930001909361
:101850000101A0930201B09303010895052E97FBA7
:101860001EF400940E94450C57FD07D00E94600CA6
:1018700007FC03D04EF40C94450C509540953095E0
:1018800021953F4F4F4F5F4F0895909580957095EC
:1018900061957F4F8F4F9F4F08950E94820CA59FA7
:1018A000900DB49F900DA49F800D911D112408955B
:1018B000B7FF0C944D0C0E944D0C821B930B0895A6
:1018C000A1E21A2EAA1BBB1BFD010DC0AA1FBB1F44
:1018D000EE1FFF1FA217B307E407F50720F0A21BB6
:1018E000B30BE40BF50B661F771F881F991F1A9423
:1018F00069F760957095809590959B01AC01BD014D
:10190000CF010895A29FB001B39FC001A39F700DA6
:10191000811D1124911DB29F700D811D1124911DF7
:061920000895F894FFCFCA
:10192600010000004175666761626520352E332E21
:10193600000300000000000400005F00000E000726
:101946000007001F147F147F141F242A7F2A121FEA
:1019560023130864621F364955225006000503000A
:10196600000E001C2241000E0041221C001F14081C
:101976003E08141F08083E08080600A06000000F75
:1019860008080808080600606000000E00601C03D6
:10199600001F3E5149453E0E00427F40001F4261F6
:1019A6005149461D2141454B311F1814127F101D08
:1019B6002745454539173C4A4949301E01710905F5
:1019C600031D36494949361D064949291E06003672
:1019D6003600000600AC6C00000F08142241000F10
:1019E60014141414141E00412214081F0201510974
:1019F600061F324979413E1F7C1211127C177F491E
:101A0600494936173E414141221F7F4141221C1759
:101A16007F49494941177F09090901173E4149494B
:101A26007A177F0808087F0E00417F41001F20407B
:101A3600413F011F7F08142241177F404040401F4D
:101A46007F020C027F1F7F0408107F173E41414131
:101A56003E177F09090906173E414141BE1D7F0910
:101A66001929461746494949311F01017F010117C6
:101A76003F4040403F1F1F2040201F1F3F4038402F
:101A86003F1F63140814631F07087008071F61517E
:101A96004945430E007F4141000E00031C60000EC5
:101AA6000041417F000E04020102041F40404040F5
:101AB600400C0000030400172054545478177F4844
:101AC6004444381738444444201D384444487F175A
:101AD600385454541817087E0901021718A4A4A4F0
:101AE60078177F080404780E00447D40000D40807E
:101AF600847D000F7F102844000E00417F40001FA8
:101B06007C04780478177C08040478173844444425
:101B16003817FC242424181718242424FC177C08BE
:101B260004040817485454542017043F4440201D09
:101B36003C4040207C1F1C2040201C1F3C40304065
:101B46003C1F4428102844171CA0A0A07C1F4464F6
:101B5600544C440E00083641000400007F00000E7D
:101B660000413608001F02010204021FAA55AA55A9
:021B7600AA00C3
:00000001FF
