:100000000C9449000C9468000C9468000C946800EF
:100010000C9468000C9468000C9468000C946800C0
:100020000C9468000C9468000C9468000C946800B0
:100030000C9468000C9468000C94E80F0C94680011
:100040000C9468000C948B070C9468000C94680066
:100050000C9468000C9468000C9468000C94680080
:100060000C9468000C9468000C9468000C94680070
:100070000C9468000C9468000C9468000C94680060
:100080000C9468000C94B0050C946800322E313149
:10009000000011241FBECFEFD0E1DEBFCDBF13E0C3
:1000A000A0E0B1E0ECE1F7E200E00BBF02C0079096
:1000B0000D92A836B107D9F725E0A8E6B3E001C054
:1000C0001D92A630B207E1F70E9424030C948C1312
:1000D0000C940000CF93DF93CDB7DEB7A8970FB68F
:1000E000F894DEBF0FBECDBF1A82198222E1CE0185
:1000F0000396FC01322F11923A95E9F71E8A1D8A68
:1001000022E1CE014796FC01322F11923A95E9F790
:100110000E94F80D0E943C0F0E94C8020E947A03C0
:100120008091B6049091B70481159343C0F18091FA
:10013000BA049091BB048115934388F18091BE0469
:100140009091BF048115934350F181E090E090932A
:100150006903809368038091680390916903292F54
:100160002F938F9380E091E0892F8F9380E091E02F
:100170008F93CE0101969F938F930E94A3100F90AF
:100180000F900F900F900F900F9068E280E00E9408
:100190006B08CE0101960E94D5090E94160380913A
:1001A000B6049091B7048115934308F451C080912F
:1001B000BE049091BF048115934308F449C0809117
:1001C0006A0390916B03019690936B0380936A038B
:1001D00080916A0390916B03292F2F938F938FE067
:1001E00091E0892F8F938FE091E08F93CE0101965C
:1001F0009F938F930E94A3100F900F900F900F90DA
:100200000F900F9060E080E00E946B08CE01019695
:100210000E94D50980916803909169030197C1F408
:1002200080916A0390916B03069691F00E941603E9
:1002300041E050E060E070E082E70E94420380917C
:100240006A0390916B03019790936B0380936A0309
:100250008091B6049091B70481159343C8F18091C1
:10026000BE049091BF048115924390F5809168037C
:1002700090916903019761F50E94D602809168030D
:1002800090916903292F2F938F9389E191E0892F12
:100290008F9389E191E08F93CE014596292F2F937B
:1002A0008F930E94A3100F900F900F900F900F90BC
:1002B0000F9068E280E00E946B08CE0145960E9494
:1002C000D50941E050E060E070E087E60E9442031B
:1002D0008091BE049091BF0481159343C8F1809131
:1002E000B6049091B7048115924390F5809168030C
:1002F00090916903019761F50E94F602809168036D
:1003000090916903292F2F938F9389E191E0892F91
:100310008F9389E191E08F93CE014596292F2F93FA
:100320008F930E94A3100F900F900F900F900F903B
:100330000F9068E280E00E946B08CE0145960E9413
:10034000D50941E050E060E070E087E60E9442039A
:100350008091B6049091B7048115934308F43EC090
:100360008091B8049091B90481159343B8F18091BC
:10037000BA049091BB048115934380F18091BC0431
:100380009091BD048115924348F58091BE049091EF
:10039000BF048115924310F5809168039091690321
:1003A000892BE1F447E050E065E070E082E70E94CD
:1003B000420362E370E088E290E00E94A2036EE1F3
:1003C00070E088E290E00E94A20362E370E081E4C2
:1003D00090E00E94A2030E94D60207C047E050E0CE
:1003E00065E070E087E60E9442038091B804909136
:1003F000B90481159343E8F08091B6049091B70455
:1004000081159243B0F48091680390916903892B20
:1004100081F446E050E066E070E082E70E9442032B
:1004200062E370E088E290E00E94A2030E94E6028C
:1004300007C046E050E066E070E087E60E944203B5
:100440008091BE049091BF048115934308F43EC08F
:100450008091BC049091BD0481159343B8F18091C3
:10046000BA049091BB048115934380F18091B80444
:100470009091B9048115924348F58091B60490910A
:10048000B7048115924310F5809168039091690338
:10049000892BE1F444E050E062E070E082E70E94E2
:1004A000420362E370E08AE590E00E94A2036EE1FD
:1004B00070E08AE590E00E94A20362E370E081E4CC
:1004C00090E00E94A2030E94F60207C044E050E0C0
:1004D00062E070E087E60E9442038091BC04909144
:1004E000BD0481159343E8F08091BE049091BF0450
:1004F00081159243B0F48091680390916903892B30
:1005000081F443E050E063E070E082E70E94420340
:1005100062E370E085E590E00E94A2030E9406037A
:1005200007C043E050E063E070E087E60E944203CA
:100530008091B6049091B70481159243C0F48091E4
:10054000BA049091BB048115934388F08091BE0456
:100550009091BF048115924350F445E050E064E06F
:1005600070E082E70E9442030E94D60207C045E085
:1005700050E064E070E087E60E9442030000A89625
:100580000FB6F894DEBF0FBECDBFDF91CF910895B7
:10059000CF93DF93CDB7DEB76AE070E08AE090E0FA
:1005A0000E94BB0E0000DF91CF910895CF93DF939F
:1005B000CDB7DEB74AE050E06BE170E085EE9FEF2B
:1005C0000E94E10E0000DF91CF910895CF93DF9359
:1005D000CDB7DEB74AE050E06DE070E083EF9FEF0B
:1005E0000E94E10E0000DF91CF910895CF93DF9339
:1005F000CDB7DEB74AE050E065EE7FEF8BE190E0EB
:100600000E94E10E0000DF91CF910895CF93DF9318
:10061000CDB7DEB74AE050E063EF7FEF8DE090E0CA
:100620000E94E10E0000DF91CF910895CF93DF93F8
:10063000CDB7DEB766EF7FEF86EF9FEF0E94BB0E70
:100640000000DF91CF910895CF93DF93CDB7DEB750
:1006500078940E94590F0E9484070E946C0F0E9498
:10066000F5060E94200A0E943C0F84EB0E943A0586
:1006700080E00E949D080E946A0080E293E00E9450
:100680005707F6CFCF93DF93CDB7DEB727970FB6D7
:10069000F894DEBF0FBECDBF8B837D836C835F83F9
:1006A0004E838C819D819A83898313C08B8182378D
:1006B00031F48981682F82E00E94740F05C089811E
:1006C000682F81E00E94740F89819A8101969A8334
:1006D000898329813A818E819F818217930734F71C
:1006E000000027960FB6F894DEBF0FBECDBFDF9196
:1006F000CF910895CF93DF93CDB7DEB76CE085E35C
:100700000E946B0866E084E00E947B0A6CE08BE448
:100710000E946B0866E084E00E947B0A6EE08BE337
:100720000E946B0866E08EE00E947B0A66E18BE324
:100730000E946B0863E08EE00E947B0A0000DF915C
:10074000CF910895CF93DF9300D000D0CDB7DEB71F
:100750009A8389837C836B839B818981692F0E9423
:100760006B088B819FEE980F8981895F692F0E94AA
:10077000250C8B819FEE980F89818750692F0E94ED
:10078000250C9B818981692F0E94250C8B8199EF13
:10079000980F8981692F0E946B088B8193EF980FC6
:1007A0008981692F0E94250C8B8191EF980F898197
:1007B000692F0E946B0881E00E94650A00000F907B
:1007C0000F900F900F90DF91CF910895089580932F
:1007D0004704609349040E9451050E9478050895DA
:1007E00084E58093300484E2809331048091750322
:1007F0009091760390933204809333048091770331
:1008000090917803909334048093350480916C0325
:1008100090916D03909336048093370488E062E0F2
:100820000E94E703089584E58093300483E2809377
:10083000310482E067E00E94E7039091310480E098
:1008400020913204820F911D90937603809375035B
:100850009091330480E020913404820F911D909395
:100860007803809377039091350480E020913604DB
:10087000820F911D90936D0380936C03089584E51E
:100880008093300482E280933104809173039091CD
:100890007403909332048093330480916E0390919B
:1008A0006F03909334048093350480917903909181
:1008B0007A03909336048093370488E062E00E94C4
:1008C000E703089584E58093300481E28093310446
:1008D00082E067E00E94E7039091310480E020917C
:1008E0003204820F911D909374038093730390914F
:1008F000330480E020913404820F911D90936F03A4
:1009000080936E039091350480E020913604820F2D
:10091000911D90937A0380937903089524E52093A1
:10092000300420E220933104909332048093330406
:1009300084E062E00E94E703089594E59093300418
:1009400093E1909331048093320483E063E00E944A
:10095000E7033091310420E080913204280F311DEB
:10096000C901089584E58093300482E180933104C5
:1009700082E062E00E94E70380913104809370037B
:10098000089584E58093300481E18093310480915F
:1009900072038093320483E062E00E94E7030895CB
:1009A00084E58093300480E1809331048091710369
:1009B0008093320483E062E00E94E703089584E5B7
:1009C0008093300486E08093310482E062E00E94EC
:1009D000E70380913104089584E58093300485E035
:1009E0008093310482E062E00E94E7038091310449
:1009F000089584E58093300484E08093310482E09C
:100A000062E00E94E7038091310408950F931F93E1
:100A1000182F062F84E58093300483E080933104FF
:100A2000109332046093330484E061E10E94E70391
:100A3000E1E3F4E007C0A12FB0E0A558BC4F8191DD
:100A40008C93100F153B20F484E0E134F80799F7FC
:100A50001F910F91089594E59093300492E0909344
:100A60003104809332046093330484E062E00E9496
:100A7000E703089594E59093300491E09093310456
:100A80008093320483E062E00E94E703089584E5E6
:100A9000809330041092310482E062E00E94E70308
:100AA0000895F89480914404882311F481E105C0ED
:100AB0008091740084FF05C082E18093440480E04B
:100AC00015C08091740085FF07C01092740084E007
:100AD0008093740088E1F1CF109244048091470420
:100AE0008093450485EA8093740081E078940895AA
:100AF00080E197E235E00DC02091740020FD06C032
:100B00002091740024FD02C081E00895232F2A95CE
:100B1000F1F701972FEF8F3F920771F7F89410923A
:100B2000740084E08093740080914404803118F450
:100B300083E180934404789480E008958091440494
:100B40000895E4E7F0E0108288E4809370008FEF6E
:100B50008093730084E0808381E08093440408954F
:100B60001F920F920FB60F920BB60F9211242F9374
:100B70003F938F939F93EF93FF9380917100887FB2
:100B800080934604883251F1893288F4803121F112
:100B9000813138F4882309F471C0883009F073C0BA
:100BA0001BC08831D9F0803209F06DC067C0803435
:100BB00009F442C0813438F4803309F45FC08833CB
:100BC00009F061C056C0803559F1883509F442C03A
:100BD000883409F058C052C01092480490914804DB
:100BE00080914504981768F480914804E82FF0E05C
:100BF000E05DFB4F90818F5F80934804909373007A
:100C000027C080914904882369F180914904809329
:100C100045048091300481608093300485EA26C0C9
:100C20008091480490917300E82FF0E0E05DFB4F65
:100C300090838F5F809348048091480420914504FD
:100C400090E0019630E08217930714F485EC0EC013
:100C500085E80CC0E091480480917300F0E0E05D0D
:100C6000FB4F808382E08093440484E98093740086
:100C700010C084E88093740085E109C084E9809302
:100C8000740086E104C084E88093740087E1809357
:100C90004404FF91EF919F918F913F912F910F907D
:100CA0000BBE0F900FBE0F901F901895909165008E
:100CB000382F3170292F2E7F91E09327922B90931C
:100CC0006500909165009D7F311102C020E001C058
:100CD00022E0922B9093650090916500977F81FDB3
:100CE00002C080E001C088E0892B8093650080917C
:100CF00065008F7E809365008FEF8ABB6BBB85E0BC
:100D00008A95F1F70000809165008460809365000A
:100D100085E08A95F1F70000809165008B7F8093D4
:100D2000650085E08A95F1F700001BBA1ABA0895AC
:100D300090916500382F3170292F2E7F91E09327F5
:100D4000922B90936500909165009D7F311102C0B8
:100D500020E001C022E0922B909365009091650005
:100D6000977F81FD02C080E001C088E0892B8093DD
:100D70006500809165008061809365001ABA85E006
:100D80008A95F1F70000809165008460809365008A
:100D900095E19A95F1F7000089B3909165009B7FEA
:100DA0009093650095E09A95F1F7000008950F93F0
:100DB0001F93CF9390914A04911102C080E011C01B
:100DC000C82FC17000E010E08C2F0E9498060F5FC2
:100DD0001F4F87FF05C00F3F8FEF1807A9F7EECF12
:100DE00081E0CF911F910F9108958FEF80934A0476
:100DF00080916400886080936400809164008061C9
:100E0000809364008091640084608093640080918A
:100E100064008160809364008091640082608093AC
:100E20006400B89A1ABA80916500877F8093650044
:100E3000809165008F7E80936500809165008B7F37
:100E400080936500809165008E7F8093650080911E
:100E500065008D7F80936500C098979B09C0979827
:100E60008FE99FE00197F1F700C00000979A06C054
:100E70008FE99FE00197F1F700C00000C09A80E081
:100E80000E94D706882351F081E00E94D70688236C
:100E900011F082E001C081E080934A0480914A040D
:100EA0008F3F11F410924A0480914A0408950097EC
:100EB00041F0EFE9FFE03197F1F700C00000019742
:100EC000F6CF08958FB99091860489278093860480
:100ED0000895109287048093680491E0980F90938E
:100EE0006A0496E99093860490938804F894B099E4
:100EF00003C078940000FACF90EC9DB90E9462077D
:100F0000779A789480E00895B898C098BB9AC39A6D
:100F100080E00C9469071F920F920FB60F92112474
:100F20000BB60F922F933F934F935F936F937F93E3
:100F30008F939F93AF93BF93EF93FF938FB1909154
:100F40008804982790938804E0918704E11116C0E3
:100F5000809366048C3130F010926804109266041D
:100F600081E009C0482F50E020916A0430E0421728
:100F70005307FCF08F5F80936A041BC02E2F30E074
:100F80004091660450E0421753072CF0D901A6594E
:100F9000BB4F8C930EC0215031094217530749F4BF
:100FA000992339F0809167048F5F809367041092D2
:100FB000660480916804E81728F4F0E0E55BFB4FD5
:100FC00080810AC0E81303C08091860405C0809127
:100FD0006A04E81748F48FEF0E9462078091870443
:100FE0008F5F8093870411C0B898C0981DB8B898D7
:100FF000C098809169048F5F809369047894809190
:1010000066040E94970D0E946907FF91EF91BF91BE
:10101000AF919F918F917F916F915F914F913F9190
:101020002F910F900BBE0F900FBE0F901F90189531
:10103000CF93DF93C82FD8EBD60F883000F580E030
:101040000E94D7066D2F80E00E94560680E00E9425
:10105000D7066C2F660F660F660F605C80E00E94FB
:101060005606CDE8D4E082E00E94D706699182E07E
:101070000E94560684E0C539D807A9F720C0C85099
:1010800081E00E94D7066D2F81E00E94560681E024
:101090000E94D706CC0FCC0FCC0F60E46C0F81E020
:1010A0000E945606CDE8D4E083E00E94D7066991FD
:1010B00083E00E94560684E0C539D807A9F7DF917E
:1010C000CF91089580918C0408958091950408959E
:1010D000809389040895CF93DF93D82FC62F8093F0
:1010E0008C046093950480E00E94D70681E00E9402
:1010F000D706C695C695C695C8546C2F80E00E9449
:1011000056066C2F81E00E94560680E00E94D706AA
:1011100081E00E94D70660E4D13428F080E00E948C
:1011200056066D2F05C06D0F80E00E94560660E4E4
:1011300081E0DF91CF910C9456061F93CF93DF93FC
:10114000182FC8EB80E00E94D70681E00E94D706E6
:101150006C2F80E00E9456066C2F81E00E9456069C
:10116000D0E482E00E94D70683E00E94D706612F78
:1011700082E00E945606612F83E00E945606D150FD
:1011800081F7CF5FC03CF1F680E00E94D70681E096
:101190000E94D70668EB80E00E94560668EB81E06B
:1011A000DF91CF911F910C9456060F931F93CF930D
:1011B000DF93D82FC62F80918C0487FD37C011E0B4
:1011C000803408F410E0812F0E94D70602E0010F5E
:1011D000802F0E949806802F0E9498069091890483
:1011E00092FF02C0D0959B7FDC23911102C0C82FD3
:1011F00004C0913021F4C095C823CD2B02C0C82F64
:10120000CD27812F0E94D70660918C046064812FC6
:101210000E945606812F0E94D7066C2F802F0E94B5
:10122000560680918C048F5F80938C04DF91CF9160
:101230001F910F91089590EE980F903608F080E876
:10124000805296E0899FF0011124E85DFE4F908165
:1012500080918B04811101C09FE125E080E090FD29
:101260008F5F96952150D9F708957F928F929F9224
:10127000AF92BF92CF92DF92EF92FF920F931F93A4
:10128000CF93DF93C62F90EE980F903608F080E84A
:10129000805226E0829FC0011124FC01E75DFE4FD1
:1012A0007F01FC01E85DFE4F908080918B048111ED
:1012B00002C09FE1992EAC2E0C2E000CBB086FEFE4
:1012C00070E06B010C2E01C0CC0C0A94EAF78C2C58
:1012D000002711270A191B09002E02C07595679572
:1012E0000A94E2F7D62F85E0782E90FE15C0F7011C
:1012F0008081C7FD07C0682D0A2C01C0880F0A94A1
:10130000EAF708C090E0002E02C0959587950A94F0
:10131000E2F76D2F0E94D5089694FFEFEF1AFF0AAF
:101320007A947110E2CFC7FD02C06C2D07C06FEF39
:1013300070E002C0759567950A95E2F780E0DF914D
:10134000CF911F910F91FF90EF90DF90CF90BF90C2
:10135000AF909F908F907F900C94D5081F93CF9360
:10136000DF93D82F10918C04C0919504C7706C2F17
:101370000E943509CC23A9F060919504685F812F04
:101380000E946B0868EF6C0F8D2F0E9435096091E9
:101390009504685080918C04DF91CF911F910C943B
:1013A0006B08DF91CF911F910895CF93DF93EC01EC
:1013B0008991882319F00E94AE09FACFDF91CF916D
:1013C00008950F931F93CF938C01C0E0F801819192
:1013D0008F01882331F00E941B098C0FC1E0C80FD8
:1013E000F5CF8C2FCF911F910F910895CF93DF935D
:1013F000EC01CE01FE012491222331F02196FC0163
:1014000084910E94AE09F5CFDF91CF9108950F939B
:101410001F93CF938C01C0E0C801F80124912223CF
:1014200051F00F5F1F4FFC0184910E941B098C0F2C
:10143000C1E0C80FF1CF8C2FCF911F910F9108956C
:1014400080E00E94D7066FE380E00E94560680E0AD
:101450000E94D70660EC80E00E94560680E00E9461
:10146000D70660E480E00E94560680E00E94D7061E
:1014700068EB80E00E94560681E00E94D7066FE389
:1014800081E00E94560681E00E94D70660EC81E070
:101490000E94560681E00E94D70660E481E00E9427
:1014A000560681E00E94D70668EB81E00E9456064E
:1014B00080E00E949D0881E08093890408958093D4
:1014C0008B04089580918B040895CF93DF939091BE
:1014D00095049770C1E001C0CC0F9A95EAF7D82F18
:1014E000DD2331F06C2F8C2F0E94D508D150F8CF1E
:1014F000DF91CF910895AF92BF92CF92DF92EF929A
:10150000FF920F931F93CF93DF93B82EC62FE090D7
:101510008C0410919504812F8770DFEF01C0DD0FDF
:101520008A95EAF788E0A82ECC24CA94D12CCC2343
:1015300021F1812F87700A2D081BC01748F4802FD6
:101540008C1B960102C0359527958A95E2F7D22328
:10155000FB2CFF2031F06D2F8D2F0E94D508FA94BF
:10156000F8CF8C2F0C1708F4802FC81B180F612F91
:101570008E2D0E946B08DFEFDACFDF91CF911F91A4
:101580000F91FF90EF90DF90CF90BF90AF900895B4
:10159000682F81E00C947B0A2F923F924F925F92CA
:1015A0006F927F928F929F92AF92BF92CF92DF9273
:1015B000EF92FF920F931F93CF93DF93482ED62F76
:1015C0005A0130908C0480909504882D87709FEF8D
:1015D000992E01C0990C8A95EAF7242D30E0C901B3
:1015E000019797FD079623E0959587952A95E1F752
:1015F000C1E0C80FEC2EF12C670133E0CC0CDD1CF0
:101600003A95E1F7512C48E0242EDD2309F456C029
:10161000882D8770722C781AD71550F4872D8D1B62
:101620002FEF30E002C0359527958A95E2F7922298
:10163000052D070DC09F80011124612C641481F1D8
:10164000862D877059F0E82FF0E0E357FB4F80813B
:10165000692D89210E94D5086394F0CF962D969527
:1016600096959695F801E90FF11DEC19FD09EA0D23
:10167000FB1D28E030E04081ADE8B4E09C919695F8
:1016800040FD90689C934695119665E974E06A1751
:101690007B07A1F7EE0DFF1D2150310961F7D3CF74
:1016A0008D2F7D1608F4872DD81B880E580E682DB7
:1016B000832D0E946B0899249A94A7CFDF91CF9134
:1016C0001F910F91FF90EF90DF90CF90BF90AF9060
:1016D0009F908F907F906F905F904F903F902F9052
:1016E00008952F923F924F925F926F927F928F92C6
:1016F0009F92AF92BF92CF92DF92EF92FF920F93A1
:101700001F93CF93DF93482ED62F4A0130908C043D
:1017100000919504802F87701FEF01C0110F8A95EB
:10172000EAF7242D30E0C901019797FD079623E0E1
:10173000959587952A95E1F7C1E0C80FCC2ED12C5D
:10174000560133E0AA0CBB1C3A95E1F7512C48E056
:10175000242EDD2309F455C0802F8770722C781A4F
:10176000D71550F4872D8D1B2FEF30E002C0359533
:1017700027958A95E2F71223E52CE70CCE9D7001A0
:101780001124612C641481F1862D877059F0E82FA3
:10179000F0E0E357FB4F8081612F81230E94D50841
:1017A0006394F0CF962D969596959695F701E90F4F
:1017B000F11DEA19FB09E80DF91D28E030E044911C
:1017C000ADE8B4E09C91969540FD90689C93469559
:1017D000119665E974E06A177B07A1F7EC0DFD1D12
:1017E0002150310961F7D3CF8D2F7D1608F4872D55
:1017F000D81B080F580E602F832D0E946B081FEF17
:10180000A8CFDF91CF911F910F91FF90EF90DF90C4
:10181000CF90BF90AF909F908F907F906F905F9090
:101820004F903F902F90089590919504977021E0EC
:1018300030E001C0220F9A95EAF7882311F0622F59
:1018400001C060E0822F0C94D508BF92CF92DF9246
:10185000EF92FF920F931F93CF93DF93182F062FD2
:10186000D0918C0480919504D1130FC0861720F479
:10187000962F981B892F06C0C82FC61B812F0E9448
:101880006B088C2F0E94C80A5AC0F82E68130DC02E
:10189000D11718F4812F8D1B05C0D11B812F0E94F9
:1018A0006B088D2F0E94650A4AC01D1728F4DD2E93
:1018B000D11ACC24CA9409C0D11728F4D12EDD1A2C
:1018C000CC24C39402C0C12CD12C081728F4C82FF3
:1018D000C01BBB24BA9409C0801728F4C02FC81BB2
:1018E000BB24B39402C0B12CC0E081E00E94140C70
:1018F000CD1598F4ED2CE694E194EC0EDC0D1E145D
:1019000014F4ED18FB0C6F2D8D2F0E946B0881E0F5
:101910000E94140C1D13F1CF12C0EC2EE694E1943A
:10192000ED0CFB0C1E1414F4EC1ADC0D6F2D8D2F36
:101930000E946B0881E00E94140C0F11F1CF602F00
:10194000812FDF91CF911F910F91FF90EF90DF904A
:10195000CF90BF900C946B0880E00E949D0810927D
:101960008A04109296040895863130F4683020F489
:1019700060938A04809396040895CF92DF92EF9249
:10198000FF920F931F93CF93DF93C9EB25E9C22EEC
:1019900024E0D22E10E0D0E007E40C0FD83050F550
:1019A00080E00E94D7066C2F80E00E94560680E0FF
:1019B0000E94D70660E4610F80E00E94560682E034
:1019C0000E9498069DE8E92E94E0F92E82E00E949C
:1019D0009806F70181937F01F5E9EF16F4E0FF0621
:1019E000A9F7602F8D2F0E941808DF5F185FD03194
:1019F000A9F61FC081E00E94D7066C2F81E00E94EB
:101A0000560681E00E94D706612F81E00E945606AB
:101A100083E00E9498068DE8E82E84E0F82E83E0AB
:101A20000E949806F70181937F01CE16DF06B9F771
:101A3000D8CFCF5FC03C09F0ADCFEDE8F4E085E949
:101A400094E011928E179F07E1F7C0E067E08C2FBA
:101A50000E941808CF5FC031C9F780918A0488239B
:101A600019F0815080938A04DF91CF911F910F91DB
:101A7000FF90EF90DF90CF9008950F931F93CF9337
:101A800010928B048C01F801C1918F01CC23B9F124
:101A9000CA3069F41092960480918A048F5F809313
:101AA0008A04883081F781E00E94BD0CECCFCD30F4
:101AB00051F380919604853160F0109296048091E4
:101AC0008A048F5F80938A04883019F481E00E9431
:101AD000BD0C60918A04660F660F660F80919604B4
:101AE000982F990F890F880F0E946B088C2F0E94E6
:101AF000AE09809196048F5F80939604C4CFCF91F6
:101B00001F910F910895789420E137E297E0899F23
:101B1000F0011124E356FB4F2150310919F0808167
:101B20008F3FD1F781E0232B09F480E00895909155
:101B3000F1049F5F9093F1048B3141F4EBE6F4E004
:101B4000A4EDB4E001900D928A95E1F78FEF8093B8
:101B500059048093520480934B0490919D049F3FBD
:101B600069F097E0EDE9F4E0ABE4B4E001900D92A8
:101B70009A95E1F780939D0487E001C080E0909101
:101B8000A4049F3F79F0A82FB0E0A55BBB4F97E07E
:101B9000E4EAF4E001900D929A95E1F79FEF9093BB
:101BA000A404895F9091AB049F3F79F0A82FB0E027
:101BB000A55BBB4F87E0EBEAF4E001900D928A95BC
:101BC000E1F78FEF8093AB0404C0811102C087E07E
:101BD000089585E1089527E0829FC0011124FC014A
:101BE000E356FB4F81E090819F3F09F480E0089528
:101BF000F894A6EBB4E0E4EDF4E0818190E0982F56
:101C000088272081820F911D11969C938E9383814A
:101C100090E0982F88272281820F911D13969C9324
:101C20008E931297858190E0982F88272481820FC8
:101C3000911D15969C938E931497878190E0982F11
:101C400088272681820F911D17969C938E93169755
:101C5000818590E0982F88272085820F911D199605
:101C60009C938E9318977894F89422858091990488
:101C700090919A04AC01420F511D9385892F90E0F9
:101C8000982F8827840F951F9093B3048093B204F4
:101C900024858091970490919804AC01420F511DC6
:101CA0009585892F90E0982F8827840F951F909312
:101CB000CB048093CA04878590E0982F88272685D7
:101CC000820F911D9093F3048093F204818990E038
:101CD000982F88272089820F911D9093C9048093A3
:101CE000C804838990E0982F88272289820F911D4C
:101CF00090939C0480939B04858990E0982F88277B
:101D00002489820F911D9093D3048093D2047894F8
:101D1000F894808D90E0982F88272789820F911D55
:101D20009093B5048093B404828D90E0982F882717
:101D3000218D820F911D9093F0048093EF0478948D
:101D400081E00895F89481E080939D04789408954B
:101D5000F8948AE080939D04789481E00895F89443
:101D6000EDE9F4E025E0208381839283638374832B
:101D7000789481E00895F894EDE9F4E022E020837E
:101D80008183928363837483789481E008952091A2
:101D9000990430919A04821B930B209197043091FF
:101DA0009804621B730BF894EDE9F4E023E02083C0
:101DB000818392836383748345835683789481E01F
:101DC0000895F894EDE9F4E024E020838183928380
:101DD0006383748345835683789481E008951F93C9
:101DE000CF93DF93182FD62FC42F82E00E94830D4C
:101DF000F894EDE9F4E086E086871787D08BC18BF5
:101E0000789481E0DF91CF911F91089581E008954A
:101E1000F894E4EDF4E0258530E0322F2227448564
:101E2000240F311D438550E0542F4427E2854E0F87
:101E3000511DFC01E41BF50BF0939A04E093990407
:101E4000AB01421B530B509398044093970490931B
:101E5000B3048093B2047093CB046093CA04789463
:101E600081E0089581E00E94830DF89488E08093DA
:101E7000A404789481E0089581E00E94830DF89491
:101E800087E08093A404789481E00895CF93DF9352
:101E9000D82FC92F81E00E94830DF894EDE9F4E07A
:101EA00089E08783D087C187789481E0DF91CF91E3
:101EB00008958F9A97988AE090E00E945707979A22
:101EC00084E690E00C94570787E00E94801090937E
:101ED000F5048093F4040895BF9AC79ABD9ABE9AF8
:101EE0008FEF82B984BB089595B321E030E0062ED0
:101EF00001C0220F0A94EAF780FF02C0292B02C01A
:101F00002095292325BB23B181FF08C081E090E003
:101F100001C0880F6A95EAF7822B08C081E090E043
:101F200001C0880F6A95EAF78095822383B90895E6
:101F30009093FD048093FC0408958091FC0490919B
:101F4000FD0408959093F7048093F604089580911A
:101F5000F6049091F70408959093F9048093F8049F
:101F600008958091F8049091F90408951092FF0467
:101F70001092FE041092FB041092FA0410920005D5
:101F80001092010510920205109203051092F704B9
:101F90001092F6041092F9041092F8048FEF93E077
:101FA0009093FD048093FC04C598C698BD9ABE9A90
:101FB000BF9AC79A1DBC1CBC8AEA8FBD82E18EBD48
:101FC00080E094E097BD86BD87B7846087BF0895A1
:101FD0001F920F920FB60F9211242F933F934F939E
:101FE0008F939F93AF93BF938091FE049091FF04D2
:101FF0009C01285E3F4F283E43E0340728F430938D
:10200000FF042093FE040FC0805D93409093FF0473
:102010008093FE048091FA049091FB0401969093C2
:10202000FB048093FA048091FA049091FB049C01D4
:102030002F5F3F4F283E43E0340728F43093FB04E2
:102040002093FA0419C0875E93409093FB04809319
:10205000FA048091000590910105A0910205B091CC
:1020600003050196A11DB11D809300059093010504
:10207000A0930205B09303058091F6049091F704B4
:102080008F3F23E0920710F080E094E09BBD8ABD73
:102090008091F8049091F9048F3F43E0940710F089
:1020A00080E094E099BD88BD8091FC049091FD048E
:1020B0008F3F23E0920710F080E094E09093790046
:1020C00080937800BF91AF919F918F914F913F91F5
:1020D0002F910F900FBE0F901F901895E1E6F0E042
:1020E000908121E030E001C0220F8A95EAF7209527
:1020F00092239083E2E6F0E08081282320830895F4
:1021000090E497B997B18770982B97B987EC86B907
:10211000369B02C00000FCCF24B185B190E0982F1F
:102120008827820F911D2091040530910505280F05
:10213000391F309305052093040508958091040507
:102140009091050508950F931F93CF93DF93CDB71B
:10215000DEB72E970FB6F894DEBF0FBECDBF0D8948
:102160001E8986E08C831A8309838FEF9FE79E8305
:102170008D83AE01475E5F4F6F89788DCE010196EA
:102180000E94D210EF81F885E00FF11F10822E9689
:102190000FB6F894DEBF0FBECDBFDF91CF911F9178
:1021A0000F9108952F923F924F925F926F927F927C
:1021B0008F929F92AF92BF92CF92DF92EF92FF9257
:1021C0000F931F93CF93DF93CDB7DEB72B970FB647
:1021D000F894DEBF0FBECDBF6C017B018A01FC010C
:1021E00017821682838181FFCCC1CE0101963C010A
:1021F000F6019381F70193FD859193FF81917F0112
:10220000882309F4BAC1853239F493FD859193FF8F
:1022100081917F01853229F4B60190E00E94F2128B
:10222000E7CF912C212C312CFFE1F315D8F08B3224
:1022300079F038F4803279F08332A1F4232D2061D3
:102240001DC08D3261F0803369F4232D216016C0EA
:10225000832D8260382EE32DE4603E2E2AC0F32DBC
:10226000F8601DC037FC2DC020ED280F2A3040F04B
:102270008E32B9F436FC81C1232D2064322E19C070
:1022800036FE06C08AE0989E200D1124922E11C0C1
:10229000EAE02E9E200D1124222EF32DF0623F2E17
:1022A00008C08C3621F4832D8068382E02C0883611
:1022B00041F4F70193FD859193FF81917F01811195
:1022C000B3CF982F9F7D9554933028F40C5F1F4F08
:1022D0009FE399830DC0833631F0833771F08335E6
:1022E00009F059C021C0F801808189830E5F1F4F1A
:1022F00088248394912C530113C02801F2E04F0EDF
:10230000511CF801A080B18036FE03C0692D70E039
:1023100002C06FEF7FEFC5010E94E7124C018201FE
:10232000F32DFF773F2E16C0280122E0420E511CEC
:10233000F801A080B18036FE03C0692D70E002C0B4
:102340006FEF7FEFC5010E94DC124C01F32DF068A6
:102350003F2E820133FC1BC0822D90E08816990627
:10236000B0F4B60180E290E00E94F2122A94F4CF19
:10237000F50137FC859137FE81915F01B60190E050
:102380000E94F21221102A9421E0821A91088114ED
:10239000910471F7E8C0843611F0893641F5F801EF
:1023A00037FE07C060817181828193810C5F1F4F6E
:1023B00008C060817181072E000C880B990B0E5F9D
:1023C0001F4FF32DFF763F2E97FF09C09095809504
:1023D000709561957F4F8F4F9F4FF0683F2E2AE099
:1023E00030E0A3010E942E13882E861845C0853741
:1023F00031F4232D2F7EB22E2AE030E025C0932D1C
:10240000997FB92E8F36C1F018F4883579F0B5C0B0
:10241000803719F0883721F0B0C0E92FE061BE2E77
:10242000B4FE0DC0FB2DF460BF2E09C034FE0AC0FF
:10243000292F2660B22E06C028E030E005C020E13A
:1024400030E002C020E132E0F801B7FE07C0608151
:102450007181828193810C5F1F4F06C06081718101
:1024600080E090E00E5F1F4FA3010E942E13882E84
:102470008618FB2DFF773F2E36FE0DC0232D2E7FB5
:10248000A22E891458F434FE0BC032FC09C0832DEF
:102490008E7EA82E05C0B82CA32C03C0B82C01C07A
:1024A000B92CA4FE0FC0FE01E80DF11D8081803320
:1024B00021F49A2D997EA92E09C0A2FE06C0B394DC
:1024C000B39404C08A2D867809F0B394A3FC11C09C
:1024D000A0FE06C0B21488F4280C922C9B180EC0E3
:1024E000B21460F4B60180E290E00E94F212B3945C
:1024F000F7CFB21418F42B1802C0982C212CA4FE8C
:1025000010C0B60180E390E00E94F212A2FE17C054
:10251000A1FC03C088E790E002C088E590E0B60126
:102520000CC08A2D867859F0A1FE02C08BE201C052
:1025300080E2A7FC8DE2B60190E00E94F2128914BD
:1025400038F4B60180E390E00E94F2129A94F7CF3B
:102550008A94F301E80DF11D8081B60190E00E949C
:10256000F2128110F5CF222009F442CEB60180E2AA
:1025700090E00E94F2122A94F6CFF60186819781AC
:1025800002C08FEF9FEF2B960FB6F894DEBF0FBE01
:10259000CDBFDF91CF911F910F91FF90EF90DF9012
:1025A000CF90BF90AF909F908F907F906F905F90F3
:1025B0004F903F902F900895FC010590615070401E
:1025C0000110D8F7809590958E0F9F1F0895FC01FC
:1025D0006150704001900110D8F7809590958E0F52
:1025E0009F1F08950F931F93CF93DF93FB012381C8
:1025F00021FD03C08FEF9FEF2CC022FF16C0468144
:102600005781248135814217530744F4A081B18159
:102610009D012F5F3F4F318320838C93268137812B
:102620002F5F3F4F3783268314C08B01EC01FB01E2
:102630000084F185E02D0995892BE1F6D8011696E5
:102640008D919C911797019617969C938E93169750
:10265000CE01DF91CF911F910F910895FA01AA2722
:10266000283051F1203181F1E8946F936E7F6E5FD5
:102670007F4F8F4F9F4FAF4FB1E03ED0B4E03CD083
:10268000670F781F891F9A1FA11D680F791F8A1F66
:10269000911DA11D6A0F711D811D911DA11D20D0CD
:1026A00009F468943F912AE0269F11243019305D87
:1026B0003193DEF6CF010895462F4770405D419378
:1026C000B3E00FD0C9F7F6CF462F4F70405D4A33C5
:1026D00018F0495D31FD4052419302D0A9F7EACF8D
:1026E000B4E0A6959795879577956795BA95C9F7BC
:1026F00000976105710508959B01AC010A2E0694AF
:102700005795479537952795BA95C9F7620F731F67
:0C271000841F951FA01D0895F894FFCFB2
:10271C00466C61672073746F703A202533690054DE
:10272C00696D653A2025336900466C6167207475C4
:10273C00726E3A202533690003000000000004008B
:10274C00005F00000E00070007001F147F147F14A9
:10275C001F242A7F2A121F23130864621F3649552F
:10276C0022500600050300000E001C2241000E0042
:10277C0041221C001F14083E08141F08083E0808BC
:10278C000600A06000000F0808080808060060603A
:10279C0000000E00601C03001F3E5149453E0E0018
:1027AC00427F40001F42615149461D2141454B313A
:1027BC001F1814127F101D2745454539173C4A49EF
:1027CC0049301E01710905031D36494949361D065C
:1027DC004949291E0600363600000600AC6C000084
:1027EC000F08142241000F14141414141E0041225B
:1027FC0014081F02015109061F324979413E1F7C02
:10280C001211127C177F49494936173E414141222A
:10281C001F7F4141221C177F49494941177F0909F4
:10282C000901173E4149497A177F0808087F0E00B5
:10283C00417F41001F2040413F011F7F081422416E
:10284C00177F404040401F7F020C027F1F7F04080F
:10285C00107F173E4141413E177F09090906173E7B
:10286C00414141BE1D7F0919294617464949493145
:10287C001F01017F0101173F4040403F1F1F2040B7
:10288C00201F1F3F4038403F1F63140814631F076D
:10289C00087008071F61514945430E007F414100F4
:1028AC000E00031C60000E0041417F000E0402016B
:1028BC0002041F40404040400C000003040017205D
:1028CC0054545478177F48444438173844444420AF
:1028DC001D384444487F17385454541817087E093F
:1028EC0001021718A4A4A478177F080404780E001A
:1028FC00447D40000D4080847D000F7F10284400F3
:10290C000E00417F40001F7C04780478177C08047B
:10291C00047817384444443817FC24242418171816
:10292C00242424FC177C080404081748545454200D
:10293C0017043F4440201D3C4040207C1F1C20407D
:10294C00201C1F3C4030403C1F4428102844171CBE
:10295C00A0A0A07C1F4464544C440E0008364100D7
:10296C000400007F00000E00413608001F02010227
:08297C0004021FAA55AA55AA86
:00000001FF
