:100000000C9449000C9468000C9468000C946800EF
:100010000C9468000C9468000C9468000C946800C0
:100020000C9468000C9468000C9468000C946800B0
:100030000C9468000C9468000C94AB0E0C9468004F
:100040000C9468000C944E060C9468000C946800A4
:100050000C9468000C9468000C9468000C94680080
:100060000C9468000C9468000C9468000C94680070
:100070000C9468000C9468000C9468000C94680060
:100080000C9468000C9408030C946800322E3131F3
:10009000000011241FBECFEFD0E1DEBFCDBF13E0C3
:1000A000A0E0B1E0E2EAF4E200E00BBF02C007909A
:1000B0000D92A835B107D9F724E0A8E5B3E001C057
:1000C0001D92A43FB207E1F70E9454020C944F1214
:1000D0000C940000CF93DF93CDB7DEB765970FB6D2
:1000E000F894DEBF0FBECDBF1B821A8222E1CE0183
:1000F0000496FC01322F11923A95E9F70E94BB0C4D
:100100000E94FF0D0E94B40489830E94DA01898154
:10011000882F90E0292F2F938F9380E091E0892FF3
:100120008F9380E091E08F93CE010296292F2F9339
:100130008F930E94660F0F900F900F900F900F906B
:100140000F9080E00E94600764E180E00E942E072B
:10015000CE0102960E94980884E690E00E941A065A
:100160008091A4049091A50481159343B0F18091EE
:10017000AC049091AD048115934378F189818E3060
:1001800060F180915803909159030196909359031F
:10019000809358038091580390915903292F2F93EE
:1001A0008F938DE091E0892F8F938DE091E08F9375
:1001B000CE010296292F2F938F930E94660F0F90E6
:1001C0000F900F900F900F900F9060E080E00E94D2
:1001D0002E07CE0102960E9498088091A404909167
:1001E000A5048115934308F447C08091AC04909115
:1001F000AD048115934308F43FC089818E30E0F54A
:1002000080915803909159030197909359038093DB
:1002100058032CC041E050E060E070E082E70E94AB
:1002200071020E9440028091580390915903292F36
:100230002F938F938DE091E0892F8F938DE091E044
:100240008F93CE010296292F2F938F930E94660FD2
:100250000F900F900F900F900F900F9060E080E044
:100260000E942E07CE0102960E94980880915803A2
:1002700090915903892B71F68091A4049091A50463
:1002800081159E42C0F08091A6049091A70481152B
:10029000934388F08091A8049091A90481159E420F
:1002A00050F047E050E065E070E082E70E947102A4
:1002B0000E94E80107C047E050E065E070E087E693
:1002C0000E9471028091A6049091A7048115934326
:1002D00050F046E050E066E070E082E70E94710274
:1002E0000E94FE0107C046E050E066E070E087E64D
:1002F0000E9471028091AC049091AD0481159E42E0
:10030000C0F08091AA049091AB048115934388F0CA
:100310008091A8049091A90481159E4250F044E078
:1003200050E062E070E082E70E9471020E941402D5
:1003300007C044E050E062E070E087E60E9471028E
:100340008091AA049091AB048115934350F043E04F
:1003500050E063E070E082E70E9471020E942A028E
:1003600007C043E050E063E070E087E60E9471025E
:100370008091A8049091A9048115934350F045E021
:1003800050E064E070E082E70E9471020E94E801A0
:1003900007C045E050E064E070E087E60E9471022B
:1003A000000065960FB6F894DEBF0FBECDBFDF919B
:1003B000CF910895CF93DF93CDB7DEB76AE070E0B9
:1003C0008AE090E00E947E0D0000DF91CF910895B9
:1003D000CF93DF93CDB7DEB74FE050E06BE170E035
:1003E00085EE9FEF0E94A40D60E070E080E090E059
:1003F0000E94CB0D0000DF91CF910895CF93DF9342
:10040000CDB7DEB74AE050E06DE070E083EF9FEFDC
:100410000E94A40D60E070E080E090E00E94CB0DAF
:100420000000DF91CF910895CF93DF93CDB7DEB772
:100430004FE050E065EE7FEF8BE190E00E94A40D6D
:1004400060E070E080E090E00E94CB0D0000DF9162
:10045000CF910895CF93DF93CDB7DEB74FE050E053
:1004600063EF7FEF8DE090E00E94A40D60E070E00C
:1004700080E090E00E94CB0D0000DF91CF910895C5
:10048000CF93DF93CDB7DEB763EF7FEF83EF9FEFBF
:100490000E947E0D60E070E080E090E00E94CB0D55
:1004A0000000DF91CF910895CF93DF93CDB7DEB7F2
:1004B00078940E941C0E0E9447060E942F0E0E94F4
:1004C000B8050E94E3080E94FF0D0E94F90284EB28
:1004D0000E9402050E946A0084EF91E00E941A06C1
:1004E000F9CFCF93DF93CDB7DEB727970FB6F89448
:1004F000DEBF0FBECDBF8B837D836C835F834E8356
:100500008C819D819A83898313C08B81823731F4DA
:100510008981682F82E00E94370E05C08981682F8B
:1005200081E00E94370E89819A8101969A8389839E
:1005300029813A818E819F818217930734F70000C9
:1005400027960FB6F894DEBF0FBECDBFDF91CF91D7
:100550000895F89480917D03882311F481E105C00A
:100560008091740084FF05C082E180937D0380E068
:1005700015C08091740085FF07C01092740084E05C
:100580008093740088E1F1CF10927D038091800305
:1005900080937E0385EA8093740081E078940895C7
:1005A00080E197E235E00DC02091740020FD06C087
:1005B0002091740024FD02C081E00895232F2A9524
:1005C000F1F701972FEF8F3F920771F7F894109290
:1005D000740084E08093740080917D03803118F46E
:1005E00083E180937D03789480E0089580917D037A
:1005F0000895E4E7F0E0108288E4809370008FEFC4
:100600008093730084E0808381E080937D0308956C
:100610001F920F920FB60F920BB60F9211242F93C9
:100620003F938F939F93EF93FF9380917100887F07
:1006300080937F03883251F1893288F4803121F12F
:10064000813138F4882309F471C0883009F073C00F
:100650001BC08831D9F0803209F06DC067C080348A
:1006600009F442C0813438F4803309F45FC0883320
:1006700009F061C056C0803559F1883509F442C08F
:10068000883409F058C052C01092810390918103C0
:1006900080917E03981768F480918103E82FF0E041
:1006A000E759FC4F90818F5F809381039093730093
:1006B00027C080918203882369F18091820380930F
:1006C0007E038091690381608093690385EA26C077
:1006D0008091810390917300E82FF0E0E759FC4F7F
:1006E00090838F5F809381038091810320917E03AB
:1006F00090E0019630E08217930714F485EC0EC069
:1007000085E80CC0E091810380917300F0E0E75927
:10071000FC4F808382E080937D0384E980937400A2
:1007200010C084E88093740085E109C084E9809357
:10073000740086E104C084E88093740087E18093AC
:100740007D03FF91EF919F918F913F912F910F909A
:100750000BBE0F900FBE0F901F90189508958093B9
:100760008003609382030E94A9020E94D002089530
:1007700084E58093690384E280936A038091630334
:100780009091640390936B0380936C038091650355
:100790009091660390936D0380936E0380915A034A
:1007A00090915B0390936F038093700388E062E005
:1007B0000E94AF03089584E58093690383E28093E8
:1007C0006A0382E067E00E94AF0390916A0380E0D1
:1007D00020916B03820F911D9093640380936303B8
:1007E00090916C0380E020916D03820F911D909396
:1007F00066038093650390916E0380E020916F0300
:10080000820F911D90935B0380935A03089584E5B2
:100810008093690382E280936A03809161039091DF
:10082000620390936B0380936C0380915C039091BF
:100830005D0390936D0380936E03809167039091A5
:10084000680390936F038093700388E062E00E94D6
:10085000AF03089584E58093690381E280936A037E
:1008600082E067E00E94AF0390916A0380E02091EC
:100870006B03820F911D90936203809361039091AB
:100880006C0380E020916D03820F911D90935D03B6
:1008900080935C0390916E0380E020916F03820F40
:1008A000911D9093680380936703089524E5209336
:1008B000690320E220936A0390936B0380936C0397
:1008C00084E062E00E94AF03089594E59093690389
:1008D00093E190936A0380936B0383E063E00E944B
:1008E000AF0330916A0320E080916B03280F311D24
:1008F000C901089584E58093690382E180936A03C6
:1009000082E062E00E94AF0380916A0380935E03FD
:10091000089584E58093690381E180936A0380915F
:10092000600380936B0383E062E00E94AF0308954D
:1009300084E58093690380E180936A0380915F037B
:1009400080936B0383E062E00E94AF03089584E527
:100950008093690386E080936A0382E062E00E94EC
:10096000AF0380916A03089584E58093690385E06D
:1009700080936A0382E062E00E94AF0380916A0381
:10098000089584E58093690384E080936A0382E09C
:1009900062E00E94AF0380916A0308950F931F9352
:1009A000182F062F84E58093690383E080936A0300
:1009B00010936B0360936C0384E061E10E94AF03CA
:1009C000EAE6F3E007C0A12FB0E0AD57BC4F81913C
:1009D0008C93100F153B20F483E0EA37F80799F762
:1009E0001F910F91089594E59093690392E090937D
:1009F0006A0380936B0360936C0384E062E00E945F
:100A0000AF03089594E59093690391E090936A038E
:100A100080936B0383E062E00E94AF03089584E556
:100A20008093690310926A0382E062E00E94AF0340
:100A3000089590916500382F3170292F2E7F91E015
:100A40009327922B90936500909165009D7F3111C3
:100A500002C020E001C022E0922B909365009091AB
:100A60006500977F81FD02C080E001C088E0892B8E
:100A700080936500809165008F7E809365008FEF85
:100A80008ABB6BBB85E08A95F1F700008091650019
:100A900084608093650085E08A95F1F7000080917D
:100AA00065008B7F8093650085E08A95F1F70000F3
:100AB0001BBA1ABA089590916500382F3170292F0A
:100AC0002E7F91E09327922B909365009091650083
:100AD0009D7F311102C020E001C022E0922B909353
:100AE000650090916500977F81FD02C080E001C0A4
:100AF00088E0892B809365008091650080618093F8
:100B000065001ABA85E08A95F1F7000080916500CA
:100B100084608093650095E19A95F1F7000089B3B0
:100B2000909165009B7F9093650095E09A95F1F711
:100B3000000008950F931F93CF9390913804911163
:100B400002C080E011C0C82FC17000E010E08C2FFF
:100B50000E945B050F5F1F4F87FF05C00F3F8FEFA0
:100B60001807A9F7EECF81E0CF911F910F9108955B
:100B70008FEF8093380480916400886080936400D4
:100B8000809164008061809364008091640084603F
:100B90008093640080916400816080936400809100
:100BA0006400826080936400B89A1ABA80916500EC
:100BB000877F80936500809165008F7E80936500BC
:100BC000809165008B7F80936500809165008E7FAA
:100BD00080936500809165008D7F80936500C0984B
:100BE000979B09C097988FE99FE00197F1F700C0A4
:100BF0000000979A06C08FE99FE00197F1F700C0C7
:100C00000000C09A80E00E949A05882351F081E09C
:100C10000E949A05882311F082E001C081E0809350
:100C20003804809138048F3F11F410923804809179
:100C300038040895009741F0EFE9FFE03197F1F7AC
:100C400000C000000197F6CF08958FB99091740409
:100C50008927809374040895109275048093560434
:100C600091E0980F9093580496E9909374049093B0
:100C70007604F894B09903C078940000FACF90EC11
:100C80009DB90E942506779A789480E00895B898D7
:100C9000C098BB9AC39A80E00C942C061F920F92C6
:100CA0000FB60F9211240BB60F922F933F934F93D1
:100CB0005F936F937F938F939F93AF93BF93EF93C4
:100CC000FF938FB190917604982790937604E091EA
:100CD0007504E11116C0809354048C3130F01092E9
:100CE00056041092540481E009C0482F50E020912E
:100CF000580430E042175307FCF08F5F809358048C
:100D00001BC02E2F30E04091540450E0421753078F
:100D10002CF0D901A85ABB4F8C930EC02150310939
:100D20004217530749F4992339F0809155048F5F96
:100D3000809355041092540480915604E81728F4C7
:100D4000F0E0E75CFB4F80810AC0E81303C08091AC
:100D5000740405C080915804E81748F48FEF0E948E
:100D60002506809175048F5F8093750411C0B89833
:100D7000C0981DB8B898C098809157048F5F809331
:100D800057047894809154040E945A0C0E942C06B7
:100D9000FF91EF91BF91AF919F918F917F916F9153
:100DA0005F914F913F912F910F900BBE0F900FBE0F
:100DB0000F901F901895CF93DF93C82FD8EBD60FC5
:100DC000883000F580E00E949A056D2F80E00E9437
:100DD000190580E00E949A056C2F660F660F660F5A
:100DE000605C80E00E941905CBE7D4E082E00E94BD
:100DF0009A05699182E00E94190584E0C338D807FA
:100E0000A9F720C0C85081E00E949A056D2F81E0AB
:100E10000E94190581E00E949A05CC0FCC0FCC0FDF
:100E200060E46C0F81E00E941905CBE7D4E083E019
:100E30000E949A05699183E00E94190584E0C338F5
:100E4000D807A9F7DF91CF91089580917A0408958A
:100E5000809183040895809377040895CF93DF935E
:100E6000D82FC62F80937A046093830480E00E9479
:100E70009A0581E00E949A05C695C695C695C85404
:100E80006C2F80E00E9419056C2F81E00E941905EB
:100E900080E00E949A0581E00E949A0560E4D134C6
:100EA00028F080E00E9419056D2F05C06D0F80E0CD
:100EB0000E94190560E481E0DF91CF910C9419053F
:100EC0001F93CF93DF93182FC8EB80E00E949A0501
:100ED00081E00E949A056C2F80E00E9419056C2F1A
:100EE00081E00E941905D0E482E00E949A0583E027
:100EF0000E949A05612F82E00E941905612F83E00C
:100F00000E941905D15081F7CF5FC03CF1F680E017
:100F10000E949A0581E00E949A0568EB80E00E9499
:100F2000190568EB81E0DF91CF911F910C941905B1
:100F30000F931F93CF93DF93D82FC62F80917A04FE
:100F400087FD37C011E0803408F410E0812F0E9443
:100F50009A0502E0010F802F0E945B05802F0E94FE
:100F60005B059091770492FF02C0D0959B7FDC23B4
:100F7000911102C0C82F04C0913021F4C095C8233C
:100F8000CD2B02C0C82FCD27812F0E949A056091DA
:100F90007A046064812F0E941905812F0E949A05AE
:100FA0006C2F802F0E94190580917A048F5F8093A7
:100FB0007A04DF91CF911F910F91089590EE980FD1
:100FC000903608F080E8805296E0899FF001112465
:100FD000E95EFE4F908180917904811101C09FE10B
:100FE00025E080E090FD8F5F96952150D9F7089518
:100FF0007F928F929F92AF92BF92CF92DF92EF92A9
:10100000FF920F931F93CF93DF93C62F90EE980F0D
:10101000903608F080E8805226E0829FC0011124BB
:10102000FC01E85EFE4F7F01FC01E95EFE4F90800F
:1010300080917904811102C09FE1992EAC2E0C2E73
:10104000000CBB086FEF70E06B010C2E01C0CC0CE4
:101050000A94EAF78C2C002711270A191B09002E85
:1010600002C0759567950A94E2F7D62F85E0782E31
:1010700090FE15C0F7018081C7FD07C0682D0A2CBE
:1010800001C0880F0A94EAF708C090E0002E02C061
:10109000959587950A94E2F76D2F0E94980796948C
:1010A000FFEFEF1AFF0A7A947110E2CFC7FD02C07A
:1010B0006C2D07C06FEF70E002C0759567950A95BB
:1010C000E2F780E0DF91CF911F910F91FF90EF90B9
:1010D000DF90CF90BF90AF909F908F907F900C94B7
:1010E00098071F93CF93DF93D82F10917A04C09164
:1010F0008304C7706C2F0E94F807CC23A9F060917D
:101100008304685F812F0E942E0768EF6C0F8D2F7C
:101110000E94F80760918304685080917A04DF91FF
:10112000CF911F910C942E07DF91CF911F910895BD
:10113000CF93DF93EC018991882319F00E94710805
:10114000FACFDF91CF9108950F931F93CF938C0126
:10115000C0E0F80181918F01882331F00E94DE0701
:101160008C0FC1E0C80FF5CF8C2FCF911F910F913D
:101170000895CF93DF93EC01CE01FE012491222349
:1011800031F02196FC0184910E947108F5CFDF9126
:10119000CF9108950F931F93CF938C01C0E0C801A6
:1011A000F8012491222351F00F5F1F4FFC0184911D
:1011B0000E94DE078C0FC1E0C80FF1CF8C2FCF91BA
:1011C0001F910F91089580E00E949A056FE380E0DF
:1011D0000E94190580E00E949A0560EC80E00E9460
:1011E000190580E00E949A0560E480E00E941905DC
:1011F00080E00E949A0568EB80E00E94190581E07A
:101200000E949A056FE381E00E94190581E00E9427
:101210009A0560EC81E00E94190581E00E949A0520
:1012200060E481E00E94190581E00E949A0568EB64
:1012300081E00E94190580E00E94600781E08093B0
:10124000770408958093790408958091790408952E
:10125000CF93DF93909183049770C1E001C0CC0FCE
:101260009A95EAF7D82FDD2331F06C2F8C2F0E944E
:101270009807D150F8CFDF91CF910895AF92BF92E8
:10128000CF92DF92EF92FF920F931F93CF93DF9352
:10129000B82EC62FE0907A0410918304812F8770B6
:1012A000DFEF01C0DD0F8A95EAF788E0A82ECC2495
:1012B000CA94D12CCC2321F1812F87700A2D081BD1
:1012C000C01748F4802F8C1B960102C035952795D6
:1012D0008A95E2F7D223FB2CFF2031F06D2F8D2F62
:1012E0000E949807FA94F8CF8C2F0C1708F4802FDF
:1012F000C81B180F612F8E2D0E942E07DFEFDACF4B
:10130000DF91CF911F910F91FF90EF90DF90CF90E1
:10131000BF90AF900895682F81E00C943E092F9202
:101320003F924F925F926F927F928F929F92AF9275
:10133000BF92CF92DF92EF92FF920F931F93CF93C2
:10134000DF93482ED62F5A0130907A048090830480
:10135000882D87709FEF992E01C0990C8A95EAF726
:10136000242D30E0C901019797FD079623E095955C
:1013700087952A95E1F7C1E0C80FEC2EF12C6701A3
:1013800033E0CC0CDD1C3A95E1F7512C48E0242EDB
:10139000DD2309F456C0882D8770722C781AD71572
:1013A00050F4872D8D1B2FEF30E002C03595279527
:1013B0008A95E2F79222052D070DC09F8001112426
:1013C000612C641481F1862D877059F0E82FF0E0CC
:1013D000E558FB4F8081692D89210E94980763940D
:1013E000F0CF962D969596959695F801E90FF11DFB
:1013F000EC19FD09EA0DFB1D28E030E04081ABE768
:10140000B4E09C91969540FD90689C93469511960A
:1014100063E874E06A177B07A1F7EE0DFF1D21500A
:10142000310961F7D3CF8D2F7D1608F4872DD81B96
:10143000880E580E682D832D0E942E0799249A94A9
:10144000A7CFDF91CF911F910F91FF90EF90DF9089
:10145000CF90BF90AF909F908F907F906F905F9054
:101460004F903F902F9008952F923F924F925F920E
:101470006F927F928F929F92AF92BF92CF92DF92A4
:10148000EF92FF920F931F93CF93DF93482ED62FA7
:101490004A0130907A0400918304802F87701FEFF7
:1014A00001C0110F8A95EAF7242D30E0C901019798
:1014B00097FD079623E0959587952A95E1F7C1E07A
:1014C000C80FCC2ED12C560133E0AA0CBB1C3A9588
:1014D000E1F7512C48E0242EDD2309F455C0802F7C
:1014E0008770722C781AD71550F4872D8D1B2FEF2B
:1014F00030E002C0359527958A95E2F71223E52C56
:10150000E70CCE9D70011124612C641481F1862DAD
:10151000877059F0E82FF0E0E558FB4F8081612F8C
:1015200081230E9498076394F0CF962D9695969507
:101530009695F701E90FF11DEA19FB09E80DF91D70
:1015400028E030E04491ABE7B4E09C91969540FDF3
:1015500090689C934695119663E874E06A177B0740
:10156000A1F7EC0DFD1D2150310961F7D3CF8D2F6F
:101570007D1608F4872DD81B080F580E602F832D79
:101580000E942E071FEFA8CFDF91CF911F910F91DF
:10159000FF90EF90DF90CF90BF90AF909F908F9093
:1015A0007F906F905F904F903F902F900895909113
:1015B0008304977021E030E001C0220F9A95EAF78A
:1015C000882311F0622F01C060E0822F0C949807ED
:1015D000BF92CF92DF92EF92FF920F931F93CF9320
:1015E000DF93182F062FD0917A0480918304D113B2
:1015F0000FC0861720F4962F981B892F06C0C82F7E
:10160000C61B812F0E942E078C2F0E948B095AC067
:10161000F82E68130DC0D11718F4812F8D1B05C04B
:10162000D11B812F0E942E078D2F0E9428094AC0AE
:101630001D1728F4DD2ED11ACC24CA9409C0D11765
:1016400028F4D12EDD1ACC24C39402C0C12CD12C95
:10165000081728F4C82FC01BBB24BA9409C08017F0
:1016600028F4C02FC81BBB24B39402C0B12CC0E027
:1016700081E00E94D70ACD1598F4ED2CE694E19410
:10168000EC0EDC0D1E1414F4ED18FB0C6F2D8D2FD9
:101690000E942E0781E00E94D70A1D13F1CF12C0CD
:1016A000EC2EE694E194ED0CFB0C1E1414F4EC1AF1
:1016B000DC0D6F2D8D2F0E942E0781E00E94D70A2E
:1016C0000F11F1CF602F812FDF91CF911F910F91DB
:1016D000FF90EF90DF90CF90BF900C942E0780E0AA
:1016E0000E94600710927804109284040895863155
:1016F00030F4683020F46093780480938404089573
:10170000CF92DF92EF92FF920F931F93CF93DF93CD
:10171000C9EB23E8C22E24E0D22E10E0D0E007E48B
:101720000C0FD83050F580E00E949A056C2F80E0B5
:101730000E94190580E00E949A0560E4610F80E034
:101740000E94190582E00E945B059BE7E92E94E068
:10175000F92E82E00E945B05F70181937F01F3E897
:10176000EF16F4E0FF06A9F7602F8D2F0E94DB062D
:10177000DF5F185FD031A9F61FC081E00E949A0593
:101780006C2F81E00E94190581E00E949A05612F6B
:1017900081E00E94190583E00E945B058BE7E82E3B
:1017A00084E0F82E83E00E945B05F70181937F01BE
:1017B000CE16DF06B9F7D8CFCF5FC03C09F0ADCF6A
:1017C000EBE7F4E083E894E011928E179F07E1F7CE
:1017D000C0E067E08C2F0E94DB06CF5FC031C9F705
:1017E00080917804882319F0815080937804DF91E8
:1017F000CF911F910F91FF90EF90DF90CF900895C0
:101800000F931F93CF93109279048C01F801C1912B
:101810008F01CC23B9F1CA3069F41092840480910D
:1018200078048F5F80937804883081F781E00E948C
:10183000800BECCFCD3051F380918404853160F082
:1018400010928404809178048F5F809378048830AC
:1018500019F481E00E94800B60917804660F660F96
:10186000660F80918404982F990F890F880F0E942A
:101870002E078C2F0E947108809184048F5F8093C3
:101880008404C4CFCF911F910F910895789420E1E3
:1018900037E297E0899FF0011124E557FB4F215073
:1018A000310919F080818F3FD1F781E0232B09F4B2
:1018B00080E008959091DF049F5F9093DF048B3167
:1018C00041F4E9E5F4E0A2ECB4E001900D928A95D0
:1018D000E1F78FEF809347048093400480933904AD
:1018E00090918B049F3F69F097E0EBE8F4E0A9E367
:1018F000B4E001900D929A95E1F780938B0487E014
:1019000001C080E0909192049F3F79F0A82FB0E051
:10191000A75CBB4F97E0E2E9F4E001900D929A9545
:10192000E1F79FEF90939204895F909199049F3F14
:1019300079F0A82FB0E0A75CBB4F87E0E9E9F4E0BD
:1019400001900D928A95E1F78FEF8093990404C07E
:10195000811102C087E0089585E1089527E0829F04
:10196000C0011124FC01E557FB4F81E090819F3FAE
:1019700009F480E00895F894A4EAB4E0E2ECF4E01D
:10198000818190E0982F88272081820F911D1196E8
:101990009C938E93838190E0982F88272281820FD9
:1019A000911D13969C938E931297858190E0982FAA
:1019B00088272481820F911D15969C938E931497EE
:1019C000878190E0982F88272681820F911D179696
:1019D0009C938E931697818590E0982F8827208579
:1019E000820F911D19969C938E9318977894F89472
:1019F00022858091870490918804AC01420F511D8B
:101A00009385892F90E0982F8827840F951F9093B6
:101A1000A1048093A004248580918504909186047C
:101A2000AC01420F511D9585892F90E0982F882792
:101A3000840F951F9093B9048093B804878590E034
:101A4000982F88272685820F911D9093E10480931B
:101A5000E004818990E0982F88272089820F911DCA
:101A60009093B7048093B604838990E0982F8827D9
:101A70002289820F911D90938A048093890485891D
:101A800090E0982F88272489820F911D9093C1049C
:101A90008093C0047894F894808D90E0982F8827E4
:101AA0002789820F911D9093A3048093A204828DB5
:101AB00090E0982F8827218D820F911D9093DE044E
:101AC0008093DD04789481E00895F89481E0809318
:101AD0008B0478940895F8948AE080938B0478942A
:101AE00081E00895F894EBE8F4E025E02083818319
:101AF000928363837483789481E00895F894EBE88B
:101B0000F4E022E02083818392836383748378945A
:101B100081E008952091870430918804821B930B03
:101B20002091850430918604621B730BF894EBE8D6
:101B3000F4E023E02083818392836383748345836D
:101B40005683789481E00895F894EBE8F4E024E07B
:101B5000208381839283638374834583568378943F
:101B600081E008951F93CF93DF93182FD62FC42FB2
:101B700082E00E94460CF894EBE8F4E086E0868769
:101B80001787D08BC18B789481E0DF91CF911F9123
:101B9000089581E00895F894E2ECF4E0258530E0C2
:101BA000322F22274485240F311D438550E0542FC6
:101BB0004427E2854E0F511DFC01E41BF50BF09309
:101BC0008804E0938704AB01421B530B50938604B7
:101BD000409385049093A1048093A0047093B9046A
:101BE0006093B804789481E0089581E00E94460CE7
:101BF000F89488E080939204789481E0089581E0DD
:101C00000E94460CF89487E080939204789481E0D7
:101C10000895CF93DF93D82FC92F81E00E94460CFF
:101C2000F894EBE8F4E089E08783D087C187789463
:101C300081E0DF91CF9108958F9A97988AE090E0A4
:101C40000E941A06979A84E690E00C941A0687E0A0
:101C50000E94430F9093E3048093E2040895BF9A97
:101C6000C79ABD9ABE9A8FEF82B984BB089595B387
:101C700021E030E0062E01C0220F0A94EAF780FF2F
:101C800002C0292B02C02095292325BB23B181FF47
:101C900008C081E090E001C0880F6A95EAF7822BC6
:101CA00008C081E090E001C0880F6A95EAF780954E
:101CB000822383B908959093EB048093EA040895F6
:101CC0008091EA049091EB0408959093E504809349
:101CD000E40408958091E4049091E50408959093BC
:101CE000E7048093E60408958091E6049091E70468
:101CF00008951092ED041092EC041092E9041092F1
:101D0000E8041092EE041092EF041092F004109286
:101D1000F1041092E5041092E4041092E70410928A
:101D2000E6048FEF93E09093EB048093EA04C59868
:101D3000C698BD9ABE9ABF9AC79A1DBC1CBC8AEAB7
:101D40008FBD82E18EBD80E094E097BD86BD87B7F0
:101D5000846087BF08951F920F920FB60F921124CF
:101D60002F933F934F938F939F93AF93BF93809104
:101D7000EC049091ED049C01285E3F4F283E43E027
:101D8000340728F43093ED042093EC040FC0805DF9
:101D900093409093ED048093EC048091E80490913B
:101DA000E90401969093E9048093E8048091E804A3
:101DB0009091E9049C012F5F3F4F283E43E0340798
:101DC00028F43093E9042093E80419C0875E934017
:101DD0009093E9048093E8048091EE049091EF04DD
:101DE000A091F004B091F1040196A11DB11D809362
:101DF000EE049093EF04A093F004B093F10480916B
:101E0000E4049091E5048F3F23E0920710F080E016
:101E100094E09BBD8ABD8091E6049091E7048F3FDA
:101E200043E0940710F080E094E099BD88BD809174
:101E3000EA049091EB048F3F23E0920710F080E0DA
:101E400094E09093790080937800BF91AF919F9137
:101E50008F914F913F912F910F900FBE0F901F9038
:101E60001895E1E6F0E0908121E030E001C0220F1A
:101E70008A95EAF7209592239083E2E6F0E080814C
:101E800028232083089590E497B997B18770982B01
:101E900097B987EC86B9369B02C00000FCCF24B10D
:101EA00085B190E0982F8827820F911D2091F20430
:101EB0003091F304280F391F3093F3042093F20478
:101EC00008958091F2049091F30408950F931F9365
:101ED000CF93DF93CDB7DEB72E970FB6F894DEBF62
:101EE0000FBECDBF0D891E8986E08C831A830983BE
:101EF0008FEF9FE79E838D83AE01475E5F4F6F89B3
:101F0000788DCE0101960E94950FEF81F885E00F44
:101F1000F11F10822E960FB6F894DEBF0FBECDBF14
:101F2000DF91CF911F910F9108952F923F924F9281
:101F30005F926F927F928F929F92AF92BF92CF9259
:101F4000DF92EF92FF920F931F93CF93DF93CDB762
:101F5000DEB72B970FB6F894DEBF0FBECDBF6C0176
:101F60007B018A01FC0117821682838181FFCCC12B
:101F7000CE0101963C01F6019381F70193FD859115
:101F800093FF81917F01882309F4BAC1853239F426
:101F900093FD859193FF81917F01853229F4B601EC
:101FA00090E00E94B511E7CF912C212C312CFFE15C
:101FB000F315D8F08B3279F038F4803279F083322F
:101FC000A1F4232D20611DC08D3261F0803369F4AE
:101FD000232D216016C0832D8260382EE32DE4600E
:101FE0003E2E2AC0F32DF8601DC037FC2DC020ED19
:101FF000280F2A3040F08E32B9F436FC81C1232DEF
:102000002064322E19C036FE06C08AE0989E200D4C
:102010001124922E11C0EAE02E9E200D1124222EB2
:10202000F32DF0623F2E08C08C3621F4832D80689A
:10203000382E02C0883641F4F70193FD859193FF55
:1020400081917F018111B3CF982F9F7D955493305B
:1020500028F40C5F1F4F9FE399830DC0833631F046
:10206000833771F0833509F059C021C0F8018081B0
:1020700089830E5F1F4F88248394912C530113C0D2
:102080002801F2E04F0E511CF801A080B18036FE0D
:1020900003C0692D70E002C06FEF7FEFC5010E94A1
:1020A000AA114C018201F32DFF773F2E16C02801A3
:1020B00022E0420E511CF801A080B18036FE03C020
:1020C000692D70E002C06FEF7FEFC5010E949F1184
:1020D0004C01F32DF0683F2E820133FC1BC0822D92
:1020E00090E088169906B0F4B60180E290E00E9474
:1020F000B5112A94F4CFF50137FC859137FE819113
:102100005F01B60190E00E94B51121102A9421E0F0
:10211000821A91088114910471F7E8C0843611F095
:10212000893641F5F80137FE07C0608171818281EF
:1021300093810C5F1F4F08C060817181072E000CD6
:10214000880B990B0E5F1F4FF32DFF763F2E97FFE5
:1021500009C090958095709561957F4F8F4F9F4FE7
:10216000F0683F2E2AE030E0A3010E94F111882E92
:10217000861845C0853731F4232D2F7EB22E2AE0F4
:1021800030E025C0932D997FB92E8F36C1F018F419
:10219000883579F0B5C0803719F0883721F0B0C0A4
:1021A000E92FE061BE2EB4FE0DC0FB2DF460BF2E02
:1021B00009C034FE0AC0292F2660B22E06C028E0CE
:1021C00030E005C020E130E002C020E132E0F8015B
:1021D000B7FE07C060817181828193810C5F1F4FC0
:1021E00006C06081718180E090E00E5F1F4FA30107
:1021F0000E94F111882E8618FB2DFF773F2E36FEA8
:102200000DC0232D2E7FA22E891458F434FE0BC04E
:1022100032FC09C0832D8E7EA82E05C0B82CA32CBD
:1022200003C0B82C01C0B92CA4FE0FC0FE01E80DFC
:10223000F11D8081803321F49A2D997EA92E09C049
:10224000A2FE06C0B394B39404C08A2D867809F028
:10225000B394A3FC11C0A0FE06C0B21488F4280CED
:10226000922C9B180EC0B21460F4B60180E290E08C
:102270000E94B511B394F7CFB21418F42B1802C012
:10228000982C212CA4FE10C0B60180E390E00E949F
:10229000B511A2FE17C0A1FC03C088E790E002C000
:1022A00088E590E0B6010CC08A2D867859F0A1FE31
:1022B00002C08BE201C080E2A7FC8DE2B60190E093
:1022C0000E94B511891438F4B60180E390E00E94B1
:1022D000B5119A94F7CF8A94F301E80DF11D80812E
:1022E000B60190E00E94B5118110F5CF222009F4CB
:1022F00042CEB60180E290E00E94B5112A94F6CF5A
:10230000F6018681978102C08FEF9FEF2B960FB663
:10231000F894DEBF0FBECDBFDF91CF911F910F911B
:10232000FF90EF90DF90CF90BF90AF909F908F90F5
:102330007F906F905F904F903F902F900895FC0199
:102340000590615070400110D8F7809590958E0FE0
:102350009F1F0895FC016150704001900110D8F753
:10236000809590958E0F9F1F08950F931F93CF9385
:10237000DF93FB01238121FD03C08FEF9FEF2CC072
:1023800022FF16C0468157812481358142175307A9
:1023900044F4A081B1819D012F5F3F4F31832083A1
:1023A0008C93268137812F5F3F4F3783268314C05C
:1023B0008B01EC01FB010084F185E02D0995892B4F
:1023C000E1F6D80116968D919C9117970196179674
:1023D0009C938E931697CE01DF91CF911F910F9111
:1023E0000895FA01AA27283051F1203181F1E894AB
:1023F0006F936E7F6E5F7F4F8F4F9F4FAF4FB1E0F8
:102400003ED0B4E03CD0670F781F891F9A1FA11DF2
:10241000680F791F8A1F911DA11D6A0F711D811DF3
:10242000911DA11D20D009F468943F912AE0269FB8
:1024300011243019305D3193DEF6CF010895462F17
:102440004770405D4193B3E00FD0C9F7F6CF462FF8
:102450004F70405D4A3318F0495D31FD4052419361
:1024600002D0A9F7EACFB4E0A6959795879577951E
:102470006795BA95C9F700976105710508959B01A5
:10248000AC010A2E06945795479537952795BA952E
:10249000C9F7620F731F841F951FA01D0895F8943C
:0224A000FFCF6C
:1024A20044697374616E7A3A202533690054696D08
:1024B200653A202533690003000000000004000093
:1024C2005F00000E00070007001F147F147F141F17
:1024D200242A7F2A121F23130864621F36495522B9
:1024E200500600050300000E001C2241000E0041B0
:1024F200221C001F14083E08141F08083E08080684
:1025020000A06000000F08080808080600606000CC
:10251200000E00601C03001F3E5149453E0E004262
:102522007F40001F42615149461D2141454B311FE9
:102532001814127F101D2745454539173C4A494951
:10254200301E01710905031D36494949361D0649E8
:1025520049291E0600363600000600AC6C00000F4A
:1025620008142241000F14141414141E00412214E2
:10257200081F02015109061F324979413E1F7C1290
:1025820011127C177F49494936173E414141221FAA
:102592007F4141221C177F49494941177F09090997
:1025A20001173E4149497A177F0808087F0E00410A
:1025B2007F41001F2040413F011F7F081422411725
:1025C2007F404040401F7F020C027F1F7F040810A3
:1025D2007F173E4141413E177F09090906173E41D7
:1025E2004141BE1D7F091929461746494949311FF4
:1025F20001017F0101173F4040403F1F1F20402043
:102602001F1F3F4038403F1F63140814631F070811
:102612007008071F61514945430E007F4141000E7A
:1026220000031C60000E0041417F000E0402010203
:10263200041F40404040400C000003040017205497
:10264200545478177F484444381738444444201D72
:10265200384444487F17385454541817087E0901E7
:10266200021718A4A4A478177F080404780E004463
:102672007D40000D4080847D000F7F102844000EB5
:1026820000417F40001F7C04780478177C08040412
:102692007817384444443817FC2424241817182483
:1026A2002424FC177C0804040817485454542017A7
:1026B200043F4440201D3C4040207C1F1C20402001
:1026C2001C1F3C4030403C1F4428102844171CA0CB
:1026D200A0A07C1F4464544C440E00083641000400
:1026E20000007F00000E00413608001F02010204B4
:0826F200021FAA55AA55AA0017
:00000001FF
