:100000000C9449000C9468000C9468000C946800EF
:100010000C9468000C9468000C9468000C946800C0
:100020000C9468000C9468000C9468000C946800B0
:100030000C9468000C9468000C94F10D0C9468000A
:100040000C9468000C9494050C9468000C9468005F
:100050000C9468000C9468000C9468000C94680080
:100060000C9468000C9468000C9468000C94680070
:100070000C9468000C9468000C9468000C94680060
:100080000C9468000C944E020C946800322E3131AE
:10009000000011241FBECFEFD0E1DEBFCDBF13E0C3
:1000A000A0E0B1E0ECE5FDE100E00BBF02C007908D
:1000B0000D92A034B107D9F724E0A0E4B3E001C069
:1000C0001D92AA3DB207E1F70E949A010C94AC0E72
:1000D0000C940000CF93DF93CDB7DEB764970FB6D3
:1000E000F894DEBF0FBECDBF1A82198222E1CE0185
:1000F0000396FC01322F11923A95E9F70E94010C08
:100100000E94450D80918A0490918B0481159E4236
:10011000C0F080918C0490918D048115934388F0F8
:1001200080918E0490918F0481159E4250F047E09B
:1001300050E065E070E082E70E94B7010E942E0166
:1001400007C047E050E065E070E087E60E94B70135
:1001500080918C0490918D048115934350F046E07A
:1001600050E066E070E082E70E94B7010E9444011F
:1001700007C046E050E066E070E087E60E94B70105
:10018000809192049091930481159E42C0F08091D9
:100190009004909191048115934388F080918E048E
:1001A00090918F0481159E4250F044E050E062E04F
:1001B00070E082E70E94B7010E945A0107C044E044
:1001C00050E062E070E087E60E94B7018091900401
:1001D000909191048115934350F043E050E063E027
:1001E00070E082E70E94B7010E94700107C043E0FF
:1001F00050E063E070E087E60E94B70180918E04D2
:1002000090918F048115934350F045E050E064E0F5
:1002100070E082E70E94B7010E942E0107C045E00E
:1002200050E064E070E087E60E94B7010000649649
:100230000FB6F894DEBF0FBECDBFDF91CF9108950A
:10024000CF93DF93CDB7DEB76AE070E08AE090E04D
:100250000E94C40C0000DF91CF910895CF93DF93EB
:10026000CDB7DEB74FE050E06BE170E085EE9FEF79
:100270000E94EA0C60E070E080E090E00E94110DC6
:100280000000DF91CF910895CF93DF93CDB7DEB714
:100290004AE050E06DE070E083EF9FEF0E94EA0CCF
:1002A00060E070E080E090E00E94110D0000DF91BE
:1002B000CF910895CF93DF93CDB7DEB74FE050E0F5
:1002C00065EE7FEF8BE190E00E94EA0C60E070E069
:1002D00080E090E00E94110D0000DF91CF91089521
:1002E000CF93DF93CDB7DEB74FE050E063EF7FEF02
:1002F0008DE090E00E94EA0C60E070E080E090E029
:100300000E94110D0000DF91CF910895CF93DF93EC
:10031000CDB7DEB763EF7FEF83EF9FEF0E94C40C92
:1003200060E070E080E090E00E94110D0000DF913D
:10033000CF910895CF93DF93CDB7DEB778940E9425
:10034000620D0E948D050E94750D0E94FE040E94A0
:1003500029080E94450D0E943F0284EB0E94480438
:100360000E946A0084EF91E00E946005F9CFCF936C
:10037000DF93CDB7DEB727970FB6F894DEBF0FBE79
:10038000CDBF8B837D836C835F834E838C819D8106
:100390009A83898313C08B81823731F48981682FD6
:1003A00082E00E947D0D05C08981682F81E00E9456
:1003B0007D0D89819A8101969A83898329813A8169
:1003C0008E819F818217930734F7000027960FB61E
:1003D000F894DEBF0FBECDBFDF91CF910895F894A2
:1003E00080916303882311F481E105C0809174003A
:1003F00084FF05C082E18093630380E015C0809193
:10040000740085FF07C01092740084E0809374002C
:1004100088E1F1CF109263038091660380936403B7
:1004200085EA8093740081E07894089580E197E2F2
:1004300035E00DC02091740020FD06C020917400AD
:1004400024FD02C081E00895232F2A95F1F701973A
:100450002FEF8F3F920771F7F8941092740084E0A9
:100460008093740080916303803118F483E180935A
:100470006303789480E00895809163030895E4E72E
:10048000F0E0108288E4809370008FEF8093730017
:1004900084E0808381E08093630308951F920F922C
:1004A0000FB60F920BB60F9211242F933F938F9399
:1004B0009F93EF93FF9380917100887F80936503F2
:1004C000883251F1893288F4803121F1813138F458
:1004D000882309F471C0883009F073C01BC08831CB
:1004E000D9F0803209F06DC067C0803409F442C091
:1004F000813438F4803309F45FC0883309F061C077
:1005000056C0803559F1883509F442C0883409F065
:1005100058C052C0109267039091670380916403A2
:10052000981768F480916703E82FF0E0E15BFC4FD7
:1005300090818F5F809367039093730027C08091B1
:100540006803882369F18091680380936403809134
:100550004F03816080934F0385EA26C08091670333
:1005600090917300E82FF0E0E15BFC4F90838F5F88
:1005700080936703809167032091640390E0019664
:1005800030E08217930714F485EC0EC085E80CC0A8
:10059000E091670380917300F0E0E15BFC4F8083A2
:1005A00082E08093630384E98093740010C084E840
:1005B0008093740085E109C084E98093740086E12A
:1005C00004C084E88093740087E180936303FF9103
:1005D000EF919F918F913F912F910F900BBE0F90B4
:1005E0000FBE0F901F901895089580936603609337
:1005F00068030E94EF010E941602089584E580932B
:100600004F0384E2809350038091490390914A0301
:10061000909351038093520380914B0390914C032C
:10062000909353038093540380914003909141032E
:10063000909355038093560388E062E00E94F50290
:10064000089584E580934F0383E28093500382E012
:1006500067E00E94F5029091500380E020915103E1
:10066000820F911D90934A03809349039091520306
:1006700080E020915303820F911D90934C0380934F
:100680004B039091540380E020915503820F911DFC
:100690009093410380934003089584E580934F0332
:1006A00082E2809350038091470390914803909396
:1006B000510380935203809142039091430390939E
:1006C00053038093540380914D0390914E03909374
:1006D00055038093560388E062E00E94F502089576
:1006E00084E580934F0381E28093500382E067E0CA
:1006F0000E94F5029091500380E020915103820FF7
:10070000911D90934803809347039091520380E09A
:1007100020915303820F911D9093430380934203D2
:100720009091540380E020915503820F911D909386
:100730004E0380934D03089524E520934F0320E258
:1007400020935003909351038093520384E062E01E
:100750000E94F502089594E590934F0393E19093DE
:1007600050038093510383E063E00E94F5023091CF
:10077000500320E080915103280F311DC9010895D5
:1007800084E580934F0382E18093500382E062E02E
:100790000E94F5028091500380934403089584E5FC
:1007A00080934F0381E180935003809146038093AF
:1007B000510383E062E00E94F502089584E580938E
:1007C0004F0380E180935003809145038093510350
:1007D00083E062E00E94F502089584E580934F0370
:1007E00086E08093500382E062E00E94F5028091EF
:1007F0005003089584E580934F0385E08093500370
:1008000082E062E00E94F50280915003089584E541
:1008100080934F0384E08093500382E062E00E9463
:10082000F5028091500308950F931F93182F062F00
:1008300084E580934F0383E080935003109351032A
:100840006093520384E061E10E94F502E0E5F3E089
:1008500007C0A12FB0E0A759BC4F81918C93100F16
:10086000153B20F483E0E036F80799F71F910F91CC
:10087000089594E590934F0392E0909350038093F2
:1008800051036093520384E062E00E94F5020895F0
:1008900094E590934F0391E090935003809351031C
:1008A00083E062E00E94F502089584E580934F039F
:1008B0001092500382E062E00E94F5020895909148
:1008C0006500382F3170292F2E7F91E09327922BCE
:1008D00090936500909165009D7F311102C020E0EA
:1008E00001C022E0922B9093650090916500977F64
:1008F00081FD02C080E001C088E0892B8093650003
:10090000809165008F7E809365008FEF8ABB6BBB03
:1009100085E08A95F1F700008091650084608093FE
:10092000650085E08A95F1F70000809165008B7F76
:100930008093650085E08A95F1F700001BBA1ABA2A
:10094000089590916500382F3170292F2E7F91E006
:100950009327922B90936500909165009D7F3111B4
:1009600002C020E001C022E0922B9093650090919C
:100970006500977F81FD02C080E001C088E0892B7F
:1009800080936500809165008061809365001ABA4C
:1009900085E08A95F1F7000080916500846080937E
:1009A000650095E19A95F1F7000089B39091650093
:1009B0009B7F9093650095E09A95F1F7000008956C
:1009C0000F931F93CF9390911E04911102C080E06A
:1009D00011C0C82FC17000E010E08C2F0E94A1044C
:1009E0000F5F1F4F87FF05C00F3F8FEF1807A9F755
:1009F000EECF81E0CF911F910F9108958FEF8093FB
:100A00001E0480916400886080936400809164007B
:100A100080618093640080916400846080936400AE
:100A200080916400816080936400809164008260A2
:100A300080936400B89A1ABA80916500877F80938A
:100A40006500809165008F7E8093650080916500D0
:100A50008B7F80936500809165008E7F8093650019
:100A6000809165008D7F80936500C098979B09C039
:100A700097988FE99FE00197F1F700C00000979ADF
:100A800006C08FE99FE00197F1F700C00000C09A0F
:100A900080E00E94E004882351F081E00E94E0049D
:100AA000882311F082E001C081E080931E048091D0
:100AB0001E048F3F11F410921E0480911E040895AD
:100AC000009741F0EFE9FFE03197F1F700C0000037
:100AD0000197F6CF08958FB990915A048927809392
:100AE0005A04089510925B0480933C0491E0980F9F
:100AF00090933E0496E990935A0490935C04F89482
:100B0000B09903C078940000FACF90EC9DB90E9490
:100B10006B05779A789480E00895B898C098BB9A4E
:100B2000C39A80E00C9472051F920F920FB60F9239
:100B300011240BB60F922F933F934F935F936F93B4
:100B40007F938F939F93AF93BF93EF93FF938FB157
:100B500090915C04982790935C04E0915B04E11110
:100B600016C080933A048C3130F010923C041092FD
:100B70003A0481E009C0482F50E020913E0430E063
:100B800042175307FCF08F5F80933E041BC02E2F4B
:100B900030E040913A0450E0421753072CF0D9015D
:100BA000A25CBB4F8C930EC02150310942175307F2
:100BB00049F4992339F080913B048F5F80933B0483
:100BC00010923A0480913C04E81728F4F0E0E15ECA
:100BD000FB4F80810AC0E81303C080915A0405C00E
:100BE00080913E04E81748F48FEF0E946B058091D6
:100BF0005B048F5F80935B0411C0B898C0981DB8E8
:100C0000B898C09880913D048F5F80933D0478949C
:100C100080913A040E94A00B0E947205FF91EF910F
:100C2000BF91AF919F918F917F916F915F914F9104
:100C30003F912F910F900BBE0F900FBE0F901F9002
:100C40001895CF93DF93C82FD8EBD60F883000F5D7
:100C500080E00E94E0046D2F80E00E945F0480E04D
:100C60000E94E0046C2F660F660F660F605C80E0E8
:100C70000E945F04C1E6D4E082E00E94E004699132
:100C800082E00E945F0484E0C936D807A9F720C03B
:100C9000C85081E00E94E0046D2F81E00E945F0453
:100CA00081E00E94E004CC0FCC0FCC0F60E46C0F0D
:100CB00081E00E945F04C1E6D4E083E00E94E0048A
:100CC000699183E00E945F0484E0C936D807A9F7E0
:100CD000DF91CF9108958091600408958091690417
:100CE000089580935D040895CF93DF93D82FC62F86
:100CF000809360046093690480E00E94E00481E0D6
:100D00000E94E004C695C695C695C8546C2F80E035
:100D10000E945F046C2F81E00E945F0480E00E94CB
:100D2000E00481E00E94E00460E4D13428F080E037
:100D30000E945F046D2F05C06D0F80E00E945F046C
:100D400060E481E0DF91CF910C945F041F93CF9317
:100D5000DF93182FC8EB80E00E94E00481E00E943E
:100D6000E0046C2F80E00E945F046C2F81E00E9401
:100D70005F04D0E482E00E94E00483E00E94E0048B
:100D8000612F82E00E945F04612F83E00E945F0474
:100D9000D15081F7CF5FC03CF1F680E00E94E004C3
:100DA00081E00E94E00468EB80E00E945F0468EB51
:100DB00081E0DF91CF911F910C945F040F931F93FB
:100DC000CF93DF93D82FC62F8091600487FD37C063
:100DD00011E0803408F410E0812F0E94E00402E06A
:100DE000010F802F0E94A104802F0E94A1049091E6
:100DF0005D0492FF02C0D0959B7FDC23911102C05D
:100E0000C82F04C0913021F4C095C823CD2B02C057
:100E1000C82FCD27812F0E94E00460916004606498
:100E2000812F0E945F04812F0E94E0046C2F802F8D
:100E30000E945F04809160048F5F80936004DF9163
:100E4000CF911F910F91089590EE980F903608F072
:100E500080E8805296E0899FF0011124E050FF4F16
:100E6000908180915F04811101C09FE125E080E0C5
:100E700090FD8F5F96952150D9F708957F928F92BC
:100E80009F92AF92BF92CF92DF92EF92FF920F9319
:100E90001F93CF93DF93C62F90EE980F903608F0F4
:100EA00080E8805226E0829FC0011124FC01EF5FA0
:100EB000FE4F7F01FC01E050FF4F908080915F0466
:100EC000811102C09FE1992EAC2E0C2E000CBB08A4
:100ED0006FEF70E06B010C2E01C0CC0C0A94EAF7A6
:100EE0008C2C002711270A191B09002E02C07595AA
:100EF00067950A94E2F7D62F85E0782E90FE15C00C
:100F0000F7018081C7FD07C0682D0A2C01C0880F3A
:100F10000A94EAF708C090E0002E02C095958795E4
:100F20000A94E2F76D2F0E94DE069694FFEFEF1A07
:100F3000FF0A7A947110E2CFC7FD02C06C2D07C082
:100F40006FEF70E002C0759567950A95E2F780E053
:100F5000DF91CF911F910F91FF90EF90DF90CF9095
:100F6000BF90AF909F908F907F900C94DE061F9360
:100F7000CF93DF93D82F10916004C0916904C7709C
:100F80006C2F0E943E07CC23A9F060916904685F32
:100F9000812F0E94740668EF6C0F8D2F0E943E0710
:100FA00060916904685080916004DF91CF911F9136
:100FB0000C947406DF91CF911F910895CF93DF9326
:100FC000EC018991882319F00E94B707FACFDF91CD
:100FD000CF9108950F931F93CF938C01C0E0F80138
:100FE00081918F01882331F00E9424078C0FC1E08A
:100FF000C80FF5CF8C2FCF911F910F910895CF93EC
:10100000DF93EC01CE01FE012491222331F02196E1
:10101000FC0184910E94B707F5CFDF91CF9108952D
:101020000F931F93CF938C01C0E0C801F801249166
:10103000222351F00F5F1F4FFC0184910E9424076F
:101040008C0FC1E0C80FF1CF8C2FCF911F910F9162
:10105000089580E00E94E0046FE380E00E945F0456
:1010600080E00E94E00460EC80E00E945F0480E089
:101070000E94E00460E480E00E945F0480E00E943F
:10108000E00468EB80E00E945F0481E00E94E004DD
:101090006FE381E00E945F0481E00E94E00460EC65
:1010A00081E00E945F0481E00E94E00460E481E04E
:1010B0000E945F0481E00E94E00468EB81E00E94EE
:1010C0005F0480E00E94A60681E080935D0408959D
:1010D00080935F04089580915F040895CF93DF9318
:1010E000909169049770C1E001C0CC0F9A95EAF71E
:1010F000D82FDD2331F06C2F8C2F0E94DE06D150CB
:10110000F8CFDF91CF910895AF92BF92CF92DF9247
:10111000EF92FF920F931F93CF93DF93B82EC62FBA
:10112000E090600410916904812F8770DFEF01C0A7
:10113000DD0F8A95EAF788E0A82ECC24CA94D12C3A
:10114000CC2321F1812F87700A2D081BC01748F48A
:10115000802F8C1B960102C0359527958A95E2F762
:10116000D223FB2CFF2031F06D2F8D2F0E94DE0645
:10117000FA94F8CF8C2F0C1708F4802FC81B180F87
:10118000612F8E2D0E947406DFEFDACFDF91CF91B1
:101190001F910F91FF90EF90DF90CF90BF90AF9095
:1011A0000895682F81E00C9484082F923F924F920B
:1011B0005F926F927F928F929F92AF92BF92CF92E7
:1011C000DF92EF92FF920F931F93CF93DF93482EFE
:1011D000D62F5A013090600480906904882D877062
:1011E0009FEF992E01C0990C8A95EAF7242D30E0E3
:1011F000C901019797FD079623E0959587952A9554
:10120000E1F7C1E0C80FEC2EF12C670133E0CC0C04
:10121000DD1C3A95E1F7512C48E0242EDD2309F43A
:1012200056C0882D8770722C781AD71550F4872DE8
:101230008D1B2FEF30E002C0359527958A95E2F798
:101240009222052D070DC09F80011124612C64148A
:1012500081F1862D877059F0E82FF0E0EF59FB4FB0
:101260008081692D89210E94DE066394F0CF962D3E
:10127000969596959695F801E90FF11DEC19FD09E3
:10128000EA0DFB1D28E030E04081A1E6B4E09C912E
:10129000969540FD90689C934695119669E674E09A
:1012A0006A177B07A1F7EE0DFF1D2150310961F789
:1012B000D3CF8D2F7D1608F4872DD81B880E580E9E
:1012C000682D832D0E94740699249A94A7CFDF91EC
:1012D000CF911F910F91FF90EF90DF90CF90BF9033
:1012E000AF909F908F907F906F905F904F903F90C6
:1012F0002F9008952F923F924F925F926F927F921C
:101300008F929F92AF92BF92CF92DF92EF92FF9215
:101310000F931F93CF93DF93482ED62F4A0130901F
:10132000600400916904802F87701FEF01C0110FC6
:101330008A95EAF7242D30E0C901019797FD0796B9
:1013400023E0959587952A95E1F7C1E0C80FCC2E4B
:10135000D12C560133E0AA0CBB1C3A95E1F7512C75
:1013600048E0242EDD2309F455C0802F8770722CAD
:10137000781AD71550F4872D8D1B2FEF30E002C05F
:10138000359527958A95E2F71223E52CE70CCE9D3B
:1013900070011124612C641481F1862D877059F03D
:1013A000E82FF0E0EF59FB4F8081612F81230E94ED
:1013B000DE066394F0CF962D969596959695F70157
:1013C000E90FF11DEA19FB09E80DF91D28E030E0ED
:1013D0004491A1E6B4E09C91969540FD90689C9361
:1013E0004695119669E674E06A177B07A1F7EC0D44
:1013F000FD1D2150310961F7D3CF8D2F7D1608F4E3
:10140000872DD81B080F580E602F832D0E9474065D
:101410001FEFA8CFDF91CF911F910F91FF90EF9019
:10142000DF90CF90BF90AF909F908F907F906F9004
:101430005F904F903F902F9008959091690497701E
:1014400021E030E001C0220F9A95EAF7882311F0DD
:10145000622F01C060E0822F0C94DE06BF92CF9213
:10146000DF92EF92FF920F931F93CF93DF93182F8A
:10147000062FD091600480916904D1130FC08617A4
:1014800020F4962F981B892F06C0C82FC61B812FCA
:101490000E9474068C2F0E94D1085AC0F82E68133F
:1014A0000DC0D11718F4812F8D1B05C0D11B812FC2
:1014B0000E9474068D2F0E946E084AC01D1728F4E2
:1014C000DD2ED11ACC24CA9409C0D11728F4D12E0C
:1014D000DD1ACC24C39402C0C12CD12C081728F4E7
:1014E000C82FC01BBB24BA9409C0801728F4C02F92
:1014F000C81BBB24B39402C0B12CC0E081E00E94A1
:101500001D0ACD1598F4ED2CE694E194EC0EDC0D5B
:101510001E1414F4ED18FB0C6F2D8D2F0E94740611
:1015200081E00E941D0A1D13F1CF12C0EC2EE6943B
:10153000E194ED0CFB0C1E1414F4EC1ADC0D6F2D71
:101540008D2F0E94740681E00E941D0A0F11F1CFB9
:10155000602F812FDF91CF911F910F91FF90EF901E
:10156000DF90CF90BF900C94740680E00E94A60696
:1015700010925E0410926A040895863130F4683047
:1015800020F460935E0480936A040895CF92DF9202
:10159000EF92FF920F931F93CF93DF93C9EB29E64E
:1015A000C22E24E0D22E10E0D0E007E40C0FD83099
:1015B00050F580E00E94E0046C2F80E00E945F0400
:1015C00080E00E94E00460E4610F80E00E945F041C
:1015D00082E00E94A10491E6E92E94E0F92E82E0D7
:1015E0000E94A104F70181937F01F9E6EF16F4E070
:1015F000FF06A9F7602F8D2F0E942106DF5F185F7D
:10160000D031A9F61FC081E00E94E0046C2F81E078
:101610000E945F0481E00E94E004612F81E00E944B
:101620005F0483E00E94A10481E6E82E84E0F82EA6
:1016300083E00E94A104F70181937F01CE16DF06AB
:10164000B9F7D8CFCF5FC03C09F0ADCFE1E6F4E009
:1016500089E694E011928E179F07E1F7C0E067E0FA
:101660008C2F0E942106CF5FC031C9F780915E04A4
:10167000882319F0815080935E04DF91CF911F91F0
:101680000F91FF90EF90DF90CF9008950F931F93ED
:10169000CF9310925F048C01F801C1918F01CC238C
:1016A000B9F1CA3069F410926A0480915E048F5FC8
:1016B00080935E04883081F781E00E94C60AECCFF7
:1016C000CD3051F380916A04853160F010926A0444
:1016D00080915E048F5F80935E04883019F481E00E
:1016E0000E94C60A60915E04660F660F660F8091C5
:1016F0006A04982F990F890F880F0E9474068C2F07
:101700000E94B70780916A048F5F80936A04C4CFF8
:10171000CF911F910F910895789420E137E297E0DF
:10172000899FF0011124EF58FB4F2150310919F026
:1017300080818F3FD1F781E0232B09F480E0089569
:101740009091C5049F5F9093C5048B3141F4EFE302
:10175000F4E0A8EAB4E001900D928A95E1F78FEFEA
:1017600080932D048093260480931F04909171042C
:101770009F3F69F097E0E1E7F4E0AFE1B4E001906A
:101780000D929A95E1F78093710487E001C080E0A3
:10179000909178049F3F79F0A82FB0E0A15EBB4FF5
:1017A00097E0E8E7F4E001900D929A95E1F79FEF5A
:1017B00090937804895F90917F049F3F79F0A82FE0
:1017C000B0E0A15EBB4F87E0EFE7F4E001900D923F
:1017D0008A95E1F78FEF80937F0404C0811102C0E6
:1017E00087E0089585E1089527E0829FC0011124D4
:1017F000FC01EF58FB4F81E090819F3F09F480E0AE
:101800000895F894AAE8B4E0E8EAF4E0818190E071
:10181000982F88272081820F911D11969C938E937B
:10182000838190E0982F88272281820F911D139643
:101830009C938E931297858190E0982F882724811E
:10184000820F911D15969C938E931497878190E03B
:10185000982F88272681820F911D17969C938E932F
:101860001697818590E0982F88272085820F911DFB
:1018700019969C938E9318977894F894228580916A
:101880006D0490916E04AC01420F511D9385892F18
:1018900090E0982F8827840F951F9093870480935A
:1018A0008604248580916B0490916C04AC01420FF6
:1018B000511D9585892F90E0982F8827840F951FBB
:1018C00090939F0480939E04878590E0982F8827AB
:1018D0002685820F911D9093C7048093C604818949
:1018E00090E0982F88272089820F911D90939D0466
:1018F00080939C04838990E0982F88272289820F07
:10190000911D9093700480936F04858990E0982FC7
:1019100088272489820F911D9093A7048093A604A1
:101920007894F894808D90E0982F88272789820FEB
:10193000911D9093890480938804828D90E0982F64
:101940008827218D820F911D9093C4048093C30436
:10195000789481E00895F89481E0809371047894FC
:101960000895F8948AE080937104789481E0089552
:10197000F894E1E7F4E025E0208381839283638398
:101980007483789481E00895F894E1E7F4E022E02C
:1019900020838183928363837483789481E00895A4
:1019A00020916D0430916E04821B930B20916B0487
:1019B00030916C04621B730BF894E1E7F4E023E0D0
:1019C00020838183928363837483458356837894D1
:1019D00081E00895F894E1E7F4E024E02083818336
:1019E00092836383748345835683789481E008955A
:1019F0001F93CF93DF93182FD62FC42F82E00E941E
:101A00008C0BF894E1E7F4E086E086871787D08BAB
:101A1000C18B789481E0DF91CF911F91089581E08F
:101A20000895F894E8EAF4E0258530E0322F222783
:101A30004485240F311D438550E0542F4427E2850F
:101A40004E0F511DFC01E41BF50BF0936E04E09367
:101A50006D04AB01421B530B50936C0440936B0419
:101A6000909387048093860470939F0460939E04F0
:101A7000789481E0089581E00E948C0BF89488E0CE
:101A800080937804789481E0089581E00E948C0B23
:101A9000F89487E080937804789481E00895CF9358
:101AA000DF93D82FC92F81E00E948C0BF894E1E7D7
:101AB000F4E089E08783D087C187789481E0DF9163
:101AC000CF9108958F9A97988AE090E00E946005E0
:101AD000979A84E690E00C94600587E00E94890E56
:101AE0009093C9048093C8040895BF9AC79ABD9A79
:101AF000BE9A8FEF82B984BB089595B321E030E0A0
:101B0000062E01C0220F0A94EAF780FF02C0292B9B
:101B100002C02095292325BB23B181FF08C081E0A5
:101B200090E001C0880F6A95EAF7822B08C081E037
:101B300090E001C0880F6A95EAF78095822383B907
:101B400008959093D1048093D00408958091D00497
:101B50009091D10408959093CB048093CA04089582
:101B60008091CA049091CB0408959093CD04809302
:101B7000CC0408958091CC049091CD0408951092E6
:101B8000D3041092D2041092CF041092CE0410927B
:101B9000D4041092D5041092D6041092D704109257
:101BA000CB041092CA041092CD041092CC048FEF93
:101BB00093E09093D1048093D004C598C698BD9AC1
:101BC000BE9ABF9AC79A1DBC1CBC8AEA8FBD82E12F
:101BD0008EBD80E094E097BD86BD87B7846087BFE7
:101BE00008951F920F920FB60F9211242F933F93D7
:101BF0004F938F939F93AF93BF938091D204909113
:101C0000D3049C01285E3F4F283E43E0340728F46C
:101C10003093D3042093D2040FC0805D93409093FF
:101C2000D3048093D2048091CE049091CF04019686
:101C30009093CF048093CE048091CE049091CF04F2
:101C40009C012F5F3F4F283E43E0340728F4309338
:101C5000CF042093CE0419C0875E93409093CF04A5
:101C60008093CE048091D4049091D504A091D604A1
:101C7000B091D7040196A11DB11D8093D404909317
:101C8000D504A093D604B093D7048091CA04909150
:101C9000CB048F3F23E0920710F080E094E09BBDDF
:101CA0008ABD8091CC049091CD048F3F43E094078E
:101CB00010F080E094E099BD88BD8091D0049091AF
:101CC000D1048F3F23E0920710F080E094E09093DE
:101CD000790080937800BF91AF919F918F914F9140
:101CE0003F912F910F900FBE0F901F901895E1E636
:101CF000F0E0908121E030E001C0220F8A95EAF700
:101D0000209592239083E2E6F0E0808128232083CF
:101D1000089590E497B997B18770982B97B987EC9D
:101D200086B9369B02C00000FCCF24B185B190E09B
:101D3000982F8827820F911D2091D8043091D904C3
:101D4000280F391F3093D9042093D8040895809127
:0C1D5000D8049091D9040895F894FFCFB6
:101D5C000300000000000400005F00000E000700FC
:101D6C0007001F147F147F141F242A7F2A121F239D
:101D7C00130864621F364955225006000503000003
:101D8C000E001C2241000E0041221C001F14083EB4
:101D9C0008141F08083E08080600A06000000F0881
:101DAC00080808080600606000000E00601C0300B4
:101DBC001F3E5149453E0E00427F40001F4261517B
:101DCC0049461D2141454B311F1814127F101D2708
:101DDC0045454539173C4A4949301E0171090503EF
:101DEC001D36494949361D064949291E0600363615
:101DFC0000000600AC6C00000F08142241000F1408
:101E0C00141414141E00412214081F020151090657
:101E1C001F324979413E1F7C1211127C177F4949B0
:101E2C004936173E414141221F7F4141221C177FF9
:101E3C0049494941177F09090901173E4149497A26
:101E4C00177F0808087F0E00417F41001F2040418A
:101E5C003F011F7F08142241177F404040401F7FE5
:101E6C00020C027F1F7F0408107F173E4141413E48
:101E7C00177F09090906173E414141BE1D7F09190B
:101E8C0029461746494949311F01017F0101173F76
:101E9C004040403F1F1F2040201F1F3F4038403F05
:101EAC001F63140814631F07087008071F6151494A
:101EBC0045430E007F4141000E00031C60000E00E4
:101ECC0041417F000E04020102041F40404040408B
:101EDC000C0000030400172054545478177F484416
:101EEC0044381738444444201D384444487F17383C
:101EFC005454541817087E0901021718A4A4A47886
:101F0C00177F080404780E00447D40000D40808447
:101F1C007D000F7F102844000E00417F40001F7C85
:101F2C0004780478177C080404781738444444383F
:101F3C0017FC242424181718242424FC177C0804C8
:101F4C00040817485454542017043F4440201D3CA7
:101F5C004040207C1F1C2040201C1F3C4030403C3B
:101F6C001F4428102844171CA0A0A07C1F446454B4
:101F7C004C440E00083641000400007F00000E00A7
:101F8C00413608001F02010204021FAA55AA55AAD5
:00000001FF
