:100000000C9449000C9468000C9468000C946800EF
:100010000C9468000C9468000C9468000C946800C0
:100020000C9468000C9468000C9468000C946800B0
:100030000C9468000C9468000C945E080C946800A2
:100040000C9468000C9418090C9468000C946800D7
:100050000C9468000C9468000C9468000C94680080
:100060000C9468000C9468000C9468000C94680070
:100070000C9468000C9468000C9468000C94680060
:100080000C9468000C9468000C946800322E313196
:10009000000011241FBECFEFD0E1DEBFCDBF13E0C3
:1000A000A0E0B1E0E6EDF7E200E00BBF02C0079090
:1000B0000D92A43AB107D9F724E0A4EAB3E001C055
:1000C0001D92A337B207E1F70E94E8020C94E913EE
:1000D0000C940000CF93DF9300D0CDB7DEB70E9421
:1000E0006E020E9443038091310490913204811585
:1000F000954BA0F080913504909136048115994C70
:1001000068F08091390490913A048115954B30F054
:1001100081E090E09093A5038093A4038091310443
:10012000909132048F3F910581F178F180913904EB
:1001300090913A048115934340F18091A6039091E8
:10014000A70301969093A7038093A6038091A4032D
:100150009091A503019711F58091A6039091A703B3
:100160000296E1F00E94D40241E050E060E070E0CD
:1001700082E70E940B038091A6039091A703019749
:100180009093A7038093A60309C060E080E00E94DB
:10019000011161E080E00E94011101C00000809126
:1001A0003104909132048115934340F180913904D8
:1001B00090913A048115924308F58091A40390919F
:1001C000A5030197D9F44FE050E06BE170E085EEB4
:1001D0009FEF0E946E1041E050E060E070E087E623
:1001E0000E940B0388EE93E00E94E4081092A5039E
:1001F0001092A4031092A7031092A60380913904D1
:1002000090913A048115934340F18091310490918B
:1002100032048115924308F58091A4039091A503BF
:100220000197D9F44FE050E065EE7FEF8BE190E06D
:100230000E946E1041E050E060E070E087E60E94AE
:100240000B0388EE93E00E94E4081092A50310923D
:10025000A4031092A7031092A603809139049091F1
:100260003A048115924308F041C080913104909185
:10027000320481159243D0F58091A4039091A50397
:100280000197A1F50E94B81381709078992324F406
:1002900001978E6F9F6F01969A83898389819A81D6
:1002A000892B49F44FE050E06BE170E085EE9FEF61
:1002B0000E946E1008C04FE050E065EE7FEF8BE1CA
:1002C00090E00E946E1041E050E060E070E087E650
:1002D0000E940B0388EE93E00E94E4081092A503AD
:1002E0001092A4031092A7031092A60380913104E8
:1002F000909132048115974980F180913304909157
:1003000034048115974948F1809135049091360461
:1003100081159B4A10F18091A4039091A503892B2C
:10032000E1F447E050E065E070E082E70E940B03F3
:100330000E947C0262E370E088E290E00E946B031E
:100340006EE170E088E290E00E946B0362E370E08F
:1003500081E490E00E946B0307C047E050E065E055
:1003600070E087E60E940B0380913304909134047F
:1003700081159749B0F08091A4039091A503892B32
:1003800081F446E050E066E070E082E70E940B03F3
:100390000E94920262E370E088E290E00E946B03A8
:1003A00007C046E050E066E070E087E60E940B037D
:1003B0008091390490913A048115974980F1809198
:1003C0003704909138048115974948F1809135049C
:1003D0009091360481159B4A10F18091A40390916D
:1003E000A503892BE1F444E050E062E070E082E78D
:1003F0000E940B030E94A80262E370E08AE590E08D
:100400000E946B036EE170E08AE590E00E946B034E
:1004100062E370E081E490E00E946B0307C044E077
:1004200050E062E070E087E60E940B0380913704A1
:100430009091380481159749B0F08091A403909170
:10044000A503892B81F443E050E063E070E082E78C
:100450000E940B030E94BE0262E370E085E590E01B
:100460000E946B0307C043E050E063E070E087E662
:100470000E940B03809135049091360481159546B6
:1004800080F0809133049091340481159D4348F0AD
:1004900045E050E064E070E082E70E940B030E94B8
:1004A0007C0280913504909136048115954680F048
:1004B000809137049091380481159D4348F045E0C0
:1004C00050E064E070E082E70E940B030E94A80203
:1004D00000000F900F90DF91CF910895CF93DF939D
:1004E000CDB7DEB76AE070E08AE090E00E94481085
:1004F0000000DF91CF910895CF93DF93CDB7DEB7A2
:100500004FE050E06BE170E085EE9FEF0E946E10CF
:1005100060E070E080E090E00E9495100000DF91C4
:10052000CF910895CF93DF93CDB7DEB74FE050E082
:100530006DE070E083EF9FEF0E946E1060E070E06E
:1005400080E090E00E9495100000DF91CF91089527
:10055000CF93DF93CDB7DEB74FE050E065EE7FEF8E
:100560008BE190E00E946E1060E070E080E090E02F
:100570000E9495100000DF91CF910895CF93DF93F3
:10058000CDB7DEB74FE050E063EF7FEF8DE090E056
:100590000E946E1060E070E080E090E00E94951094
:1005A0000000DF91CF910895CF93DF93CDB7DEB7F1
:1005B00066EF7FEF86EF9FEF0E94481060E070E0EB
:1005C00080E090E00E9495100000DF91CF910895A7
:1005D000CF93DF93CDB7DEB778940E94E6100E94E8
:1005E00011090E9443110E94F9100E942C080E94D8
:1005F000CA070E94AD0B0E94C9100E94630680E0EA
:100600000E942A0A0E94850F0E946A0084EF91E0EE
:100610000E94E408F4CFCF93DF93CDB7DEB72797DE
:100620000FB6F894DEBF0FBECDBF8B837D836C8386
:100630005F834E838C819D819A83898313C08B81D4
:10064000823731F48981682F82E00E94011105C050
:100650008981682F81E00E94011189819A81019628
:100660009A83898329813A818E819F81821793079A
:1006700034F7000027960FB6F894DEBF0FBECDBF4B
:10068000DF91CF910895CF93DF93CDB7DEB76CE0C4
:1006900085E30E94F80966E084E00E94080C6CE0A3
:1006A0008BE40E94F80966E084E00E94080C6EE08A
:1006B0008BE30E94F80968E08EE00E94080C66E176
:1006C0008DE30E94F80963E08AE00E94080C0000B4
:1006D000DF91CF910895CF93DF9300D000D0CDB7B5
:1006E000DEB79A8389837C836B839B818981692FA1
:1006F0000E94F8098B819FEE980F8981895F692F8D
:100700000E94B20D8B819FEE980F89818750692FCF
:100710000E94B20D9B818981692F0E94B20D8B814D
:1007200099EF980F8981692F0E94F8098B8193EFC7
:10073000980F8981692F0E94B20D8B8191EF980FDC
:100740008981692F0E94F80981E00E94F20B000064
:100750000F900F900F900F90DF91CF9108950F930E
:100760001F93CF93DF93CDB7DEB7C854D1090FB62F
:10077000F894DEBF0FBECDBF9E012B5B3F4FF9014A
:1007800091838083CE01895B9F4FFC0171836083DD
:10079000CE018B5B9F4FFC01808191819C01990F61
:1007A000440B550B80E593ECA0E0B0E0BC01CD011B
:1007B0000E942C13DA01C9019C838B83CE01895BD3
:1007C0009F4F9E01295B3F4FF9014081518164E6B3
:1007D000649F9001659F300D1124FC0131832083BB
:1007E0005BC28B819C819A83898388E390E028E3B4
:1007F00030E0F90120812F7EFC01208302C1CE016F
:10080000895B9F4F9E01295B3F4FF9012081318118
:1008100021503109FC013183208389819A8101971C
:100820009A83898380E090E0A0E2B1E489879A8787
:10083000AB87BC872BEA3AEA4AEA50E469857A85B5
:100840008B859C850E94BF12DC01CB018D879E8722
:10085000AF87B88B20E030E040E850E469857A85C6
:100860008B859C850E94BF12DC01CB01898B9A8B02
:10087000AB8BBC8B20E030E040E85FE36D857E858C
:100880008F8598890E949F1188231CF481E08D8BAD
:10089000B2C020E03FEF4FE757E469897A898B893E
:1008A0009C890E94BA1218160CF07BC020E030E040
:1008B0004AE754E469857A858B859C850E94A4115A
:1008C000DC01CB018E8B9F8BA88FB98F20E030E0AD
:1008D0004AE755E46E897F89888D998D0E94BF1201
:1008E000DC01CB018A8F9B8FAC8FBD8F20E030E085
:1008F00040E85FE36A8D7B8D8C8D9D8D0E949F11FA
:1009000088232CF481E090E09F8F8E8F3FC020E001
:100910003FEF4FE757E46A8D7B8D8C8D9D8D0E9454
:10092000BA1218164CF520E030E040E251E46E892E
:100930007F89888D998D0E94BF12DC01CB01BC019B
:10094000CD010E941612DC01CB019F8F8E8F0FC04C
:1009500080E991E099A388A388A199A10197F1F773
:1009600099A388A38E8D9F8D01979F8F8E8F8E8DDB
:100970009F8D892B69F73FC06A8D7B8D8C8D9D8DF6
:100980000E941612DC01CB019F8F8E8F8E8D9F8D62
:100990009BA38AA38AA19BA10197F1F79BA38AA39A
:1009A0002AC020E030E04FE753E46D857E858F85D7
:1009B00098890E94BA121816ACF469897A898B89D1
:1009C0009C890E941612DC01CB019DA38CA38CA1F3
:1009D0009DA19FA38EA38EA19FA10197F1F79FA335
:1009E0008EA30FC06D857E858F8598890E94161213
:1009F000DC01CB018D8B8D8988A788A58A95F1F7BD
:100A000088A7CE01895B9F4FFC0180819181892B52
:100A100029F089819A81892B09F0F1CE8B819C8103
:100A20009A83898388E390E028E330E0F90120810C
:100A30002061FC01208323C1CE01895B9F4F9E0171
:100A4000295B3F4FF9012081318121503109FC019F
:100A50003183208389819A8101979A83898380E0F9
:100A600090E0A0E2B1E48D839E83AF83B8872BEA48
:100A70003AEA4AEA50E46D817E818F8198850E942E
:100A8000BF12DC01CB0189A79AA7ABA7BCA720E0C6
:100A900030E040E850E46D817E818F8198850E942E
:100AA000BF12DC01CB018DA79EA7AFA7B8AB20E09A
:100AB00030E040E85FE369A57AA58BA59CA50E947C
:100AC0009F1188231CF481E089ABC6C020E03FEF72
:100AD0004FE757E46DA57EA58FA598A90E94BA128D
:100AE00018160CF07BC020E030E04AE754E46D813A
:100AF0007E818F8198850E94A411DC01CB018AAB95
:100B00009BABACABBDAB20E030E04AE755E46AA953
:100B10007BA98CA99DA90E94BF12DC01CB018EABE1
:100B20009FABA8AFB9AF20E030E040E85FE36EA92B
:100B30007FA988AD99AD0E949F1188232CF481E094
:100B400090E09BAF8AAF3FC020E03FEF4FE757E414
:100B50006EA97FA988AD99AD0E94BA1218164CF5FE
:100B600020E030E040E251E46AA97BA98CA99DA96C
:100B70000E94BF12DC01CB01BC01CD010E94161204
:100B8000DC01CB019BAF8AAF0FC080E991E09DAF44
:100B90008CAF8CAD9DAD0197F1F79DAF8CAF8AAD59
:100BA0009BAD01979BAF8AAF8AAD9BAD892B69F74F
:100BB00053C06EA97FA988AD99AD0E941612DC01C1
:100BC000CB019BAF8AAF8AAD9BAD9FAF8EAF8EAD91
:100BD0009FAD0197F1F79FAF8EAF3EC020E030E0B0
:100BE0004FE753E469A57AA58BA59CA50E94BA128C
:100BF00018164CF58E01005C1F4F6DA57EA58FA5C4
:100C000098A90E941612DC01CB01F8019183808320
:100C1000CE018E5B9F4F9E01205C3F4FF9012081EA
:100C20003181FC0131832083CE018E5B9F4FFC011B
:100C3000808191810197F1F79E012E5B3F4FF90171
:100C4000918380831CC069A57AA58BA59CA50E9471
:100C50001612DC01CB0189ABCE018C5B9F4F29A919
:100C6000FC012083CE018C5B9F4FFC018081282FEB
:100C70002A95F1F7CE018C5B9F4FFC012083CE01BA
:100C8000895B9F4FFC0180819181892B29F08981AB
:100C90009A81892B09F0D0CECE01895B9F4FFC0150
:100CA00080819181892B09F09CCD81E090E0C85B27
:100CB000DF4F0FB6F894DEBF0FBECDBFDF91CF91EF
:100CC0001F910F910895CF93DF9300D000D000D0F3
:100CD000CDB7DEB782E090E09A83898387E090E029
:100CE0009C838B838AEF90E00E942F1160E084E068
:100CF0000E94F80984E091E00E94620B6DE084E0BC
:100D00000E94F8098AE191E00E94620B67E182E3A8
:100D10000E94F8098EE291E00E94620B63E284E097
:100D20000E94F80985E391E00E94620B60E384E091
:100D30000E94F80989E491E00E94620B67E382E374
:100D40000E94F8098DE591E00E94620B81E390E03A
:100D500021E330E0F90120812F7EFC012083000097
:100D600080E390E0FC018081882F90E080719927DA
:100D7000892BB1F780E390E0FC018081882F90E01F
:100D800080719927892B09F058C080E293E00E9476
:100D9000E40884E090E09E838D8349C08D819E812C
:100DA000029734F18981682F82E00E9401118B81C2
:100DB000682F82E00E940111F89464E670E088E8F0
:100DC00091E00E94AF0378948981682F80E00E94AF
:100DD00001118B81682F80E00E94011189819A8125
:100DE00001969A8389838B819C8101979C838B8355
:100DF0008D819E81019791F48981682F81E00E9405
:100E000001118B81682F81E00E940111F89464E642
:100E100070E080E293E00E94AF03789484EF91E069
:100E20000E94E4088D819E8101979E838D838D8130
:100E30009E81181619060CF4B1CF80E090E00E9454
:100E40002F11000026960FB6F894DEBF0FBECDBF5F
:100E5000DF91CF91089590916500382F3170292F3F
:100E60002E7F91E09327922B9093650090916500DF
:100E70009D7F311102C020E001C022E0922B9093AF
:100E8000650090916500977F81FD02C080E001C000
:100E900088E0892B80936500809165008F7E809328
:100EA00065008FEF8ABB6BBB85E08A95F1F7000088
:100EB0008091650084608093650085E08A95F1F7F4
:100EC0000000809165008B7F8093650085E08A95A6
:100ED000F1F700001BBA1ABA089590916500382FF7
:100EE0003170292F2E7F91E09327922B90936500EC
:100EF000909165009D7F311102C020E001C022E089
:100F0000922B9093650090916500977F81FD02C0C0
:100F100080E001C088E0892B8093650080916500A6
:100F20008061809365001ABA85E08A95F1F7000028
:100F30008091650084608093650095E19A95F1F752
:100F4000000089B3909165009B7F9093650095E0C8
:100F50009A95F1F7000008950F931F93CF93909106
:100F6000B703911102C080E011C0C82FC17000E02A
:100F700010E08C2F0E946D070F5F1F4F87FF05C089
:100F80000F3F8FEF1807A9F7EECF81E0CF911F91A8
:100F90000F9108958FEF8093B7038091640088606C
:100FA00080936400809164008061809364008091EC
:100FB0006400846080936400809164008160809309
:100FC000640080916400826080936400B89A1ABAC9
:100FD00080916500877F80936500809165008F7E9A
:100FE00080936500809165008B7F80936500809180
:100FF00065008E7F80936500809165008D7F809372
:101000006500C098979B09C097988FE99FE001976A
:10101000F1F700C00000979A06C08FE99FE00197A2
:10102000F1F700C00000C09A80E00E94AC0788235E
:1010300051F081E00E94AC07882311F082E001C0EA
:1010400081E08093B7038091B7038F3F11F4109232
:10105000B7038091B70308951092C1031092C003A3
:101060001092BD031092BC031092C2031092C303EE
:101070001092C4031092C5031092B9031092B803E2
:101080001092BB031092BA038FEF93E09093BF03CB
:101090008093BE03C598C698BD9ABE9ABF9AC79A58
:1010A0001DBC1CBC8AEA8FBD82E18EBD80E094E04D
:1010B00097BD86BD87B7846087BF08951F920F9242
:1010C0000FB60F9211242F933F934F938F939F93BB
:1010D000AF93BF938091C0039091C1039C01285EA0
:1010E0003F4F283E43E0340728F43093C103209358
:1010F000C0030FC0805D93409093C1038093C003F1
:101100008091BC039091BD0301969093BD038093A1
:10111000BC038091BC039091BD039C012F5F3F4FA6
:10112000283E43E0340728F43093BD032093BC03EA
:1011300019C0875E93409093BD038093BC03809158
:10114000C2039091C303A091C403B091C50301965B
:10115000A11DB11D8093C2039093C303A093C40348
:10116000B093C5038091B8039091B9038F3F23E0FA
:10117000920710F080E094E09BBD8ABD8091BA0395
:101180009091BB038F3F43E0940710F080E094E020
:1011900099BD88BD8091BE039091BF038F3F23E02E
:1011A000920710F080E094E09093790080937800AB
:1011B000BF91AF919F918F914F913F912F910F9040
:1011C0000FBE0F901F901895009741F0EFE9FFE0D8
:1011D0003197F1F700C000000197F6CF08958FB95D
:1011E00090910104892780930104089510920204CC
:1011F0008093E30391E0980F9093E50396E9909331
:10120000010490930304F894B09903C0789400000B
:10121000FACF90EC9DB90E94EF08779A789480E01D
:101220000895B898C098BB9AC39A80E00C94F608C9
:101230001F920F920FB60F9211240BB60F922F939D
:101240003F934F935F936F937F938F939F93AF934E
:10125000BF93EF93FF938FB19091030498279093DE
:101260000304E0910204E11116C08093E1038C3184
:1012700030F01092E3031092E10381E009C0482F9F
:1012800050E02091E50330E042175307FCF08F5FF8
:101290008093E5031BC02E2F30E04091E10350E026
:1012A000421753072CF0D901AB51BC4F8C930EC0A1
:1012B000215031094217530749F4992339F080919D
:1012C000E2038F5F8093E2031092E1038091E303D6
:1012D000E81728F4F0E0EA53FC4F80810AC0E813D5
:1012E00003C08091010405C08091E503E81748F42C
:1012F0008FEF0E94EF08809102048F5F80930204B9
:1013000011C0B898C0981DB8B898C0988091E403EF
:101310008F5F8093E40378948091E1030E94240F0F
:101320000E94F608FF91EF91BF91AF919F918F912D
:101330007F916F915F914F913F912F910F900BBED5
:101340000F900FBE0F901F901895CF93DF93C82F6B
:10135000D8EBD60F883000F580E00E94AC076D2FE7
:1013600080E00E942B0780E00E94AC076C2F660F84
:10137000660F660F605C80E00E942B07C8E0D4E037
:1013800082E00E94AC07699182E00E942B0784E012
:10139000C031D807A9F720C0C85081E00E94AC072F
:1013A0006D2F81E00E942B0781E00E94AC07CC0FDB
:1013B000CC0FCC0F60E46C0F81E00E942B07C8E0DB
:1013C000D4E083E00E94AC07699183E00E942B0780
:1013D00084E0C031D807A9F7DF91CF9108958091BB
:1013E00007040895809110040895809304040895DB
:1013F000CF93DF93D82FC62F8093070460931004F8
:1014000080E00E94AC0781E00E94AC07C695C695BB
:10141000C695C8546C2F80E00E942B076C2F81E08A
:101420000E942B0780E00E94AC0781E00E94AC077D
:1014300060E4D13428F080E00E942B076D2F05C0B6
:101440006D0F80E00E942B0760E481E0DF91CF9177
:101450000C942B071F93CF93DF93182FC8EB80E0DA
:101460000E94AC0781E00E94AC076C2F80E00E94D4
:101470002B076C2F81E00E942B07D0E482E00E94B2
:10148000AC0783E00E94AC07612F82E00E942B072B
:10149000612F83E00E942B07D15081F7CF5FC03CC2
:1014A000F1F680E00E94AC0781E00E94AC0768EB97
:1014B00080E00E942B0768EB81E0DF91CF911F91C4
:1014C0000C942B070F931F93CF93DF93D82FC62F26
:1014D0008091070487FD37C011E0803408F410E0E4
:1014E000812F0E94AC0702E0010F802F0E946D0740
:1014F000802F0E946D079091040492FF02C0D09546
:101500009B7FDC23911102C0C82F04C0913021F4CD
:10151000C095C823CD2B02C0C82FCD27812F0E9494
:10152000AC07609107046064812F0E942B07812F14
:101530000E94AC076C2F802F0E942B07809107041C
:101540008F5F80930704DF91CF911F910F910895D2
:1015500090EE980F903608F080E8805296E0899FD0
:10156000F0011124EC59FE4F908180910604811105
:1015700001C09FE125E080E090FD8F5F96952150AE
:10158000D9F708957F928F929F92AF92BF92CF9298
:10159000DF92EF92FF920F931F93CF93DF93C62FAB
:1015A00090EE980F903608F080E8805226E0829FF7
:1015B000C0011124FC01EB59FE4F7F01FC01EC59E5
:1015C000FE4F908080910604811102C09FE1992E08
:1015D000AC2E0C2E000CBB086FEF70E06B010C2ED4
:1015E00001C0CC0C0A94EAF78C2C002711270A19A9
:1015F0001B09002E02C0759567950A94E2F7D62F55
:1016000085E0782E90FE15C0F7018081C7FD07C0E8
:10161000682D0A2C01C0880F0A94EAF708C090E0F0
:10162000002E02C0959587950A94E2F76D2F0E94CF
:10163000620A9694FFEFEF1AFF0A7A947110E2CFD4
:10164000C7FD02C06C2D07C06FEF70E002C075953A
:1016500067950A95E2F780E0DF91CF911F910F9196
:10166000FF90EF90DF90CF90BF90AF909F908F90C2
:101670007F900C94620A1F93CF93DF93D82F109121
:101680000704C0911004C7706C2F0E94C20ACC23BB
:10169000A9F060911004685F812F0E94F80968EF3B
:1016A0006C0F8D2F0E94C20A6091100468508091C7
:1016B0000704DF91CF911F910C94F809DF91CF912E
:1016C0001F910895CF93DF93EC018991882319F03E
:1016D0000E943B0BFACFDF91CF9108950F931F9398
:1016E000CF938C01C0E0F80181918F01882331F004
:1016F0000E94A80A8C0FC1E0C80FF5CF8C2FCF91A4
:101700001F910F910895CF93DF93EC01CE01FE015D
:101710002491222331F02196FC0184910E943B0BFD
:10172000F5CFDF91CF9108950F931F93CF938C0145
:10173000C0E0C801F8012491222351F00F5F1F4F30
:10174000FC0184910E94A80A8C0FC1E0C80FF1CF60
:101750008C2FCF911F910F91089580E00E94AC07CC
:101760006FE380E00E942B0780E00E94AC0760ECF2
:1017700080E00E942B0780E00E94AC0760E480E0DC
:101780000E942B0780E00E94AC0768EB80E00E947B
:101790002B0781E00E94AC076FE381E00E942B07DA
:1017A00081E00E94AC0760EC81E00E942B0781E0A1
:1017B0000E94AC0760E481E00E942B0781E00E9458
:1017C000AC0768EB81E00E942B0780E00E942A0AA8
:1017D00081E0809304040895809306040895809125
:1017E00006040895CF93DF93909110049770C1E0A1
:1017F00001C0CC0F9A95EAF7D82FDD2331F06C2F7A
:101800008C2F0E94620AD150F8CFDF91CF910895BA
:10181000AF92BF92CF92DF92EF92FF920F931F93FE
:10182000CF93DF93B82EC62FE090070410911004D9
:10183000812F8770DFEF01C0DD0F8A95EAF788E01E
:10184000A82ECC24CA94D12CCC2321F1812F8770CF
:101850000A2D081BC01748F4802F8C1B960102C06C
:10186000359527958A95E2F7D223FB2CFF2031F09E
:101870006D2F8D2F0E94620AFA94F8CF8C2F0C17CF
:1018800008F4802FC81B180F612F8E2D0E94F809B5
:10189000DFEFDACFDF91CF911F910F91FF90EF90A3
:1018A000DF90CF90BF90AF900895682F81E00C94A7
:1018B000080C2F923F924F925F926F927F928F927D
:1018C0009F92AF92BF92CF92DF92EF92FF920F93CF
:1018D0001F93CF93DF93482ED62F5A0130900704E1
:1018E00080901004882D87709FEF992E01C0990C6D
:1018F0008A95EAF7242D30E0C901019797FD0796F4
:1019000023E0959587952A95E1F7C1E0C80FEC2E65
:10191000F12C670133E0CC0CDD1C3A95E1F7512C3A
:1019200048E0242EDD2309F456C0882D8770722CE0
:10193000781AD71550F4872D8D1B2FEF30E002C099
:10194000359527958A95E2F79222052D070DC09FC0
:1019500080011124612C641481F1862D877059F067
:10196000E82FF0E0E85FFB4F8081692D89210E941C
:10197000620A6394F0CF962D969596959695F80108
:10198000E90FF11DEC19FD09EA0DFB1D28E030E01F
:101990004081A8E0B4E09C91969540FD90689C93AE
:1019A0004695119660E174E06A177B07A1F7EE0D8A
:1019B000FF1D2150310961F7D3CF8D2F7D1608F41B
:1019C000872DD81B880E580E682D832D0E94F8098C
:1019D00099249A94A7CFDF91CF911F910F91FF90F7
:1019E000EF90DF90CF90BF90AF909F908F907F90BF
:1019F0006F905F904F903F902F9008952F923F925D
:101A00004F925F926F927F928F929F92AF92BF920E
:101A1000CF92DF92EF92FF920F931F93CF93DF93BA
:101A2000482ED62F4A013090070400911004802FD1
:101A300087701FEF01C0110F8A95EAF7242D30E05F
:101A4000C901019797FD079623E0959587952A95FB
:101A5000E1F7C1E0C80FCC2ED12C560133E0AA0C1F
:101A6000BB1C3A95E1F7512C48E0242EDD2309F404
:101A700055C0802F8770722C781AD71550F4872D97
:101A80008D1B2FEF30E002C0359527958A95E2F740
:101A90001223E52CE70CCE9D70011124612C6414F7
:101AA00081F1862D877059F0E82FF0E0E85FFB4F59
:101AB0008081612F81230E94620A6394F0CF962D6A
:101AC000969596959695F701E90FF11DEA19FB0990
:101AD000E80DF91D28E030E04491A8E0B4E09C91C5
:101AE000969540FD90689C934695119660E174E050
:101AF0006A177B07A1F7EC0DFD1D2150310961F735
:101B0000D3CF8D2F7D1608F4872DD81B080F580EC4
:101B1000602F832D0E94F8091FEFA8CFDF91CF918E
:101B20001F910F91FF90EF90DF90CF90BF90AF90FB
:101B30009F908F907F906F905F904F903F902F90ED
:101B4000089590911004977021E030E001C0220FB9
:101B50009A95EAF7882311F0622F01C060E0822F86
:101B60000C94620ABF92CF92DF92EF92FF920F9392
:101B70001F93CF93DF93182F062FD09107048091E6
:101B80001004D1130FC0861720F4962F981B892FAD
:101B900006C0C82FC61B812F0E94F8098C2F0E94F7
:101BA000550C5AC0F82E68130DC0D11718F4812FA8
:101BB0008D1B05C0D11B812F0E94F8098D2F0E941B
:101BC000F20B4AC01D1728F4DD2ED11ACC24CA947A
:101BD00009C0D11728F4D12EDD1ACC24C39402C039
:101BE000C12CD12C081728F4C82FC01BBB24BA94D1
:101BF00009C0801728F4C02FC81BBB24B39402C0AF
:101C0000B12CC0E081E00E94A10DCD1598F4ED2C1F
:101C1000E694E194EC0EDC0D1E1414F4ED18FB0CAC
:101C20006F2D8D2F0E94F80981E00E94A10D1D13D8
:101C3000F1CF12C0EC2EE694E194ED0CFB0C1E14D7
:101C400014F4EC1ADC0D6F2D8D2F0E94F80981E041
:101C50000E94A10D0F11F1CF602F812FDF91CF9145
:101C60001F910F91FF90EF90DF90CF90BF900C9459
:101C7000F80980E00E942A0A1092050410921104CB
:101C80000895863130F4683020F460930504809321
:101C900011040895CF92DF92EF92FF920F931F935A
:101CA000CF93DF93C9EB20E1C22E24E0D22E10E0C7
:101CB000D0E007E40C0FD83050F580E00E94AC076C
:101CC0006C2F80E00E942B0780E00E94AC0760E44C
:101CD000610F80E00E942B0782E00E946D0798E070
:101CE000E92E94E0F92E82E00E946D07F7018193BE
:101CF0007F01F0E1EF16F4E0FF06A9F7602F8D2FCA
:101D00000E94A509DF5F185FD031A9F61FC081E0EE
:101D10000E94AC076C2F81E00E942B0781E00E949B
:101D2000AC07612F81E00E942B0783E00E946D07C2
:101D300088E0E82E84E0F82E83E00E946D07F7012A
:101D400081937F01CE16DF06B9F7D8CFCF5FC03CB5
:101D500009F0ADCFE8E0F4E080E194E011928E1755
:101D60009F07E1F7C0E067E08C2F0E94A509CF5FD5
:101D7000C031C9F780910504882319F08150809300
:101D80000504DF91CF911F910F91FF90EF90DF90AD
:101D9000CF9008950F931F93CF93109206048C0158
:101DA000F801C1918F01CC23B9F1CA3069F41092C6
:101DB0001104809105048F5F80930504883081F7BA
:101DC00081E00E944A0EECCFCD3051F38091110496
:101DD000853160F010921104809105048F5F80932B
:101DE0000504883019F481E00E944A0E60910504D0
:101DF000660F660F660F80911104982F990F890F57
:101E0000880F0E94F8098C2F0E943B0B80911104CF
:101E10008F5F80931104C4CFCF911F910F910895CC
:101E2000789420E137E297E0899FF0011124E85E81
:101E3000FB4F2150310919F080818F3FD1F781E0AC
:101E4000232B09F480E0089590916C049F5F909398
:101E50006C048B3141F4E6EEF3E0AFE4B4E00190C2
:101E60000D928A95E1F78FEF8093D4038093CD0391
:101E70008093C603909118049F3F69F097E0E8E1D2
:101E8000F4E0A6ECB3E001900D929A95E1F780930F
:101E9000180487E001C080E090911F049F3F79F013
:101EA000A82FB0E0AA53BC4F97E0EFE1F4E0019017
:101EB0000D929A95E1F79FEF90931F04895F90919F
:101EC00026049F3F79F0A82FB0E0AA53BC4F87E0CB
:101ED000E6E2F4E001900D928A95E1F78FEF8093AE
:101EE000260404C0811102C087E0089585E10895A9
:101EF00027E0829FC0011124FC01E85EFB4F81E0D6
:101F000090819F3F09F480E00895F894A1E3B4E044
:101F1000EFE4F4E0818190E0982F88272081820F00
:101F2000911D11969C938E93838190E0982F882722
:101F30002281820F911D13969C938E931297858117
:101F400090E0982F88272481820F911D15969C93ED
:101F50008E931497878190E0982F88272681820F8F
:101F6000911D17969C938E931697818590E0982FDC
:101F700088272085820F911D19969C938E93189720
:101F80007894F89422858091140490911504AC0102
:101F9000420F511D9385892F90E0982F8827840F39
:101FA000951F90932E0480932D0424858091120414
:101FB00090911304AC01420F511D9585892F90E03B
:101FC000982F8827840F951F90934604809345048B
:101FD000878590E0982F88272685820F911D909302
:101FE0006E0480936D04818990E0982F8827208962
:101FF000820F911D9093440480934304838990E061
:10200000982F88272289820F911D9093170480931F
:102010001604858990E0982F88272489820F911DC6
:1020200090934E0480934D047894F894808D90E0C2
:10203000982F88272789820F911D909330048093D1
:102040002F04828D90E0982F8827218D820F911D7B
:1020500090936B0480936A04789481E00895F894D7
:1020600081E08093180478940895F8948AE080932E
:102070001804789481E00895F894E8E1F4E025E00C
:1020800020838183928363837483789481E00895AD
:10209000F894E8E1F4E022E0208381839283638373
:1020A0007483789481E0089520911404309115048C
:1020B000821B930B2091120430911304621B730B4B
:1020C000F894E8E1F4E023E0208381839283638342
:1020D000748345835683789481E00895F894E8E109
:1020E000F4E024E0208381839283638374834583B7
:1020F0005683789481E008951F93CF93DF93182F30
:10210000D62FC42F82E00E94100FF894E8E1F4E08B
:1021100086E086871787D08BC18B789481E0DF912A
:10212000CF911F91089581E00895F894EFE4F4E0D1
:10213000258530E0322F22274485240F311D438529
:1021400050E0542F4427E2854E0F511DFC01E41B43
:10215000F50BF0931504E0931404AB01421B530BF1
:10216000509313044093120490932E0480932D04F3
:102170007093460460934504789481E0089581E06B
:102180000E94100FF89488E080931F04789481E0F7
:10219000089581E00E94100FF89487E080931F0457
:1021A000789481E00895CF93DF93D82FC92F81E0F1
:1021B0000E94100FF894E8E1F4E089E08783D0876B
:1021C000C187789481E0DF91CF9108958F9A979895
:1021D0008AE090E00E94E408979A84E690E00C94EC
:1021E000E40887E00E947C119093700480936F0450
:1021F0000895BF9AC79ABD9ABE9A8FEF82B984BBE1
:10220000089595B321E030E0062E01C0220F0A9414
:10221000EAF780FF02C0292B02C02095292325BBA5
:1022200023B181FF08C081E090E001C0880F6A956A
:10223000EAF7822B08C081E090E001C0880F6A9520
:10224000EAF78095822383B908959093BF03809322
:10225000BE0308958091BE039091BF0308959093AB
:10226000B9038093B80308958091B8039091B9039E
:1022700008959093BB038093BA0308958091BA03A5
:102280009091BB030895BC9A08956115710509F1F9
:10229000C4989B01281B390B6217730749F06150E2
:1022A000710945E34A95F1F7000061157105A1F741
:1022B000C49A9B01281B390B6115710531F3621714
:1022C000730719F36150710945E34A95F1F700006E
:1022D000F3CF0895E1E6F0E0908121E030E001C025
:1022E000220F8A95EAF7209592239083E2E6F0E0A8
:1022F000808128232083089590E497B997B187704F
:10230000982B97B987EC86B9369B02C00000FCCFAA
:1023100024B185B190E0982F8827820F911D2091DC
:10232000710430917204280F391F30937204209386
:1023300071040895809171049091720408950E942F
:10234000451208F481E008950E94B8110C9480129F
:102350000E94791258F00E94721240F029F45F3FF7
:1023600029F00C94691251110C94B4120C946F1250
:102370000E94911268F39923B1F3552391F3951BB1
:10238000550BBB27AA2762177307840738F09F5F96
:102390005F4F220F331F441FAA1FA9F335D00E2E03
:1023A0003AF0E0E832D091505040E695001CCAF770
:1023B0002BD0FE2F29D0660F771F881FBB1F261733
:1023C00037074807AB07B0E809F0BB0B802DBF010A
:1023D000FF2793585F4F3AF09E3F510578F00C94D9
:1023E00069120C94B4125F3FE4F3983ED4F38695DF
:1023F00077956795B795F7959F5FC9F7880F911DFA
:102400009695879597F90895E1E0660F771F881FE5
:10241000BB1F621773078407BA0720F0621B730B98
:10242000840BBA0BEE1F88F7E09508950E9499126D
:1024300088F09F5798F0B92F9927B751B0F0E1F085
:10244000660F771F881F991F1AF0BA95C9F714C035
:10245000B13091F00E94B312B1E008950C94B31220
:10246000672F782F8827B85F39F0B93FCCF386956E
:1024700077956795B395D9F73EF4909580957095CB
:1024800061957F4F8F4F9F4F0895990F0008550F0B
:10249000AA0BE0E8FEEF16161706E807F907C0F0EA
:1024A00012161306E407F50798F0621B730B840BF2
:1024B000950B39F40A2661F0232B242B252B21F4CC
:1024C00008950A2609F4A140A6958FEF811D811D6C
:1024D000089597F99F6780E870E060E008959FEFA6
:1024E00080EC089500240A941616170618060906AB
:1024F000089500240A94121613061406050608957A
:10250000092E0394000C11F4882352F0BB0F40F401
:10251000BF2B11F460FF04C06F5F7F4F8F4F9F4F41
:10252000089557FD9058440F551F59F05F3F71F0C3
:102530004795880F97FB991F61F09F3F79F087952A
:102540000895121613061406551FF2CF4695F1DFB3
:1025500008C0161617061806991FF1CF8695710543
:10256000610508940895E894BB2766277727CB0177
:1025700097F908950E94451208F48FEF08950E947C
:10258000D2120C9480120E94721238F00E947912BA
:1025900020F0952311F00C9469120C946F12112401
:1025A0000C94B4120E94911270F3959FC1F3950F91
:1025B00050E0551F629FF001729FBB27F00DB11DC7
:1025C000639FAA27F00DB11DAA1F649F6627B00D57
:1025D000A11D661F829F2227B00DA11D621F739F40
:1025E000B00DA11D621F839FA00D611D221F749F4E
:1025F0003327A00D611D231F849F600D211D822F95
:10260000762F6A2F11249F5750409AF0F1F08823BB
:102610004AF0EE0FFF1FBB1F661F771F881F9150E8
:102620005040A9F79E3F510580F00C9469120C941C
:10263000B4125F3FE4F3983ED4F38695779567959F
:10264000B795F795E7959F5FC1F7FE2B880F911D12
:102650009695879597F90895052E97FB1EF400949B
:102660000E94431357FD07D00E944B1307FC03D071
:102670004EF40C94431350954095309521953F4F5F
:102680004F4F5F4F089590958095709561957F4F5E
:102690008F4F9F4F0895A1E21A2EAA1BBB1BFD016D
:1026A0000DC0AA1FBB1FEE1FFF1FA217B307E40731
:1026B000F50720F0A21BB30BE40BF50B661F771F89
:1026C000881F991F1A9469F7609570958095909569
:1026D0009B01AC01BD01CF0108958F929F92AF92F3
:1026E000BF92CF92DF92EF92FF92CF93DF93EC01F4
:1026F000688179818A819B816115710581059105C8
:1027000021F464E279ED8BE597E02DE133EF41E0D0
:1027100050E00E942C1349015A019B01AC01A7EA29
:10272000B1E40E94C7136B017C01ACEEB4EFA501CC
:1027300094010E94D513DC01CB018C0D9D1DAE1DB3
:10274000BF1DB7FF03C00197A109B04888839983D3
:10275000AA83BB839F77DF91CF91FF90EF90DF90AB
:10276000CF90BF90AF909F908F9008950C946D1371
:1027700080E091E00C946D13A0E0B0E08093000144
:1027800090930101A0930201B093030108950E9468
:10279000DA13A59F900DB49F900DA49F800D911DFD
:1027A00011240895B7FF0C94C7130E94C713821B0E
:1027B000930B0895A29FB001B39FC001A39F700D1A
:1027C000811D1124911DB29F700D811D1124911D39
:0627D0000895F894FFCF0C
:1027D60001000000546F2073746172742074686580
:1027E6002070726F6772616D2C0050726573732072
:1027F60074686520533320627574746F6E002D2DD6
:102806002D2D2D3E00546F2073746F7020746865F3
:102816002070726F6772616D0050726573732074F9
:10282600686520533220627574746F6E003C2D2DDE
:102836002D2D2D000300000000000400005F0000A5
:102846000E00070007001F147F147F141F242A7F21
:102856002A121F23130864621F36495522500600A8
:10286600050300000E001C2241000E0041221C0040
:102876001F14083E08141F08083E08080600A0603A
:1028860000000F08080808080600606000000E0037
:10289600601C03001F3E5149453E0E00427F40002A
:1028A6001F42615149461D2141454B311F181412E3
:1028B6007F101D2745454539173C4A4949301E01B9
:1028C600710905031D36494949361D064949291E20
:1028D6000600363600000600AC6C00000F08142215
:1028E60041000F14141414141E00412214081F0270
:1028F600015109061F324979413E1F7C1211127C93
:10290600177F49494936173E414141221F7F4141C0
:10291600221C177F49494941177F09090901173EBA
:102926004149497A177F0808087F0E00417F410018
:102936001F2040413F011F7F08142241177F40405E
:1029460040401F7F020C027F1F7F0408107F173E46
:102956004141413E177F09090906173E414141BEE3
:102966001D7F091929461746494949311F01017F2B
:102976000101173F4040403F1F1F2040201F1F3FBF
:102986004038403F1F63140814631F070870080788
:102996001F61514945430E007F4141000E00031C53
:1029A60060000E0041417F000E04020102041F4038
:1029B600404040400C000003040017205454547853
:1029C600177F484444381738444444201D3844444B
:1029D600487F17385454541817087E0901021718EF
:1029E600A4A4A478177F080404780E00447D400050
:1029F6000D4080847D000F7F102844000E00417F2B
:102A060040001F7C04780478177C08040478173883
:102A16004444443817FC242424181718242424FC7E
:102A2600177C0804040817485454542017043F44DC
:102A360040201D3C4040207C1F1C2040201C1F3C89
:102A46004030403C1F4428102844171CA0A0A07CFE
:102A56001F4464544C440E00083641000400007FB5
:102A660000000E00413608001F02010204021FAAE0
:042A760055AA55AA5E
:0400000300000CC627
:00000001FF
