:100000000C9449000C9468000C9468000C946800EF
:100010000C9468000C9468000C9468000C946800C0
:100020000C9468000C9468000C9468000C946800B0
:100030000C9468000C9468000C94A1080C9468005F
:100040000C9468000C945B090C9468000C94680094
:100050000C9468000C9468000C9468000C94680080
:100060000C9468000C9468000C9468000C94680070
:100070000C9468000C9468000C9468000C94680060
:100080000C9468000C9468000C946800322E313196
:10009000000011241FBECFEFD0E1DEBFCDBF13E0C3
:1000A000A0E0B1E0E6E3FDE200E00BBF02C0079094
:1000B0000D92A63DB107D9F724E0A6EDB3E001C04B
:1000C0001D92A53AB207E1F70E941D030C94991600
:1000D0000C940000CF93DF93CDB7DEB7A8970FB68F
:1000E000F894DEBF0FBECDBF1A82198222E1CE0185
:1000F0000396FC01322F11923A95E9F71E8A1D8A68
:1001000022E1CE014796FC01322F11923A95E9F790
:100110000E94C80F0E940C110E94D3020E94780313
:10012000809163049091640481159343C0F18091A0
:100130006704909168048115934388F180916B0462
:1001400090916C048115934350F181E090E090937D
:10015000D7038093D6038091D6039091D703292F9C
:100160002F938F9380E091E0892F8F9380E091E02F
:100170008F93CE0101969F938F930E94B0130F909F
:100180000F900F900F900F900F9068E280E00E9408
:100190003B0ACE0101960E94A50B0E9409038091A3
:1001A0006304909164048115934308F452C08091D4
:1001B0006B0490916C048115934308F44AC08091BC
:1001C000D8039091D90301969093D9038093D803D3
:1001D0008091D8039091D903292F2F938F938FE08B
:1001E00091E0892F8F938FE091E08F93CE0101965C
:1001F0009F938F930E94B0130F900F900F900F90CA
:100200000F900F9060E080E00E943B0ACE010196C3
:100210000E94A50B8091D6039091D703019711F509
:100220008091D8039091D9030696E1F00E940903CA
:1002300041E050E060E070E082E70E94400380917E
:10024000D8039091D90301979093D9038093D80351
:1002500009C060E080E00E94441161E080E00E94FB
:10026000441101C0000080916304909164048115E1
:100270009343C8F180916B0490916C048115924373
:1002800090F58091D6039091D703019761F50E9474
:10029000E1028091D6039091D703292F2F938F935A
:1002A00089E191E0892F8F9389E191E08F93CE01CD
:1002B0004596292F2F938F930E94B0130F900F9084
:1002C0000F900F900F900F9068E280E00E943B0A21
:1002D000CE0145960E94A50B41E050E060E070E041
:1002E00087E60E94400380916B0490916C04811515
:1002F0009343C8F180916304909164048115924303
:1003000090F58091D6039091D703019761F50E94F3
:10031000F5028091D6039091D703292F2F938F93C5
:1003200089E191E0892F8F9389E191E08F93CE014C
:100330004596292F2F938F930E94B0130F900F9003
:100340000F900F900F900F9068E280E00E943B0AA0
:10035000CE0145960E94A50B41E050E060E070E0C0
:1003600087E60E94400380916304909164048115A4
:10037000934308F43EC08091650490916604811512
:100380009343B8F180916704909168048115934379
:1003900080F18091690490916A048115924348F537
:1003A00080916B0490916C048115924310F58091BB
:1003B000D6039091D703892BE1F447E050E065E044
:1003C00070E082E70E94400362E370E088E290E020
:1003D0000E94A0036EE170E088E290E00E94A0031A
:1003E00062E370E081E490E00E94A0030E94E102D9
:1003F00007C047E050E065E070E087E60E944003F8
:10040000809165049091660481159343E8F0809192
:1004100063049091640481159243B0F48091D603F3
:100420009091D703892B81F446E050E066E070E0BC
:1004300082E70E94400362E370E088E290E00E945D
:10044000A0030E94E10207C046E050E066E070E0D1
:1004500087E60E94400380916B0490916C048115A3
:10046000934308F43EC08091690490916A04811519
:100470009343B8F180916704909168048115934388
:1004800080F180916504909166048115924348F54E
:1004900080916304909164048115924310F58091DA
:1004A000D6039091D703892BE1F444E050E062E059
:1004B00070E082E70E94400362E370E08AE590E02A
:1004C0000E94A0036EE170E08AE590E00E94A00324
:1004D00062E370E081E490E00E94A0030E94F502D4
:1004E00007C044E050E062E070E087E60E9440030D
:1004F0008091690490916A0481159343E8F080919A
:100500006B0490916C0481159243B0F48091D603F2
:100510009091D703892B81F443E050E063E070E0D1
:1005200082E70E94400362E370E085E590E00E946C
:10053000A0030E94F50207C043E050E063E070E0D2
:1005400087E60E94400380916304909164048115C2
:100550009243C0F48091670490916804811593439D
:1005600088F080916B0490916C048115924350F453
:1005700045E050E064E070E082E70E9440030E94A2
:10058000E10207C045E050E064E070E087E60E94C9
:1005900040030000A8960FB6F894DEBF0FBECDBF93
:1005A000DF91CF910895CF93DF93CDB7DEB76AE0A7
:1005B00070E08AE090E00E948B100000DF91CF9104
:1005C0000895CF93DF93CDB7DEB76AE070E086EF92
:1005D0009FEF0E948B1060E070E080E090E00E944E
:1005E000D8100000DF91CF910895CF93DF93CDB75E
:1005F000DEB766EF7FEF8AE090E00E948B1060E04C
:1006000070E080E090E00E94D8100000DF91CF9170
:100610000895CF93DF93CDB7DEB766EF7FEF86EF18
:100620009FEF0E948B1060E070E080E090E00E94FD
:10063000D8100000DF91CF910895CF93DF93CDB70D
:10064000DEB778940E9429110E9454090E948611F5
:100650000E943C110E946F080E940D080E94F00B3E
:100660000E940C1180E090E00E94721180E00E94D4
:100670006D0A0E946A0080E293E00E942709F6CF8B
:10068000CF93DF93CDB7DEB727970FB6F894DEBFD1
:100690000FBECDBF8B837D836C835F834E838C8144
:1006A0009D819A83898313C08B81823731F489813C
:1006B000682F82E00E94441105C08981682F81E083
:1006C0000E94441189819A8101969A8389832981A4
:1006D0003A818E819F818217930734F70000279615
:1006E0000FB6F894DEBF0FBECDBFDF91CF91089556
:1006F000CF93DF93CDB7DEB76CE085E30E943B0A72
:1007000066E084E00E944B0C6CE08BE40E943B0AA4
:1007100066E084E00E944B0C6EE08BE30E943B0A93
:1007200066E08EE00E944B0C66E18BE30E943B0A80
:1007300063E08EE00E944B0C0000DF91CF910895A2
:10074000CF93DF9300D000D0CDB7DEB79A838983F3
:100750007C836B839B818981692F0E943B0A8B81FB
:100760009FEE980F8981895F692F0E94F50D8B811B
:100770009FEE980F89818750692F0E94F50D9B810C
:100780008981692F0E94F50D8B8199EF980F8981DE
:10079000692F0E943B0A8B8193EF980F8981692F03
:1007A0000E94F50D8B8191EF980F8981692F0E942E
:1007B0003B0A81E00E94350C00000F900F900F90D3
:1007C0000F90DF91CF9108950F931F93CF93DF93F5
:1007D000CDB7DEB7C854D1090FB6F894DEBF0FBE4F
:1007E000CDBF9E012B5B3F4FF90191838083CE01EA
:1007F000895B9F4FFC0171836083CE018B5B9F4FB0
:10080000FC01808191819C01990F440B550B80E57F
:1008100093ECA0E0B0E0BC01CD010E946F13DA01BF
:10082000C9019C838B83CE01895B9F4F9E01295B0D
:100830003F4FF9014081518164E6649F9001659FBB
:10084000300D1124FC01318320835BC28B819C819C
:100850009A83898388E390E028E330E0F9012081DE
:100860002F7EFC01208302C1CE01895B9F4F9E0138
:10087000295B3F4FF9012081318121503109FC0171
:100880003183208389819A8101979A83898380E0CB
:1008900090E0A0E2B1E489879A87AB87BC872BEA16
:1008A0003AEA4AEA50E469857A858B859C850E94FC
:1008B0000213DC01CB018D879E87AF87B88B20E0C8
:1008C00030E040E850E469857A858B859C850E94FC
:1008D0000213DC01CB01898B9A8BAB8BBC8B20E0A4
:1008E00030E040E85FE36D857E858F8598890E94C2
:1008F000E21188231CF481E08D8BB2C020E03FEF31
:100900004FE757E469897A898B899C890E94FD1297
:1009100018160CF07BC020E030E04AE754E469850B
:100920007A858B859C850E94E711DC01CB018E8B3B
:100930009F8BA88FB98F20E030E04AE755E46E899D
:100940007F89888D998D0E940213DC01CB018A8FEB
:100950009B8FAC8FBD8F20E030E040E85FE36A8D75
:100960007B8D8C8D9D8D0E94E21188232CF481E07B
:1009700090E09F8F8E8F3FC020E03FEF4FE757E41E
:100980006A8D7B8D8C8D9D8D0E94FD1218164CF505
:1009900020E030E040E251E46E897F89888D998DB6
:1009A0000E940213DC01CB01BC01CD010E9459124F
:1009B000DC01CB019F8F8E8F0FC080E991E099A35E
:1009C00088A388A199A10197F1F799A388A38E8D97
:1009D0009F8D01979F8F8E8F8E8D9F8D892B69F7AD
:1009E0003FC06A8D7B8D8C8D9D8D0E945912DC01DC
:1009F000CB019F8F8E8F8E8D9F8D9BA38AA38AA103
:100A00009BA10197F1F79BA38AA32AC020E030E0C5
:100A10004FE753E46D857E858F8598890E94FD128E
:100A20001816ACF469897A898B899C890E945912BD
:100A3000DC01CB019DA38CA38CA19DA19FA38EA3C0
:100A40008EA19FA10197F1F79FA38EA30FC06D8583
:100A50007E858F8598890E945912DC01CB018D8B90
:100A60008D8988A788A58A95F1F788A7CE01895B2B
:100A70009F4FFC0180819181892B29F089819A8186
:100A8000892B09F0F1CE8B819C819A83898388E33D
:100A900090E028E330E0F90120812061FC0120830F
:100AA00023C1CE01895B9F4F9E01295B3F4FF90116
:100AB0002081318121503109FC01318320838981DA
:100AC0009A8101979A83898380E090E0A0E2B1E463
:100AD0008D839E83AF83B8872BEA3AEA4AEA50E4D3
:100AE0006D817E818F8198850E940213DC01CB018C
:100AF00089A79AA7ABA7BCA720E030E040E850E464
:100B00006D817E818F8198850E940213DC01CB016B
:100B10008DA79EA7AFA7B8AB20E030E040E85FE329
:100B200069A57AA58BA59CA50E94E21188231CF4D7
:100B300081E089ABC6C020E03FEF4FE757E46DA5E9
:100B40007EA58FA598A90E94FD1218160CF07BC0F7
:100B500020E030E04AE754E46D817E818F81988502
:100B60000E94E711DC01CB018AAB9BABACABBDAB08
:100B700020E030E04AE755E46AA97BA98CA99DA949
:100B80000E940213DC01CB018EAB9FABA8AFB9AFC3
:100B900020E030E040E85FE36EA97FA988AD99AD21
:100BA0000E94E21188232CF481E090E09BAF8AAF91
:100BB0003FC020E03FEF4FE757E46EA97FA988AD23
:100BC00099AD0E94FD1218164CF520E030E040E28D
:100BD00051E46AA97BA98CA99DA90E940213DC019A
:100BE000CB01BC01CD010E945912DC01CB019BAFAE
:100BF0008AAF0FC080E991E09DAF8CAF8CAD9DAD09
:100C00000197F1F79DAF8CAF8AAD9BAD01979BAF7C
:100C10008AAF8AAD9BAD892B69F753C06EA97FA9B6
:100C200088AD99AD0E945912DC01CB019BAF8AAF10
:100C30008AAD9BAD9FAF8EAF8EAD9FAD0197F1F7A3
:100C40009FAF8EAF3EC020E030E04FE753E469A590
:100C50007AA58BA59CA50E94FD1218164CF58E0155
:100C6000005C1F4F6DA57EA58FA598A90E94591203
:100C7000DC01CB01F80191838083CE018E5B9F4F15
:100C80009E01205C3F4FF90120813181FC013183BD
:100C90002083CE018E5B9F4FFC0180819181019763
:100CA000F1F79E012E5B3F4FF901918380831CC0B9
:100CB00069A57AA58BA59CA50E945912DC01CB01E0
:100CC00089ABCE018C5B9F4F29A9FC012083CE010B
:100CD0008C5B9F4FFC018081282F2A95F1F7CE0174
:100CE0008C5B9F4FFC012083CE01895B9F4FFC01F1
:100CF00080819181892B29F089819A81892B09F042
:100D0000D0CECE01895B9F4FFC0180819181892BE0
:100D100009F09CCD81E090E0C85BDF4F0FB6F894FE
:100D2000DEBF0FBECDBFDF91CF911F910F91089510
:100D3000CF93DF9300D000D000D0CDB7DEB782E0F4
:100D400090E09A83898387E090E09C838B838AEF8D
:100D500090E00E94721160E084E00E943B0A88E209
:100D600091E00E94A50B6DE084E00E943B0A8EE3B7
:100D700091E00E94A50B67E182E30E943B0A82E5B5
:100D800091E00E94A50B63E284E00E943B0A89E5A2
:100D900091E00E94A50B60E384E00E943B0A8DE68F
:100DA00091E00E94A50B67E382E30E943B0A81E881
:100DB00091E00E94A50B81E390E021E330E0F9018E
:100DC00020812F7EFC012083000080E390E0FC0165
:100DD0008081882F90E080719927892BB1F780E37B
:100DE00090E0FC018081882F90E080719927892B09
:100DF00009F06AC080E293E00E94270984E090E055
:100E00009E838D835BC08D819E810297C4F1898111
:100E10009A81292F2F938F9388E891E0892F8F93C0
:100E200088E891E08F930E94B0130F900F900F907D
:100E30000F908981682F82E00E9444118B81682F76
:100E400082E00E944411F89464E670E088E891E042
:100E50000E94E40378948981682F80E00E94441105
:100E60008B81682F80E00E94441189819A810196CC
:100E70009A8389838B819C8101979C838B838D814D
:100E80009E81019791F48981682F81E00E9444112D
:100E90008B81682F81E00E944411F89464E670E031
:100EA00080E293E00E94E403789484EF91E00E9452
:100EB00027098D819E8101979E838D838D819E81DF
:100EC000181619060CF49FCF000026960FB6F8945A
:100ED000DEBF0FBECDBFDF91CF9108959091650029
:100EE000382F3170292F2E7F91E09327922B9093EA
:100EF0006500909165009D7F311102C020E001C026
:100F000022E0922B9093650090916500977F81FD80
:100F100002C080E001C088E0892B80936500809149
:100F200065008F7E809365008FEF8ABB6BBB85E089
:100F30008A95F1F7000080916500846080936500D8
:100F400085E08A95F1F70000809165008B7F8093A2
:100F5000650085E08A95F1F700001BBA1ABA08957A
:100F600090916500382F3170292F2E7F91E09327C3
:100F7000922B90936500909165009D7F311102C086
:100F800020E001C022E0922B9093650090916500D3
:100F9000977F81FD02C080E001C088E0892B8093AB
:100FA0006500809165008061809365001ABA85E0D4
:100FB0008A95F1F700008091650084608093650058
:100FC00095E19A95F1F7000089B3909165009B7FB8
:100FD0009093650095E09A95F1F7000008950F93BE
:100FE0001F93CF939091E903911102C080E011C04B
:100FF000C82FC17000E010E08C2F0E94B0070F5F77
:101000001F4F87FF05C00F3F8FEF1807A9F7EECFDF
:1010100081E0CF911F910F9108958FEF8093E903A5
:101020008091640088608093640080916400806196
:101030008093640080916400846080936400809158
:10104000640081608093640080916400826080937A
:101050006400B89A1ABA80916500877F8093650012
:10106000809165008F7E80936500809165008B7F05
:1010700080936500809165008E7F809365008091EC
:1010800065008D7F80936500C098979B09C09798F5
:101090008FE99FE00197F1F700C00000979A06C022
:1010A0008FE99FE00197F1F700C00000C09A80E04F
:1010B0000E94EF07882351F081E00E94EF07882308
:1010C00011F082E001C081E08093E9038091E9039F
:1010D0008F3F11F41092E9038091E9030895109273
:1010E000F3031092F2031092EF031092EE031092AA
:1010F000F4031092F5031092F6031092F703109286
:10110000EB031092EA031092ED031092EC038FEFC1
:1011100093E09093F1038093F003C598C698BD9A2D
:10112000BE9ABF9AC79A1DBC1CBC8AEA8FBD82E1D9
:101130008EBD80E094E097BD86BD87B7846087BF91
:1011400008951F920F920FB60F9211242F933F9381
:101150004F938F939F93AF93BF938091F20390919E
:10116000F3039C01285E3F4F283E43E0340728F4F8
:101170003093F3032093F2030FC0805D934090936C
:10118000F3038093F2038091EE039091EF030196B5
:101190009093EF038093EE038091EE039091EF0321
:1011A0009C012F5F3F4F283E43E0340728F43093E3
:1011B000EF032093EE0319C0875E93409093EF03F3
:1011C0008093EE038091F4039091F503A091F603D0
:1011D000B091F7030196A11DB11D8093F403909384
:1011E000F503A093F603B093F7038091EA0390917F
:1011F000EB038F3F23E0920710F080E094E09BBD6B
:101200008ABD8091EC039091ED038F3F43E09407FA
:1012100010F080E094E099BD88BD8091F00390913A
:10122000F1038F3F23E0920710F080E094E0909369
:10123000790080937800BF91AF919F918F914F91EA
:101240003F912F910F900FBE0F901F901895009710
:1012500041F0EFE9FFE03197F1F700C0000001979E
:10126000F6CF08958FB99091330489278093330482
:101270000895109234048093150491E0980F909390
:10128000170496E99093330490933504F894B09939
:1012900003C078940000FACF90EC9DB90E94320907
:1012A000779A789480E00895B898C098BB9AC39ACA
:1012B00080E00C9439091F920F920FB60F921124FF
:1012C0000BB60F922F933F934F935F936F937F9340
:1012D0008F939F93AF93BF93EF93FF938FB19091B1
:1012E0003504982790933504E0913404E11116C039
:1012F000809313048C3130F0109215041092130473
:1013000081E009C0482F50E02091170430E04217D7
:101310005307FCF08F5F809317041BC02E2F30E023
:101320004091130450E0421753072CF0D901A95EF5
:10133000BB4F8C930EC0215031094217530749F41B
:10134000992339F0809114048F5F809314041092D4
:10135000130480911504E81728F4F0E0E850FC4FDE
:1013600080810AC0E81303C08091330405C08091D6
:101370001704E81748F48FEF0E9432098091340473
:101380008F5F8093340411C0B898C0981DB8B89886
:10139000C098809116048F5F809316047894809192
:1013A00013040E94670F0E943909FF91EF91BF91CA
:1013B000AF919F918F917F916F915F914F913F91ED
:1013C0002F910F900BBE0F900FBE0F901F9018958E
:1013D000CF93DF93C82FD8EBD60F883000F580E08D
:1013E0000E94EF076D2F80E00E946E0780E00E9450
:1013F000EF076C2F660F660F660F605C80E00E943F
:101400006E07CAE3D4E082E00E94EF07699182E0B0
:101410000E946E0784E0C234D807A9F720C0C850E4
:1014200081E00E94EF076D2F81E00E946E0781E04E
:101430000E94EF07CC0FCC0FCC0F60E46C0F81E063
:101440000E946E07CAE3D4E083E00E94EF0769912F
:1014500083E00E946E0784E0C234D807A9F7DF91C9
:10146000CF910895809139040895809142040895A0
:10147000809336040895CF93DF93D82FC62F80939F
:1014800039046093420480E00E94EF0781E00E94EB
:10149000EF07C695C695C695C8546C2F80E00E948C
:1014A0006E076C2F81E00E946E0780E00E94EF07BC
:1014B00081E00E94EF0760E4D13428F080E00E94D0
:1014C0006E076D2F05C06D0F80E00E946E0760E40F
:1014D00081E0DF91CF910C946E071F93CF93DF9340
:1014E000182FC8EB80E00E94EF0781E00E94EF0711
:1014F0006C2F80E00E946E076C2F81E00E946E07C7
:10150000D0E482E00E94EF0783E00E94EF07612FA2
:1015100082E00E946E07612F83E00E946E07D15027
:1015200081F7CF5FC03CF1F680E00E94EF0781E0D9
:101530000E94EF0768EB80E00E946E0768EB81E095
:10154000DF91CF911F910C946E070F931F93CF9350
:10155000DF93D82FC62F8091390487FD37C011E063
:10156000803408F410E0812F0E94EF0702E0010FA1
:10157000802F0E94B007802F0E94B0079091360400
:1015800092FF02C0D0959B7FDC23911102C0C82F2F
:1015900004C0913021F4C095C823CD2B02C0C82FC0
:1015A000CD27812F0E94EF07609139046064812F5D
:1015B0000E946E07812F0E94EF076C2F802F0E94E0
:1015C0006E07809139048F5F80933904DF91CF914A
:1015D0001F910F91089590EE980F903608F080E8D3
:1015E000805296E0899FF0011124EA56FE4F9081C7
:1015F00080913804811101C09FE125E080E090FDD9
:101600008F5F96952150D9F708957F928F929F9280
:10161000AF92BF92CF92DF92EF92FF920F931F9300
:10162000CF93DF93C62F90EE980F903608F080E8A6
:10163000805226E0829FC0011124FC01E956FE4F32
:101640007F01FC01EA56FE4F9080809138048111A1
:1016500002C09FE1992EAC2E0C2E000CBB086FEF40
:1016600070E06B010C2E01C0CC0C0A94EAF78C2CB4
:10167000002711270A191B09002E02C075956795CE
:101680000A94E2F7D62F85E0782E90FE15C0F70178
:101690008081C7FD07C0682D0A2C01C0880F0A94FD
:1016A000EAF708C090E0002E02C0959587950A944D
:1016B000E2F76D2F0E94A50A9694FFEFEF1AFF0A3A
:1016C0007A947110E2CFC7FD02C06C2D07C06FEF96
:1016D00070E002C0759567950A95E2F780E0DF91AA
:1016E000CF911F910F91FF90EF90DF90CF90BF901F
:1016F000AF909F908F907F900C94A50A1F93CF93EB
:10170000DF93D82F10913904C0914204C7706C2F19
:101710000E94050BCC23A9F060914204685F812FE1
:101720000E943B0A68EF6C0F8D2F0E94050B6091A1
:101730004204685080913904DF91CF911F910C943D
:101740003B0ADF91CF911F910895CF93DF93EC0176
:101750008991882319F00E947E0BFACFDF91CF91F7
:1017600008950F931F93CF938C01C0E0F8018191EE
:101770008F01882331F00E94EB0A8C0FC1E0C80F63
:10178000F5CF8C2FCF911F910F910895CF93DF93B9
:10179000EC01CE01FE012491222331F02196FC01BF
:1017A00084910E947E0BF5CFDF91CF9108950F9326
:1017B0001F93CF938C01C0E0C801F801249122232C
:1017C00051F00F5F1F4FFC0184910E94EB0A8C0FB8
:1017D000C1E0C80FF1CF8C2FCF911F910F910895C9
:1017E00080E00E94EF076FE380E00E946E0780E0D8
:1017F0000E94EF0760EC80E00E946E0780E00E948C
:10180000EF0760E480E00E946E0780E00E94EF072F
:1018100068EB80E00E946E0781E00E94EF076FE3B3
:1018200081E00E946E0781E00E94EF0760EC81E09A
:101830000E946E0781E00E94EF0760E481E00E9451
:101840006E0781E00E94EF0768EB81E00E946E075F
:1018500080E00E946D0A81E08093360408958093B1
:1018600038040895809138040895CF93DF939091C0
:1018700042049770C1E001C0CC0F9A95EAF7D82FC7
:10188000DD2331F06C2F8C2F0E94A50AD150F8CFA8
:10189000DF91CF910895AF92BF92CF92DF92EF92F6
:1018A000FF920F931F93CF93DF93B82EC62FE09034
:1018B000390410914204812F8770DFEF01C0DD0FE2
:1018C0008A95EAF788E0A82ECC24CA94D12CCC23A0
:1018D00021F1812F87700A2D081BC01748F4802F33
:1018E0008C1B960102C0359527958A95E2F7D22385
:1018F000FB2CFF2031F06D2F8D2F0E94A50AFA944A
:10190000F8CF8C2F0C1708F4802FC81B180F612FED
:101910008E2D0E943B0ADFEFDACFDF91CF911F912E
:101920000F91FF90EF90DF90CF90BF90AF90089510
:10193000682F81E00C944B0C2F923F924F925F9254
:101940006F927F928F929F92AF92BF92CF92DF92CF
:10195000EF92FF920F931F93CF93DF93482ED62FD2
:101960005A013090390480904204882D87709FEF8F
:10197000992E01C0990C8A95EAF7242D30E0C9010F
:10198000019797FD079623E0959587952A95E1F7AE
:10199000C1E0C80FEC2EF12C670133E0CC0CDD1C4C
:1019A0003A95E1F7512C48E0242EDD2309F456C086
:1019B000882D8770722C781AD71550F4872D8D1BBF
:1019C0002FEF30E002C0359527958A95E2F79222F5
:1019D000052D070DC09F80011124612C641481F135
:1019E000862D877059F0E82FF0E0E65CFB4F808190
:1019F000692D89210E94A50A6394F0CF962D9695B2
:101A000096959695F801E90FF11DEC19FD09EA0D7F
:101A1000FB1D28E030E04081AAE3B4E09C9196955C
:101A200040FD90689C934695119662E474E06A17B5
:101A30007B07A1F7EE0DFF1D2150310961F7D3CFD0
:101A40008D2F7D1608F4872DD81B880E580E682D13
:101A5000832D0E943B0A99249A94A7CFDF91CF91BE
:101A60001F910F91FF90EF90DF90CF90BF90AF90BC
:101A70009F908F907F906F905F904F903F902F90AE
:101A800008952F923F924F925F926F927F928F9222
:101A90009F92AF92BF92CF92DF92EF92FF920F93FD
:101AA0001F93CF93DF93482ED62F4A0130903904ED
:101AB00000914204802F87701FEF01C0110F8A959B
:101AC000EAF7242D30E0C901019797FD079623E03E
:101AD000959587952A95E1F7C1E0C80FCC2ED12CBA
:101AE000560133E0AA0CBB1C3A95E1F7512C48E0B3
:101AF000242EDD2309F455C0802F8770722C781AAC
:101B0000D71550F4872D8D1B2FEF30E002C035958F
:101B100027958A95E2F71223E52CE70CCE9D7001FC
:101B20001124612C641481F1862D877059F0E82FFF
:101B3000F0E0E65CFB4F8081612F81230E94A50AC3
:101B40006394F0CF962D969596959695F701E90FAB
:101B5000F11DEA19FB09E80DF91D28E030E0449178
:101B6000AAE3B4E09C91969540FD90689C934695BD
:101B7000119662E474E06A177B07A1F7EC0DFD1D76
:101B80002150310961F7D3CF8D2F7D1608F4872DB1
:101B9000D81B080F580E602F832D0E943B0A1FEFA1
:101BA000A8CFDF91CF911F910F91FF90EF90DF9021
:101BB000CF90BF90AF909F908F907F906F905F90ED
:101BC0004F903F902F90089590914204977021E09C
:101BD00030E001C0220F9A95EAF7882311F0622FB6
:101BE00001C060E0822F0C94A50ABF92CF92DF92D1
:101BF000EF92FF920F931F93CF93DF93182F062F2F
:101C0000D091390480914204D1130FC0861720F47B
:101C1000962F981B892F06C0C82FC61B812F0E94A4
:101C20003B0A8C2F0E94980C5AC0F82E68130DC0E6
:101C3000D11718F4812F8D1B05C0D11B812F0E9455
:101C40003B0A8D2F0E94350C4AC01D1728F4DD2E4B
:101C5000D11ACC24CA9409C0D11728F4D12EDD1A88
:101C6000CC24C39402C0C12CD12C081728F4C82F4F
:101C7000C01BBB24BA9409C0801728F4C02FC81B0E
:101C8000BB24B39402C0B12CC0E081E00E94E40DFB
:101C9000CD1598F4ED2CE694E194EC0EDC0D1E14B9
:101CA00014F4ED18FB0C6F2D8D2F0E943B0A81E080
:101CB0000E94E40D1D13F1CF12C0EC2EE694E194C6
:101CC000ED0CFB0C1E1414F4EC1ADC0D6F2D8D2F93
:101CD0000E943B0A81E00E94E40D0F11F1CF602FBA
:101CE000812FDF91CF911F910F91FF90EF90DF90A7
:101CF000CF90BF900C943B0A80E00E946D0A109236
:101D00003704109243040895863130F4683020F48B
:101D100060933704809343040895CF92DF92EF924B
:101D2000FF920F931F93CF93DF93C9EB22E4C22E50
:101D300024E0D22E10E0D0E007E40C0FD83050F5AC
:101D400080E00E94EF076C2F80E00E946E0780E029
:101D50000E94EF0760E4610F80E00E946E0782E05E
:101D60000E94B0079AE3E92E94E0F92E82E00E94E7
:101D7000B007F70181937F01F2E4EF16F4E0FF066C
:101D8000A9F7602F8D2F0E94E809DF5F185FD0311F
:101D9000A9F61FC081E00E94EF076C2F81E00E942E
:101DA0006E0781E00E94EF07612F81E00E946E07BD
:101DB00083E00E94B0078AE3E82E84E0F82E83E0F7
:101DC0000E94B007F70181937F01CE16DF06B9F7B5
:101DD000D8CFCF5FC03C09F0ADCFEAE3F4E082E4B6
:101DE00094E011928E179F07E1F7C0E067E08C2F17
:101DF0000E94E809CF5FC031C9F78091370488237A
:101E000019F0815080933704DF91CF911F910F918A
:101E1000FF90EF90DF90CF9008950F931F93CF9393
:101E2000109238048C01F801C1918F01CC23B9F1D3
:101E3000CA3069F410924304809137048F5F809315
:101E40003704883081F781E00E948D0EECCFCD30D1
:101E500051F380914304853160F0109243048091E6
:101E600037048F5F80933704883019F481E00E9433
:101E70008D0E60913704660F660F660F80914304E4
:101E8000982F990F890F880F0E943B0A8C2F0E9470
:101E90007E0B809143048F5F80934304C4CFCF9126
:101EA0001F910F910895789420E137E297E0899F80
:101EB000F0011124E65BFB4F2150310919F08081BC
:101EC0008F3FD1F781E0232B09F480E008959091B2
:101ED0009E049F5F90939E048B3141F4E8E1F4E00F
:101EE000A1E8B4E001900D928A95E1F78FEF80931D
:101EF00006048093FF038093F80390914A049F3F68
:101F000069F097E0EAE4F4E0A8EFB3E001900D9205
:101F10009A95E1F780934A0487E001C080E09091B0
:101F200051049F3F79F0A82FB0E0A850BC4F97E034
:101F3000E1E5F4E001900D929A95E1F79FEF90931F
:101F40005104895F909158049F3F79F0A82FB0E029
:101F5000A850BC4F87E0E8E5F4E001900D928A9527
:101F6000E1F78FEF8093580404C0811102C087E02D
:101F7000089585E1089527E0829FC0011124FC01A6
:101F8000E65BFB4F81E090819F3F09F480E008957C
:101F9000F894A3E6B4E0E1E8F4E0818190E0982FC2
:101FA00088272081820F911D11969C938E938381A7
:101FB00090E0982F88272281820F911D13969C9381
:101FC0008E931297858190E0982F88272481820F25
:101FD000911D15969C938E931497878190E0982F6E
:101FE00088272681820F911D17969C938E931697B2
:101FF000818590E0982F88272085820F911D199662
:102000009C938E9318977894F89422858091460437
:1020100090914704AC01420F511D9385892F90E0A8
:10202000982F8827840F951F9093600480935F04F6
:1020300024858091440490914504AC01420F511DC8
:102040009585892F90E0982F8827840F951F90936E
:10205000780480937704878590E0982F88272685D9
:10206000820F911D9093A00480939F04818990E03A
:10207000982F88272089820F911D90937604809352
:102080007504838990E0982F88272289820F911DFB
:102090009093490480934804858990E0982F88277D
:1020A0002489820F911D9093800480937F047894FB
:1020B000F894808D90E0982F88272789820F911DB2
:1020C0009093620480936104828D90E0982F88271A
:1020D000218D820F911D90939D0480939C04789490
:1020E00081E00895F89481E080934A0478940895FB
:1020F000F8948AE080934A04789481E00895F894F3
:10210000EAE4F4E025E0208381839283638374838F
:10211000789481E00895F894EAE4F4E022E02083E2
:102120008183928363837483789481E008952091FE
:10213000460430914704821B930B20914404309154
:102140004504621B730BF894EAE4F4E023E0208377
:10215000818392836383748345835683789481E07B
:102160000895F894EAE4F4E024E0208381839283E4
:102170006383748345835683789481E008951F9325
:10218000CF93DF93182FD62FC42F82E00E94530FD6
:10219000F894EAE4F4E086E086871787D08BC18B59
:1021A000789481E0DF91CF911F91089581E00895A7
:1021B000F894E1E8F4E0258530E0322F22274485C9
:1021C000240F311D438550E0542F4427E2854E0FE4
:1021D000511DFC01E41BF50BF0934704E09346040A
:1021E000AB01421B530B509345044093440490931E
:1021F000600480935F04709378046093770478940C
:1022000081E0089581E00E94530FF89488E0809364
:102210005104789481E0089581E00E94530FF8946E
:1022200087E080935104789481E00895CF93DF9301
:10223000D82FC92F81E00E94530FF894EAE4F4E00C
:1022400089E08783D087C187789481E0DF91CF913F
:1022500008958F9A97988AE090E00E942709979AAC
:1022600084E690E00C94270987E00E94BF119093C8
:10227000A2048093A1040895BF9AC79ABD9ABE9AFA
:102280008FEF82B984BB089595B321E030E0062E2C
:1022900001C0220F0A94EAF780FF02C0292B02C076
:1022A0002095292325BB23B181FF08C081E090E060
:1022B00001C0880F6A95EAF7822B08C081E090E0A0
:1022C00001C0880F6A95EAF78095822383B9089543
:1022D0009093F1038093F00308958091F00390911F
:1022E000F10308959093EB038093EA03089580919E
:1022F000EA039091EB0308959093ED038093EC0330
:1023000008958091EC039091ED030895BC9A08958F
:102310006115710509F1C4989B01281B390B6217DF
:10232000730749F06150710945E34A95F1F70000E0
:1023300061157105A1F7C49A9B01281B390B611522
:10234000710531F36217730719F36150710945E3A1
:102350004A95F1F70000F3CF0895E1E6F0E09081AF
:1023600021E030E001C0220F8A95EAF72095922300
:102370009083E2E6F0E0808128232083089590E4B2
:1023800097B997B18770982B97B987EC86B9369B28
:1023900002C00000FCCF24B185B190E0982F8827BF
:1023A000820F911D2091A3043091A404280F391F9E
:1023B0003093A4042093A30408958091A3049091E2
:1023C000A40408950E94881208F481E008950E94F0
:1023D000FB110C94C3120E94BC1258F00E94B5125B
:1023E00040F029F45F3F29F00C94AC1251110C9489
:1023F000F7120C94B2120E94D41268F39923B1F32D
:10240000552391F3951B550BBB27AA27621773071A
:10241000840738F09F5F5F4F220F331F441FAA1FAE
:10242000A9F335D00E2E3AF0E0E832D0915050406A
:10243000E695001CCAF72BD0FE2F29D0660F771F18
:10244000881FBB1F261737074807AB07B0E809F0FE
:10245000BB0B802DBF01FF2793585F4F3AF09E3F83
:10246000510578F00C94AC120C94F7125F3FE4F332
:10247000983ED4F3869577956795B795F7959F5FC6
:10248000C9F7880F911D9695879597F90895E1E012
:10249000660F771F881FBB1F621773078407BA0771
:1024A00020F0621B730B840BBA0BEE1F88F7E095CC
:1024B00008950E94DC1288F09F5798F0B92F992751
:1024C000B751B0F0E1F0660F771F881F991F1AF01F
:1024D000BA95C9F714C0B13091F00E94F612B1E07C
:1024E00008950C94F612672F782F8827B85F39F07B
:1024F000B93FCCF3869577956795B395D9F73EF4B8
:1025000090958095709561957F4F8F4F9F4F08955F
:10251000990F0008550FAA0BE0E8FEEF16161706F4
:10252000E807F907C0F012161306E407F50798F05C
:10253000621B730B840B950B39F40A2661F0232B75
:10254000242B252B21F408950A2609F4A140A695F1
:102550008FEF811D811D089597F99F6780E870E0D6
:1025600060E008959FEF80EC089500240A94161609
:10257000170618060906089500240A941216130671
:10258000140605060895092E0394000C11F48823FF
:1025900052F0BB0F40F4BF2B11F460FF04C06F5F1B
:1025A0007F4F8F4F9F4F089557FD9058440F551FF1
:1025B00059F05F3F71F04795880F97FB991F61F0C5
:1025C0009F3F79F087950895121613061406551F3C
:1025D000F2CF4695F1DF08C0161617061806991FA8
:1025E000F1CF86957105610508940895E894BB279D
:1025F00066277727CB0197F908950E94881208F47F
:102600008FEF08950E9415130C94C3120E94B51207
:1026100038F00E94BC1220F0952311F00C94AC12FB
:102620000C94B21211240C94F7120E94D41270F37D
:10263000959FC1F3950F50E0551F629FF001729F67
:10264000BB27F00DB11D639FAA27F00DB11DAA1F76
:10265000649F6627B00DA11D661F829F2227B00DC3
:10266000A11D621F739FB00DA11D621F839FA00D4E
:10267000611D221F749F3327A00D611D231F849F9E
:10268000600D211D822F762F6A2F11249F575040F5
:102690009AF0F1F088234AF0EE0FFF1FBB1F661F70
:1026A000771F881F91505040A9F79E3F510580F039
:1026B0000C94AC120C94F7125F3FE4F3983ED4F301
:1026C000869577956795B795F795E7959F5FC1F7DD
:1026D000FE2B880F911D9695879597F90895052EE5
:1026E00097FB1EF400940E94861357FD07D00E94AA
:1026F0008E1307FC03D04EF40C948613509540952E
:10270000309521953F4F4F4F5F4F0895909580959D
:10271000709561957F4F8F4F9F4F0895A1E21A2EBC
:10272000AA1BBB1BFD010DC0AA1FBB1FEE1FFF1F75
:10273000A217B307E407F50720F0A21BB30BE40BC5
:10274000F50B661F771F881F991F1A9469F760950C
:102750007095809590959B01AC01BD01CF010895C6
:102760000F931F93CF93DF93CDB7DEB72E970FB69E
:10277000F894DEBF0FBECDBF0D891E8986E08C8325
:102780001A8309838FEF9FE79E838D83AE01475E97
:102790005F4F6F89788DCE0101960E94DF13EF8124
:1027A000F885E00FF11F10822E960FB6F894DEBF69
:1027B0000FBECDBFDF91CF911F910F9108952F9242
:1027C0003F924F925F926F927F928F929F92AF92C1
:1027D000BF92CF92DF92EF92FF920F931F93CF930E
:1027E000DF93CDB7DEB72B970FB6F894DEBF0FBEE1
:1027F000CDBF6C017B018A01FC01178216828381A7
:1028000081FFCCC1CE0101963C01F6019381F70115
:1028100093FD859193FF81917F01882309F4BAC1CB
:10282000853239F493FD859193FF81917F01853243
:1028300029F4B60190E00E94FF15E7CF912C212CDE
:10284000312CFFE1F315D8F08B3279F038F4803277
:1028500079F08332A1F4232D20611DC08D3261F007
:10286000803369F4232D216016C0832D8260382EB9
:10287000E32DE4603E2E2AC0F32DF8601DC037FC26
:102880002DC020ED280F2A3040F08E32B9F436FCEE
:1028900081C1232D2064322E19C036FE06C08AE085
:1028A000989E200D1124922E11C0EAE02E9E200D3C
:1028B0001124222EF32DF0623F2E08C08C3621F415
:1028C000832D8068382E02C0883641F4F70193FDCD
:1028D000859193FF81917F018111B3CF982F9F7DC7
:1028E0009554933028F40C5F1F4F9FE399830DC0DC
:1028F000833631F0833771F0833509F059C021C038
:10290000F801808189830E5F1F4F88248394912C66
:10291000530113C02801F2E04F0E511CF801A080B2
:10292000B18036FE03C0692D70E002C06FEF7FEF0B
:10293000C5010E94F4154C018201F32DFF773F2E53
:1029400016C0280122E0420E511CF801A080B1807F
:1029500036FE03C0692D70E002C06FEF7FEFC50146
:102960000E94E9154C01F32DF0683F2E820133FCE3
:102970001BC0822D90E088169906B0F4B60180E263
:1029800090E00E94FF152A94F4CFF50137FC859161
:1029900037FE81915F01B60190E00E94FF15211082
:1029A0002A9421E0821A91088114910471F7E8C0F9
:1029B000843611F0893641F5F80137FE07C0608191
:1029C0007181828193810C5F1F4F08C0608171818A
:1029D000072E000C880B990B0E5F1F4FF32DFF760F
:1029E0003F2E97FF09C090958095709561957F4F18
:1029F0008F4F9F4FF0683F2E2AE030E0A3010E94E6
:102A00003B16882E861845C0853731F4232D2F7E3E
:102A1000B22E2AE030E025C0932D997FB92E8F3653
:102A2000C1F018F4883579F0B5C0803719F08837CF
:102A300021F0B0C0E92FE061BE2EB4FE0DC0FB2D29
:102A4000F460BF2E09C034FE0AC0292F2660B22EC2
:102A500006C028E030E005C020E130E002C020E1FF
:102A600032E0F801B7FE07C06081718182819381F5
:102A70000C5F1F4F06C06081718180E090E00E5FA7
:102A80001F4FA3010E943B16882E8618FB2DFF774F
:102A90003F2E36FE0DC0232D2E7FA22E891458F412
:102AA00034FE0BC032FC09C0832D8E7EA82E05C0DB
:102AB000B82CA32C03C0B82C01C0B92CA4FE0FC0A5
:102AC000FE01E80DF11D8081803321F49A2D997E5D
:102AD000A92E09C0A2FE06C0B394B39404C08A2DE7
:102AE000867809F0B394A3FC11C0A0FE06C0B2140E
:102AF00088F4280C922C9B180EC0B21460F4B60116
:102B000080E290E00E94FF15B394F7CFB21418F45E
:102B10002B1802C0982C212CA4FE10C0B60180E313
:102B200090E00E94FF15A2FE17C0A1FC03C088E739
:102B300090E002C088E590E0B6010CC08A2D86784E
:102B400059F0A1FE02C08BE201C080E2A7FC8DE239
:102B5000B60190E00E94FF15891438F4B60180E3B5
:102B600090E00E94FF159A94F7CF8A94F301E80D44
:102B7000F11D8081B60190E00E94FF158110F5CF14
:102B8000222009F442CEB60180E290E00E94FF15B7
:102B90002A94F6CFF6018681978102C08FEF9FEFCE
:102BA0002B960FB6F894DEBF0FBECDBFDF91CF914D
:102BB0001F910F91FF90EF90DF90CF90BF90AF905B
:102BC0009F908F907F906F905F904F903F902F904D
:102BD0000895FC010590615070400110D8F7809570
:102BE00090958E0F9F1F0895FC01615070400190D9
:102BF0000110D8F7809590958E0F9F1F08950F9321
:102C00001F93CF93DF93FB01238121FD03C08FEF3F
:102C10009FEF2CC022FF16C0468157812481358149
:102C20004217530744F4A081B1819D012F5F3F4FAC
:102C3000318320838C93268137812F5F3F4F3783E9
:102C4000268314C08B01EC01FB010084F185E02D8B
:102C50000995892BE1F6D80116968D919C911797CD
:102C6000019617969C938E931697CE01DF91CF9184
:102C70001F910F910895FA01AA27283051F12031B0
:102C800081F1E8946F936E7F6E5F7F4F8F4F9F4F00
:102C9000AF4FB1E03ED0B4E03CD0670F781F891F42
:102CA0009A1FA11D680F791F8A1F911DA11D6A0F10
:102CB000711D811D911DA11D20D009F468943F91C3
:102CC0002AE0269F11243019305D3193DEF6CF01C2
:102CD0000895462F4770405D4193B3E00FD0C9F788
:102CE000F6CF462F4F70405D4A3318F0495D31FDF5
:102CF0004052419302D0A9F7EACFB4E0A695979548
:102D0000879577956795BA95C9F70097610571051D
:102D100008959B01AC010A2E069457954795379567
:102D20002795BA95C9F7620F731F841F951FA01DC1
:062D30000895F894FFCFA6
:102D3600466C61672073746F703A202533690054BE
:102D4600696D653A2025336900466C6167207475A4
:102D5600726E3A2025336900546F20737461727461
:102D6600207468652070726F6772616D2C005072F6
:102D76006573732074686520533320627574746FAD
:102D86006E002D2D2D2D2D3E00546F2073746F7007
:102D9600207468652070726F6772616D005072658D
:102DA60073732074686520533220627574746F6E75
:102DB600003C2D2D2D2D2D00466C61672073746F00
:102DC600703A202564000300000000000400005F44
:102DD60000000E00070007001F147F147F141F2435
:102DE6002A7F2A121F23130864621F364955225070
:102DF6000600050300000E001C2241000E004122C1
:102E06001C001F14083E08141F08083E0808060088
:102E1600A06000000F0808080808060060600000AF
:102E26000E00601C03001F3E5149453E0E00427FC6
:102E360040001F42615149461D2141454B311F1833
:102E460014127F101D2745454539173C4A4949301C
:102E56001E01710905031D36494949361D064949B2
:102E6600291E0600363600000600AC6C00000F086E
:102E7600142241000F14141414141E0041221408C5
:102E86001F02015109061F324979413E1F7C12116A
:102E9600127C177F49494936173E414141221F7F1F
:102EA6004141221C177F49494941177F09090901F8
:102EB600173E4149497A177F0808087F0E00417F6F
:102EC60041001F2040413F011F7F08142241177F08
:102ED600404040401F7F020C027F1F7F0408107F86
:102EE600173E4141413E177F09090906173E4141F8
:102EF60041BE1D7F091929461746494949311F0117
:102F0600017F0101173F4040403F1F1F2040201F07
:102F16001F3F4038403F1F63140814631F070870A3
:102F260008071F61514945430E007F4141000E00CD
:102F3600031C60000E0041417F000E0402010204E2
:102F46001F40404040400C0000030400172054542A
:102F56005478177F484444381738444444201D3871
:102F66004444487F17385454541817087E09010200
:102F76001718A4A4A478177F080404780E00447DCB
:102F860040000D4080847D000F7F102844000E0015
:102F9600417F40001F7C04780478177C080404787D
:102FA60017384444443817FC2424241817182424BA
:102FB60024FC177C080404081748545454201704AA
:102FC6003F4440201D3C4040207C1F1C2040201CCC
:102FD6001F3C4030403C1F4428102844171CA0A02A
:102FE600A07C1F4464544C440E0008364100040083
:102FF600007F00000E00413608001F020102040295
:063006001FAA55AA55AAFD
:0400000300000D30BC
:00000001FF
