:100000000C9449000C9468000C9468000C946800EF
:100010000C9468000C9468000C9468000C946800C0
:100020000C9468000C9468000C9468000C946800B0
:100030000C9468000C9468000C9468000C946800A0
:100040000C9468000C9441030C94CA0C0C94FA0CA8
:100050000C9468000C9468000C9468000C94680080
:100060000C9468000C9468000C9468000C94680070
:100070000C9468000C9468000C9468000C94680060
:100080000C9468000C9468000C946800322E313196
:10009000000011241FBECFEFD0E1DEBFCDBF13E0C3
:1000A000A0E0B1E0E0E7F0E200E00BBF02C00790A3
:1000B0000D92A637B107D9F724E0A6E7B3E001C057
:1000C0001D92A833B207E1F70E946A000C94361023
:1000D0000C940000CF93DF93CDB7DEB7A3970FB694
:1000E000F894DEBF0FBECDBF0E940F0B0E943A03F3
:1000F0000E94B6020E94D605198A188A22E1CE0112
:100100004296FC01322F11923A95E9F71982CE01FD
:1001100040962BE0E0E0F1E0DC0101900D922A95A1
:10012000E1F760E080E00E942104CE0140960E9449
:100130008B050E94D1010E940002882309F494C01B
:100140000E940E0289838981853141F44FE050E09D
:1001500065E070E083E290E00E94970A8981843430
:1001600041F44FE050E065E070E086E490E00E94EA
:10017000970A8981813641F44FE050E063E270E0F4
:1001800085E090E00E94970A8981813441F44FE034
:1001900050E066E470E085E090E00E94970A898173
:1001A000873731F46EE070E08EE090E00E94710AD3
:1001B0008981833711F40E94580A8981833531F48B
:1001C00062EF7FEF82EF9FEF0E94710A8981882F93
:1001D00090E0292F2F938F938BE091E0892F8F93BD
:1001E0008BE091E08F93CE014096292F2F938F9330
:1001F0000E944D0D0F900F900F900F900F900F9049
:100200006FE080E00E942104CE0140960E948B05A1
:100210000E94F201882341F18981882329F1898193
:100220000E94E4018981882F90E0292F2F938F93DA
:100230008FE191E0892F8F938FE191E08F93CE0131
:100240004096292F2F938F930E944D0D0F900F9062
:100250000F900F900F900F906EE180E00E942104AC
:10026000CE0140960E948B0580E090E0A0EAB0E4C9
:100270008A839B83AC83BD8320E030E04AE755E46A
:100280006A817B818C819D810E94E80BDC01CB011E
:100290008E839F83A887B98720E030E040E85FE342
:1002A0006E817F81888599850E94620B88232CF45A
:1002B00081E090E09B878A873FC020E03FEF4FE7D7
:1002C00057E46E817F81888599850E94E30B18161B
:1002D0004CF520E030E040E251E46A817B818C8182
:1002E0009D810E94E80BDC01CB01BC01CD010E9485
:1002F000670BDC01CB019B878A870FC080E991E007
:100300009D878C878C859D850197F1F79D878C87CC
:100310008A859B8501979B878A878A859B85892B00
:1003200069F714C06E817F81888599850E94670B6B
:10033000DC01CB019B878A878A859B859F878E8777
:100340008E859F850197F1F79F878E87F4CECF9397
:10035000DF93CDB7DEB7209135049091360481E06C
:10036000291709F080E0DF91CF910895CF93DF93B3
:10037000CDB7DEB79091370481E0983009F080E086
:10038000DF91CF910895CF93DF93CDB7DEB780E8AB
:1003900095E20E947D0C0E94C50C0000DF91CF9178
:1003A0000895CF93DF93CDB7DEB782E290E022E2EB
:1003B00030E0F90120812E7FFC0120830E94C301DF
:1003C0000000DF91CF910895CF93DF931F92CDB7B7
:1003D000DEB7898389810E94AA0C00000F90DF910B
:1003E000CF910895CF93DF93CDB7DEB70E94B601CA
:1003F000982F81E0992309F080E0DF91CF91089553
:10040000CF93DF93CDB7DEB70E94A701982F81E08D
:10041000992309F080E0DF91CF910895CF93DF9386
:10042000CDB7DEB70E94930CDF91CF9108959091E4
:100430006500382F3170292F2E7F91E09327922B62
:1004400090936500909165009D7F311102C020E07E
:1004500001C022E0922B9093650090916500977FF8
:1004600081FD02C080E001C088E0892B8093650097
:10047000809165008F7E809365008FEF8ABB6BBB98
:1004800085E08A95F1F70000809165008460809393
:10049000650085E08A95F1F70000809165008B7F0B
:1004A0008093650085E08A95F1F700001BBA1ABABF
:1004B000089590916500382F3170292F2E7F91E09B
:1004C0009327922B90936500909165009D7F311149
:1004D00002C020E001C022E0922B90936500909131
:1004E0006500977F81FD02C080E001C088E0892B14
:1004F00080936500809165008061809365001ABAE1
:1005000085E08A95F1F70000809165008460809312
:10051000650095E19A95F1F7000089B39091650027
:100520009B7F9093650095E09A95F1F70000089500
:100530000F931F93CF9390917603911102C080E0A7
:1005400011C0C82FC17000E010E08C2F0E9459022A
:100550000F5F1F4F87FF05C00F3F8FEF1807A9F7E9
:10056000EECF81E0CF911F910F9108958FEF80938F
:1005700076038091640088608093640080916400B9
:100580008061809364008091640084608093640043
:100590008091640081608093640080916400826037
:1005A00080936400B89A1ABA80916500877F80931F
:1005B0006500809165008F7E809365008091650065
:1005C0008B7F80936500809165008E7F80936500AE
:1005D000809165008D7F80936500C098979B09C0CE
:1005E00097988FE99FE00197F1F700C00000979A74
:1005F00006C08FE99FE00197F1F700C00000C09AA4
:1006000080E00E949802882351F081E00E949802C5
:10061000882311F082E001C081E08093760380910D
:1006200076038F3F11F4109276038091760308953C
:100630008FB99091B20389278093B20308951092E5
:10064000B3038093940391E0980F9093960396E9F7
:100650009093B2039093B403F894B09903C0789444
:100660000000FACF90EC9DB90E941803779A789415
:1006700080E00895B898C098BB9AC39A80E00C9423
:100680001F031F920F920FB60F9211240BB60F92F9
:100690002F933F934F935F936F937F938F939F938A
:1006A000AF93BF93EF93FF938FB19091B4039827CB
:1006B0009093B403E091B303E11116C080939203C9
:1006C0008C3130F0109294031092920381E009C0B3
:1006D000482F50E02091960330E042175307FCF07A
:1006E0008F5F809396031BC02E2F30E040919203C2
:1006F00050E0421753072CF0D901AA56BC4F8C93F7
:100700000EC0215031094217530749F4992339F09B
:10071000809193038F5F8093930310929203809153
:100720009403E81728F4F0E0E958FC4F80810AC0F0
:10073000E81303C08091B20305C080919603E817C7
:1007400048F48FEF0E9418038091B3038F5F80936A
:10075000B30311C0B898C0981DB8B898C0988091DC
:1007600095038F5F809395037894809192030E9404
:100770004D090E941F03FF91EF91BF91AF919F918F
:100780008F917F916F915F914F913F912F910F903A
:100790000BBE0F900FBE0F901F901895CF93DF9355
:1007A000C82FD8EBD60F883000F580E00E94980261
:1007B0006D2F80E00E94170280E00E9498026C2F4B
:1007C000660F660F660F605C80E00E941702C9EB3F
:1007D000D3E082E00E949802699182E00E941702B1
:1007E00083E0C13CD807A9F720C0C85081E00E942F
:1007F00098026D2F81E00E94170281E00E9498020A
:10080000CC0FCC0FCC0F60E46C0F81E00E9417027C
:10081000C9EBD3E083E00E949802699183E00E94D3
:10082000170283E0C13CD807A9F7DF91CF91089563
:100830008091B80308958091C10308958093B50312
:100840000895CF93DF93D82FC62F8093B80360937A
:10085000C10380E00E94980281E00E949802C69540
:10086000C695C695C8546C2F80E00E9417026C2F65
:1008700081E00E94170280E00E94980281E00E94BD
:10088000980260E4D13428F080E00E9417026D2FB6
:1008900005C06D0F80E00E94170260E481E0DF91E7
:1008A000CF910C9417021F93CF93DF93182FC8EBAF
:1008B00080E00E94980281E00E9498026C2F80E004
:1008C0000E9417026C2F81E00E941702D0E482E0A0
:1008D0000E94980283E00E949802612F82E00E94A9
:1008E0001702612F83E00E941702D15081F7CF5F7A
:1008F000C03CF1F680E00E94980281E00E949802DC
:1009000068EB80E00E94170268EB81E0DF91CF91F5
:100910001F910C9417020F931F93CF93DF93D82F3F
:10092000C62F8091B80387FD37C011E0803408F4EA
:1009300010E0812F0E94980202E0010F802F0E9498
:100940005902802F0E9459029091B50392FF02C074
:10095000D0959B7FDC23911102C0C82F04C0913039
:1009600021F4C095C823CD2B02C0C82FCD27812FDD
:100970000E9498026091B8036064812F0E94170260
:10098000812F0E9498026C2F802F0E941702809165
:10099000B8038F5F8093B803DF91CF911F910F91C0
:1009A000089590EE980F903608F080E8805296E017
:1009B000899FF0011124EA5CFE4F90818091B7037A
:1009C000811101C09FE125E080E090FD8F5F969549
:1009D0002150D9F708957F928F929F92AF92BF9244
:1009E000CF92DF92EF92FF920F931F93CF93DF93FB
:1009F000C62F90EE980F903608F080E8805226E0DF
:100A0000829FC0011124FC01E95CFE4F7F01FC01C3
:100A1000EA5CFE4F90808091B703811102C09FE194
:100A2000992EAC2E0C2E000CBB086FEF70E06B0102
:100A30000C2E01C0CC0C0A94EAF78C2C002711274D
:100A40000A191B09002E02C0759567950A94E2F7F2
:100A5000D62F85E0782E90FE15C0F7018081C7FD66
:100A600007C0682D0A2C01C0880F0A94EAF708C055
:100A700090E0002E02C0959587950A94E2F76D2FBD
:100A80000E948B049694FFEFEF1AFF0A7A9471107C
:100A9000E2CFC7FD02C06C2D07C06FEF70E002C04F
:100AA000759567950A95E2F780E0DF91CF911F91E8
:100AB0000F91FF90EF90DF90CF90BF90AF909F90FD
:100AC0008F907F900C948B041F93CF93DF93D82F3C
:100AD0001091B803C091C103C7706C2F0E94EB0442
:100AE000CC23A9F06091C103685F812F0E9421048B
:100AF00068EF6C0F8D2F0E94EB046091C10368506A
:100B00008091B803DF91CF911F910C942104DF9164
:100B1000CF911F910895CF93DF93EC0189918823A2
:100B200019F00E946405FACFDF91CF9108950F93D9
:100B30001F93CF938C01C0E0F80181918F0188232E
:100B400031F00E94D1048C0FC1E0C80FF5CF8C2F7B
:100B5000CF911F910F910895CF93DF93EC01CE01B8
:100B6000FE012491222331F02196FC0184910E9400
:100B70006405F5CFDF91CF9108950F931F93CF9325
:100B80008C01C0E0C801F8012491222351F00F5FCD
:100B90001F4FFC0184910E94D1048C0FC1E0C80F4B
:100BA000F1CF8C2FCF911F910F91089580E00E947B
:100BB00098026FE380E00E94170280E00E94980292
:100BC00060EC80E00E94170280E00E94980260E4DE
:100BD00080E00E94170280E00E94980268EB80E0AB
:100BE0000E94170281E00E9498026FE381E00E9458
:100BF000170281E00E94980260EC81E00E941702D7
:100C000081E00E94980260E481E00E94170281E086
:100C10000E94980268EB81E00E94170280E00E9427
:100C2000530481E08093B50308958093B70308953A
:100C30008091B7030895CF93DF939091C10397708C
:100C4000C1E001C0CC0F9A95EAF7D82FDD2331F02F
:100C50006C2F8C2F0E948B04D150F8CFDF91CF9155
:100C60000895AF92BF92CF92DF92EF92FF920F93CF
:100C70001F93CF93DF93B82EC62FE090B803109147
:100C8000C103812F8770DFEF01C0DD0F8A95EAF77E
:100C900088E0A82ECC24CA94D12CCC2321F1812F1A
:100CA00087700A2D081BC01748F4802F8C1B9601F3
:100CB00002C0359527958A95E2F7D223FB2CFF20B9
:100CC00031F06D2F8D2F0E948B04FA94F8CF8C2F6A
:100CD0000C1708F4802FC81B180F612F8E2D0E944F
:100CE0002104DFEFDACFDF91CF911F910F91FF90B9
:100CF000EF90DF90CF90BF90AF900895682F81E084
:100D00000C9431062F923F924F925F926F927F9296
:100D10008F929F92AF92BF92CF92DF92EF92FF920B
:100D20000F931F93CF93DF93482ED62F5A01309005
:100D3000B8038090C103882D87709FEF992E01C062
:100D4000990C8A95EAF7242D30E0C901019797FDA7
:100D5000079623E0959587952A95E1F7C1E0C80F9E
:100D6000EC2EF12C670133E0CC0CDD1C3A95E1F759
:100D7000512C48E0242EDD2309F456C0882D8770BD
:100D8000722C781AD71550F4872D8D1B2FEF30E079
:100D900002C0359527958A95E2F79222052D070D19
:100DA000C09F80011124612C641481F1862D87700D
:100DB00059F0E82FF0E0E754FC4F8081692D89213C
:100DC0000E948B046394F0CF962D969596959695F8
:100DD000F801E90FF11DEC19FD09EA0DFB1D28E0F2
:100DE00030E04081A9EBB3E09C91969540FD90687E
:100DF0009C934695119661EC73E06A177B07A1F707
:100E0000EE0DFF1D2150310961F7D3CF8D2F7D16D7
:100E100008F4872DD81B880E580E682D832D0E944C
:100E2000210499249A94A7CFDF91CF911F910F911C
:100E3000FF90EF90DF90CF90BF90AF909F908F90FA
:100E40007F906F905F904F903F902F9008952F92DA
:100E50003F924F925F926F927F928F929F92AF924A
:100E6000BF92CF92DF92EF92FF920F931F93CF9397
:100E7000DF93482ED62F4A013090B8030091C1036A
:100E8000802F87701FEF01C0110F8A95EAF7242D7C
:100E900030E0C901019797FD079623E09595879566
:100EA0002A95E1F7C1E0C80FCC2ED12C560133E0D2
:100EB000AA0CBB1C3A95E1F7512C48E0242EDD2307
:100EC00009F455C0802F8770722C781AD71550F40A
:100ED000872D8D1B2FEF30E002C0359527958A9521
:100EE000E2F71223E52CE70CCE9D70011124612C52
:100EF000641481F1862D877059F0E82FF0E0E754F3
:100F0000FC4F8081612F81230E948B046394F0CF7A
:100F1000962D969596959695F701E90FF11DEA198C
:100F2000FB09E80DF91D28E030E04491A9EBB3E09E
:100F30009C91969540FD90689C934695119661EC26
:100F400073E06A177B07A1F7EC0DFD1D21503109F5
:100F500061F7D3CF8D2F7D1608F4872DD81B080F8E
:100F6000580E602F832D0E9421041FEFA8CFDF9120
:100F7000CF911F910F91FF90EF90DF90CF90BF9096
:100F8000AF909F908F907F906F905F904F903F9029
:100F90002F9008959091C103977021E030E001C037
:100FA000220F9A95EAF7882311F0622F01C060E0C2
:100FB000822F0C948B04BF92CF92DF92EF92FF921C
:100FC0000F931F93CF93DF93182F062FD091B80361
:100FD0008091C103D1130FC0861720F4962F981B60
:100FE000892F06C0C82FC61B812F0E9421048C2F79
:100FF0000E947E065AC0F82E68130DC0D11718F44F
:10100000812F8D1B05C0D11B812F0E9421048D2FA4
:101010000E941B064AC01D1728F4DD2ED11ACC24CD
:10102000CA9409C0D11728F4D12EDD1ACC24C39458
:1010300002C0C12CD12C081728F4C82FC01BBB2418
:10104000BA9409C0801728F4C02FC81BBB24B394DE
:1010500002C0B12CC0E081E00E94CA07CD1598F40F
:10106000ED2CE694E194EC0EDC0D1E1414F4ED1856
:10107000FB0C6F2D8D2F0E94210481E00E94CA0776
:101080001D13F1CF12C0EC2EE694E194ED0CFB0C95
:101090001E1414F4EC1ADC0D6F2D8D2F0E94210408
:1010A00081E00E94CA070F11F1CF602F812FDF91DD
:1010B000CF911F910F91FF90EF90DF90CF90BF9055
:1010C0000C94210480E00E9453041092B603109205
:1010D000C2030895863130F4683020F46093B6037B
:1010E0008093C2030895CF92DF92EF92FF920F9305
:1010F0001F93CF93DF93C9EB21ECC22E23E0D22EB6
:1011000010E0D0E007E40C0FD83050F580E00E94EA
:1011100098026C2F80E00E94170280E00E949802E3
:1011200060E4610F80E00E94170282E00E94590291
:1011300099EBE92E93E0F92E82E00E945902F70123
:1011400081937F01F1ECEF16F3E0FF06A9F7602F22
:101150008D2F0E94CE03DF5F185FD031A9F61FC02C
:1011600081E00E9498026C2F81E00E94170281E0CA
:101170000E949802612F81E00E94170283E00E9482
:10118000590289EBE82E83E0F82E83E00E94590291
:10119000F70181937F01CE16DF06B9F7D8CFCF5F75
:1011A000C03C09F0ADCFE9EBF3E081EC93E01192A4
:1011B0008E179F07E1F7C0E067E08C2F0E94CE03F7
:1011C000CF5FC031C9F78091B603882319F08150F1
:1011D0008093B603DF91CF911F910F91FF90EF9015
:1011E000DF90CF9008950F931F93CF931092B70382
:1011F0008C01F801C1918F01CC23B9F1CA3069F497
:101200001092C2038091B6038F5F8093B60388303B
:1012100081F781E00E947308ECCFCD3051F38091CB
:10122000C203853160F01092C2038091B6038F5FD4
:101230008093B603883019F481E00E9473086091AE
:10124000B603660F660F660F8091C203982F990F41
:10125000890F880F0E9421048C2F0E9464058091C1
:10126000C2038F5F8093C203C4CFCF911F910F91B0
:101270000895789420E137E297E0899FF0011124E6
:10128000E753FC4F2150310919F080818F3FD1F78E
:1012900081E0232B09F480E0089590911D049F5F65
:1012A00090931D048B3141F4E7E9F3E0A0E0B4E052
:1012B00001900D928A95E1F78FEF809385038093DB
:1012C0007E03809377039091C9039F3F69F097E075
:1012D000E9ECF3E0A7E7B3E001900D929A95E1F70E
:1012E0008093C90387E001C080E09091D0039F3FC5
:1012F00079F0A82FB0E0A958BC4F97E0E0EDF3E0FB
:1013000001900D929A95E1F79FEF9093D003895F3A
:101310009091D7039F3F79F0A82FB0E0A958BC4F18
:1013200087E0E7EDF3E001900D928A95E1F78FEF0A
:101330008093D70304C0811102C087E0089585E13E
:10134000089527E0829FC0011124FC01E753FC4F60
:1013500081E090819F3F09F480E00895F894A2EE27
:10136000B3E0E0E0F4E0818190E0982F88272081CD
:10137000820F911D11969C938E93838190E0982FFC
:1013800088272281820F911D13969C938E9312972A
:10139000858190E0982F88272481820F911D1596D2
:1013A0009C938E931497878190E0982F88272681AD
:1013B000820F911D17969C938E931697818590E0CE
:1013C000982F88272085820F911D19969C938E93C4
:1013D00018977894F89422858091C5039091C6035C
:1013E000AC01420F511D9385892F90E0982F8827DB
:1013F000840F951F9093DF038093DE0324858091F3
:10140000C3039091C403AC01420F511D9585892FF0
:1014100090E0982F8827840F951F9093F70380936F
:10142000F603878590E0982F88272685820F911DE7
:1014300090931F0480931E04818990E0982F882741
:101440002089820F911D9093F5038093F403838983
:1014500090E0982F88272289820F911D9093C803CE
:101460008093C703858990E0982F88272489820F6D
:10147000911D9093FF038093FE037894F894808DE0
:1014800090E0982F88272789820F911D9093E10380
:101490008093E003828D90E0982F8827218D820F22
:1014A000911D90931C0480931B04789481E008950F
:1014B000F89481E08093C90378940895F8948AE0C1
:1014C0008093C903789481E00895F894E9ECF3E0FF
:1014D00025E020838183928363837483789481E001
:1014E0000895F894E9ECF3E022E02083818392836D
:1014F00063837483789481E008952091C5033091CB
:10150000C603821B930B2091C3033091C403621B5B
:10151000730BF894E9ECF3E023E02083818392835A
:101520006383748345835683789481E00895F894A7
:10153000E9ECF3E024E02083818392836383748366
:1015400045835683789481E008951F93CF93DF936A
:10155000182FD62FC42F82E00E943909F894E9ECA5
:10156000F3E086E086871787D08BC18B789481E083
:10157000DF91CF911F91089581E00895F894E0E004
:10158000F4E0258530E0322F22274485240F311DD9
:10159000438550E0542F4427E2854E0F511DFC0136
:1015A000E41BF50BF093C603E093C503AB01421BAC
:1015B000530B5093C4034093C3039093DF03809372
:1015C000DE037093F7036093F603789481E0089547
:1015D00081E00E943909F89488E08093D0037894E0
:1015E00081E0089581E00E943909F89487E08093B2
:1015F000D003789481E00895CF93DF93D82FC92F3B
:1016000081E00E943909F894E9ECF3E089E08783EE
:10161000D087C187789481E0DF91CF9108958F9A28
:1016200097988AE090E00E94220B979A84E690E0D7
:101630000C94220B87E00E943F0B9093210480932F
:1016400020040895009741F0EFE9FFE03197F1F7AA
:1016500000C000000197F6CF0895E1E6F0E0908128
:1016600021E030E001C0220F8A95EAF7209592230D
:101670009083E2E6F0E0808128232083089590E4BF
:1016800097B997B18770982B97B987EC86B9369B35
:1016900002C00000FCCF24B185B190E0982F8827CC
:1016A000820F911D2091220430912304280F391FAD
:1016B0003093230420932204089580912204909172
:1016C000230408950E94960B08F481E008950E9477
:1016D000C20B88F09F5798F0B92F9927B751B0F0F7
:1016E000E1F0660F771F881F991F1AF0BA95C9F7A6
:1016F00014C0B13091F00E94DC0BB1E008950C945D
:10170000DC0B672F782F8827B85F39F0B93FCCF30F
:10171000869577956795B395D9F73EF49095809522
:10172000709561957F4F8F4F9F4F0895990F0008D7
:10173000550FAA0BE0E8FEEF16161706E807F907A3
:10174000C0F012161306E407F50798F0621B730B3E
:10175000840B950B39F40A2661F0232B242B252BBF
:1017600021F408950A2609F4A140A6958FEF811D62
:10177000811D089557FD9058440F551F59F05F3F44
:1017800071F04795880F97FB991F61F09F3F79F0A3
:1017900087950895121613061406551FF2CF469525
:1017A000F1DF08C0161617061806991FF1CF8695A7
:1017B0007105610508940895E894BB27662777278B
:1017C000CB0197F908950E94960B08F48FEF0895C6
:1017D0000E94FB0B0C946C0C0E945E0C38F00E9473
:1017E000650C20F0952311F00C94550C0C945B0CB7
:1017F00011240C94DD0B0E94BA0B70F3959FC1F37A
:10180000950F50E0551F629FF001729FBB27F00DAE
:10181000B11D639FAA27F00DB11DAA1F649F662703
:10182000B00DA11D661F829F2227B00DA11D621F52
:10183000739FB00DA11D621F839FA00D611D221F0C
:10184000749F3327A00D611D231F849F600D211DF0
:10185000822F762F6A2F11249F5750409AF0F1F073
:1018600088234AF0EE0FFF1FBB1F661F771F881FDC
:1018700091505040A9F79E3F510580F00C94550CB3
:101880000C94DD0B5F3FE4F3983ED4F38695779597
:101890006795B795F795E7959F5FC1F7FE2B880F82
:1018A000911D9695879597F9089597F99F6780E818
:1018B00070E060E008959FEF80EC089500240A94A2
:1018C0001616170618060906089500240A9412161B
:1018D0001306140605060895092E0394000C11F44E
:1018E000882352F0BB0F40F4BF2B11F460FF04C0FB
:1018F0006F5F7F4F8F4F9F4F08959C0140E050E0F6
:1019000084E0220F331F441F551F8A95D1F760E0F2
:1019100074E284EF90E00E942B0D21503040309310
:10192000900029B90895F89490913504E92FF0E0DA
:10193000EB5DFB4F808120913604283011F49093A9
:1019400036049F5F90933504983010F01092350460
:1019500078940895F89490913704E92FF0E0E35DCE
:10196000FB4F80839F5F90933704983010F0109264
:1019700037042091370490912404291719F498E032
:1019800090933704559A7894089588EB8AB908950E
:101990001AB808951F920F920FB60F920BB60F92BE
:1019A00011248F939F93EF93FF939CB18091360402
:1019B0008830A9F0E82FF0E0EB5DFB4F90838F5F5C
:1019C00080933604883010F01092360490913604DB
:1019D00080913504981719F488E080933604FF91BC
:1019E000EF919F918F910F900BBE0F900FBE0F90B4
:1019F0001F9018951F920F920FB60F920BB60F9271
:101A000011242F938F939F93EF93FF93809124043E
:101A100090913704891791F0E82FF0E0E35DFB4FD8
:101A20002081983011F4809337048F5F80932404D1
:101A3000883010F0109224042CB901C05598FF9101
:101A4000EF919F918F912F910F900BBE0F900FBE32
:101A50000F901F901895A1E21A2EAA1BBB1BFD0127
:101A60000DC0AA1FBB1FEE1FFF1FA217B307E4077D
:101A7000F50720F0A21BB30BE40BF50B661F771FD5
:101A8000881F991F1A9469F76095709580959095B5
:101A90009B01AC01BD01CF0108950F931F93CF931C
:101AA000DF93CDB7DEB72E970FB6F894DEBF0FBE2B
:101AB000CDBF0D891E8986E08C831A8309838FEF41
:101AC0009FE79E838D83AE01475E5F4F6F89788D60
:101AD000CE0101960E947C0DEF81F885E00FF11F89
:101AE00010822E960FB6F894DEBF0FBECDBFDF91E9
:101AF000CF911F910F9108952F923F924F925F9235
:101B00006F927F928F929F92AF92BF92CF92DF920D
:101B1000EF92FF920F931F93CF93DF93CDB7DEB772
:101B20002B970FB6F894DEBF0FBECDBF6C017B01C3
:101B30008A01FC0117821682838181FFCCC1CE010C
:101B400001963C01F6019381F70193FD859193FF86
:101B500081917F01882309F4BAC1853239F493FD5C
:101B6000859193FF81917F01853229F4B60190E040
:101B70000E949C0FE7CF912C212C312CFFE1F31513
:101B8000D8F08B3279F038F4803279F08332A1F4D6
:101B9000232D20611DC08D3261F0803369F4232D27
:101BA000216016C0832D8260382EE32DE4603E2E26
:101BB0002AC0F32DF8601DC037FC2DC020ED280F82
:101BC0002A3040F08E32B9F436FC81C1232D2064D6
:101BD000322E19C036FE06C08AE0989E200D1124D0
:101BE000922E11C0EAE02E9E200D1124222EF32DFC
:101BF000F0623F2E08C08C3621F4832D8068382E89
:101C000002C0883641F4F70193FD859193FF8191DD
:101C10007F018111B3CF982F9F7D9554933028F485
:101C20000C5F1F4F9FE399830DC0833631F08337DC
:101C300071F0833509F059C021C0F8018081898392
:101C40000E5F1F4F88248394912C530113C02801E9
:101C5000F2E04F0E511CF801A080B18036FE03C0A7
:101C6000692D70E002C06FEF7FEFC5010E94910FF8
:101C70004C018201F32DFF773F2E16C0280122E090
:101C8000420E511CF801A080B18036FE03C0692DC0
:101C900070E002C06FEF7FEFC5010E94860F4C011C
:101CA000F32DF0683F2E820133FC1BC0822D90E0A3
:101CB00088169906B0F4B60180E290E00E949C0F6D
:101CC0002A94F4CFF50137FC859137FE81915F01AD
:101CD000B60190E00E949C0F21102A9421E0821A04
:101CE00091088114910471F7E8C0843611F08936A7
:101CF00041F5F80137FE07C06081718182819381CF
:101D00000C5F1F4F08C060817181072E000C880B8B
:101D1000990B0E5F1F4FF32DFF763F2E97FF09C0E3
:101D200090958095709561957F4F8F4F9F4FF0688C
:101D30003F2E2AE030E0A3010E94D80F882E86189B
:101D400045C0853731F4232D2F7EB22E2AE030E0B6
:101D500025C0932D997FB92E8F36C1F018F48835A0
:101D600079F0B5C0803719F0883721F0B0C0E92F7D
:101D7000E061BE2EB4FE0DC0FB2DF460BF2E09C085
:101D800034FE0AC0292F2660B22E06C028E030E0BB
:101D900005C020E130E002C020E132E0F801B7FEEA
:101DA00007C060817181828193810C5F1F4F06C0E3
:101DB0006081718180E090E00E5F1F4FA3010E945F
:101DC000D80F882E8618FB2DFF773F2E36FE0DC0CC
:101DD000232D2E7FA22E891458F434FE0BC032FC22
:101DE00009C0832D8E7EA82E05C0B82CA32C03C05D
:101DF000B82C01C0B92CA4FE0FC0FE01E80DF11DE6
:101E00008081803321F49A2D997EA92E09C0A2FEEB
:101E100006C0B394B39404C08A2D867809F0B394B5
:101E2000A3FC11C0A0FE06C0B21488F4280C922CAA
:101E30009B180EC0B21460F4B60180E290E00E94DC
:101E40009C0FB394F7CFB21418F42B1802C0982C3F
:101E5000212CA4FE10C0B60180E390E00E949C0FEC
:101E6000A2FE17C0A1FC03C088E790E002C088E58D
:101E700090E0B6010CC08A2D867859F0A1FE02C010
:101E80008BE201C080E2A7FC8DE2B60190E00E94E7
:101E90009C0F891438F4B60180E390E00E949C0FF7
:101EA0009A94F7CF8A94F301E80DF11D8081B60171
:101EB00090E00E949C0F8110F5CF222009F442CEC1
:101EC000B60180E290E00E949C0F2A94F6CFF601C2
:101ED0008681978102C08FEF9FEF2B960FB6F89403
:101EE000DEBF0FBECDBFDF91CF911F910F91FF904D
:101EF000EF90DF90CF90BF90AF909F908F907F90AA
:101F00006F905F904F903F902F900895FC01059047
:101F1000615070400110D8F7809590958E0F9F1FEB
:101F20000895FC016150704001900110D8F7809530
:101F300090958E0F9F1F08950F931F93CF93DF935C
:101F4000FB01238121FD03C08FEF9FEF2CC022FFF7
:101F500016C046815781248135814217530744F4C6
:101F6000A081B1819D012F5F3F4F318320838C93EE
:101F7000268137812F5F3F4F3783268314C08B0123
:101F8000EC01FB010084F185E02D0995892BE1F638
:101F9000D80116968D919C911797019617969C9350
:101FA0008E931697CE01DF91CF911F910F910895D7
:101FB000FA01AA27283051F1203181F1E8946F937A
:101FC0006E7F6E5F7F4F8F4F9F4FAF4FB1E03ED020
:101FD000B4E03CD0670F781F891F9A1FA11D680FBE
:101FE000791F8A1F911DA11D6A0F711D811D911DF1
:101FF000A11D20D009F468943F912AE0269F112466
:102000003019305D3193DEF6CF010895462F4770C9
:10201000405D4193B3E00FD0C9F7F6CF462F4F7024
:10202000405D4A3318F0495D31FD4052419302D082
:10203000A9F7EACFB4E0A695979587957795679528
:10204000BA95C9F700976105710508959B01AC0128
:102050000A2E06945795479537952795BA95C9F74F
:10206000620F731F841F951FA01D0895F894FFCF62
:1020700048616C6C6F205842454500456D70666143
:102080006E67205A65696368656E3A20256300476C
:102090006573656E6465746573205A656963686508
:1020A0006E3A202563000300000000000400005F7A
:1020B00000000E00070007001F147F147F141F2468
:1020C0002A7F2A121F23130864621F3649552250A3
:1020D0000600050300000E001C2241000E004122F4
:1020E0001C001F14083E08141F08083E08080600BC
:1020F000A06000000F0808080808060060600000E3
:102100000E00601C03001F3E5149453E0E00427FF9
:1021100040001F42615149461D2141454B311F1866
:1021200014127F101D2745454539173C4A4949304F
:102130001E01710905031D36494949361D064949E5
:10214000291E0600363600000600AC6C00000F08A1
:10215000142241000F14141414141E0041221408F8
:102160001F02015109061F324979413E1F7C12119D
:10217000127C177F49494936173E414141221F7F52
:102180004141221C177F49494941177F090909012B
:10219000173E4149497A177F0808087F0E00417FA2
:1021A00041001F2040413F011F7F08142241177F3B
:1021B000404040401F7F020C027F1F7F0408107FB9
:1021C000173E4141413E177F09090906173E41412B
:1021D00041BE1D7F091929461746494949311F014A
:1021E000017F0101173F4040403F1F1F2040201F3B
:1021F0001F3F4038403F1F63140814631F070870D7
:1022000008071F61514945430E007F4141000E0000
:10221000031C60000E0041417F000E040201020415
:102220001F40404040400C0000030400172054545D
:102230005478177F484444381738444444201D38A4
:102240004444487F17385454541817087E09010233
:102250001718A4A4A478177F080404780E00447DFE
:1022600040000D4080847D000F7F102844000E0048
:10227000417F40001F7C04780478177C08040478B0
:1022800017384444443817FC2424241817182424ED
:1022900024FC177C080404081748545454201704DD
:1022A0003F4440201D3C4040207C1F1C2040201CFF
:1022B0001F3C4030403C1F4428102844171CA0A05D
:1022C000A07C1F4464544C440E00083641000400B6
:1022D000007F00000E00413608001F0201020402C8
:0622E0001FAA55AA55AA31
:00000001FF
