:100000000C9449000C9468000C9468000C946800EF
:100010000C9468000C9468000C9468000C946800C0
:100020000C9468000C9468000C9468000C946800B0
:100030000C9468000C9468000C94090A0C946800F5
:100040000C9468000C944D040C94110B0C94410B0F
:100050000C9468000C9468000C9468000C94680080
:100060000C9468000C9468000C9468000C94680070
:100070000C9468000C9468000C9468000C94680060
:100080000C9468000C9468000C946800322E313196
:10009000000011241FBECFEFD0E1DEBFCDBF11E0C5
:1000A000A0E0B1E0E8E9F7E100E00BBF02C0079093
:1000B0000D92A030B107D9F721E0A0E0B1E001C076
:1000C0001D92A93EB207E1F70E946A000C94CA0B88
:1000D0000C940000CF93DF93CDB7DEB72F970FB608
:1000E000F894DEBF0FBECDBF0E948D090E947A0931
:1000F0000E9446040E945A091C860E94D3031A8259
:1001000019821C821B821E821D8280ED97E09E87D1
:100110008D8718861F821A86198681E08B8783E077
:100120008F8780E197E20E9419048B85813049F422
:1001300064E083E00E94950965E083E00E949509F0
:1001400014C08B85882349F464E082E00E949509FD
:1001500065E082E00E94950908C064E081E00E94A9
:10016000950965E081E00E9495090E94F4038823C7
:1001700089F08F819885892B69F481E090E09887D8
:100180008F8348E06B858B850E942F038C878C853D
:100190000E94E6030E940204882309F417C10E940A
:1001A00010048C878C850E945503882329F48C8544
:1001B0000E948903813041F48C850E945503982F59
:1001C0008B85981709F002C18C850E9466038823ED
:1001D00069F08C850E945503982F8B85981731F014
:1001E0008C850E946603813009F0F0C08C850E94E6
:1001F0008903882309F043C08B85882309F43FC015
:100200001A8619868C850E949B03882339F48D8178
:100210009E810E9458029E838D83D7C08C850E9448
:100220009B03813039F48D819E810E9471029E83EF
:100230008D83CBC08C850E949B03823069F4188625
:100240001F820E94F3028D859E854F85BC018B85A0
:100250000E94B5028B87B9C08C850E949B038330B6
:1002600009F0B3C018861F820E94DF028D859E852B
:100270004F85BC018B850E94B5028B87A6C08C85FB
:100280000E948903813069F581E090E09A8789872F
:100290008C850E949B03882339F48D819E810E9466
:1002A00058029E838D8392C08C850E949B0381306F
:1002B00039F48D819E810E9471029E838D8386C058
:1002C0008C850E949B03823019F40E9407037EC034
:1002D0008C850E949B03833009F078C00E941B0329
:1002E00075C08C850E948903823009F04AC08C85D4
:1002F0000E949B03882379F40E94F403882309F465
:1003000065C049E06B858B850E942F038C878C85A7
:100310000E94E6035BC08C850E949B03813069F4D8
:100320008C850E946603982F8B85981731F48B85F6
:100330008F5F8B8718861F8249C08C850E949B0324
:10034000823059F48D859E854F85BC018B850E9436
:100350008B028B8718861F8239C08C850E949B0375
:100360008330A1F50E94F403882309F01B864AE03C
:100370006B8580E00E942F038C878C850E94E603AA
:1003800025C08C850E948903833001F58C850E94ED
:100390009B038823D9F48C850E946603982F8B8554
:1003A0009817A0F48B819C81899780F089819A812C
:1003B000899760F060E070E080E090E00E941206B3
:1003C0008EE591E00E94190401C000000E94DD0743
:1003D0000E944F058091B5019091B6019C838B835B
:1003E0008B819C818197C8F489859A850197A9F0B2
:1003F0000E94F403882349F04CE06B8580E00E9462
:100400002F038C878C850E94E6034EE050E060E06D
:1004100070E084E090E00E9438068091B3019091F2
:10042000B4019A83898389819A818197C8F48985E7
:100430009A850197A9F00E94F403882349F04CE0C3
:100440006B8580E00E942F038C878C850E94E603D9
:100450004EE050E064E070E080E090E00E943806FA
:100460008B819C81899758F089819A81899738F08E
:100470002D813E818D819E81B9010E9412068B8162
:100480009C81889780F489819A81889760F4898516
:100490009A85019741F04EE050E066EF7FEF86EFDE
:1004A0009FEF0E94380684E690E00E9419043DCE3A
:1004B000CF93DF9300D0CDB7DEB79A83898389814C
:1004C0009A8199231CF41A82198204C087E090E073
:1004D0009A83898389819A810F900F90DF91CF91C0
:1004E0000895CF93DF9300D0CDB7DEB79A83898389
:1004F00089819A81181619061CF41A82198204C07F
:1005000089EF9FEF9A83898389819A810F900F9059
:10051000DF91CF910895CF93DF9300D000D0CDB776
:10052000DEB789837B836A834C838981882311F4B6
:100530008C8114C00E940F0B8981282F30E08A81A2
:100540009B81289FA001299F500D389F500D112499
:10055000CA010E9419040E940C0B81E00F900F90B9
:100560000F900F90DF91CF910895CF93DF9300D03C
:1005700000D0CDB7DEB789837B836A834C830E942A
:100580000F0B8C81282F30E08981882F90E0281B69
:10059000390B8A819B81289FA001299F500D389F8C
:1005A000500D1124CA010E9419040E940C0B81E015
:1005B0000F900F900F900F90DF91CF910895CF93F0
:1005C000DF93CDB7DEB74AE050E068E370E088EC37
:1005D0009FEF0E94380688E893E10E94190400000A
:1005E000DF91CF910895CF93DF93CDB7DEB74AE087
:1005F00050E068EC7FEF88E390E00E94380688E8DE
:1006000093E10E9419040000DF91CF910895CF93E8
:10061000DF93CDB7DEB74AE050E06CE170E084EEE6
:100620009FEF0E94380688E893E10E9419040000B9
:10063000DF91CF910895CF93DF93CDB7DEB74AE036
:1006400050E064EE7FEF8CE190E00E94380688E88D
:1006500093E10E9419040000DF91CF910895CF9398
:10066000DF9300D000D0CDB7DEB78A836B834C8395
:10067000198299818A81890F89838981880F880FDE
:10068000898399818B81890F898389818295807F74
:10069000898399818C81890F898389810F900F903B
:1006A0000F900F90DF91CF910895CF93DF931F921A
:1006B000CDB7DEB7898389818295869586958370CB
:1006C000898389810F90DF91CF910895CF93DF9334
:1006D0001F92CDB7DEB789838981880F880F898300
:1006E00089818295869586958370898389810F900B
:1006F000DF91CF910895CF93DF931F92CDB7DEB7EF
:10070000898389818F70898389810F90DF91CF914F
:100710000895CF93DF931F92CDB7DEB78983898188
:100720008F708983898186958695898389810F90C9
:10073000DF91CF910895CF93DF931F92CDB7DEB7AE
:10074000898389818370898389810F90DF91CF911B
:100750000895CF93DF93CDB7DEB72091E601909156
:10076000E70181E0291709F080E0DF91CF9108953A
:10077000CF93DF93CDB7DEB79091E80181E0983059
:1007800009F080E0DF91CF910895CF93DF93CDB74B
:10079000DEB780E895E20E94C40A0E940C0B0000BC
:1007A000DF91CF910895CF93DF93CDB7DEB782E28B
:1007B00090E022E230E0F90120812E7FFC012083CD
:1007C0000E94C5030000DF91CF910895CF93DF937E
:1007D0001F92CDB7DEB7898389810E94F10A00009C
:1007E0000F90DF91CF910895CF93DF93CDB7DEB710
:1007F0000E94B803982F81E0992309F080E0DF91EF
:10080000CF910895CF93DF93CDB7DEB70E94A903B0
:10081000982F81E0992309F080E0DF91CF9108952E
:10082000CF93DF93CDB7DEB70E94DA0ADF91CF9185
:100830000895009741F0EFE9FFE03197F1F700C02C
:1008400000000197F6CF08958FB990914301892751
:10085000809343010895109244018093250191E013
:10086000980F9093270196E9909343019093450147
:10087000F894B09903C078940000FACF90EC9DB939
:100880000E942404779A789480E00895B898C098DC
:10089000BB9AC39A80E00C942B041F920F920FB660
:1008A0000F9211240BB60F922F933F934F935F93A8
:1008B0006F937F938F939F93AF93BF93EF93FF9328
:1008C0008FB190914501982790934501E0914401A3
:1008D000E11116C0809323018C3130F01092250174
:1008E0001092230181E009C0482F50E02091270198
:1008F00030E042175307FCF08F5F809327011BC045
:100900002E2F30E04091230150E0421753072CF086
:10091000D901A95DBE4F8C930EC0215031094217F9
:10092000530749F4992339F0809124018F5F809314
:1009300024011092230180912501E81728F4F0E0AA
:10094000E85FFE4F80810AC0E81303C08091430135
:1009500005C080912701E81748F48FEF0E94240416
:10096000809144018F5F8093440111C0B898C09872
:100970001DB8B898C098809126018F5F809326019A
:100980007894809123010E94EE040E942B04FF9131
:10099000EF91BF91AF919F918F917F916F915F91F7
:1009A0004F913F912F910F900BBE0F900FBE0F9064
:1009B0001F901895789420E137E297E0899FF00125
:1009C0001124E45BFE4F2150310919F080818F3FE3
:1009D000D1F781E0232B09F480E008959091A001E4
:1009E0009F5F9093A0018B3141F4E8E2F1E0A3E82E
:1009F000B1E001900D928A95E1F78FEF8093160197
:100A000080930F018093080190914C019F3F69F002
:100A100097E0ECE4F1E0A8E0B1E001900D929A9546
:100A2000E1F780934C0187E001C080E09091530191
:100A30009F3F79F0A82FB0E0A85FBE4F97E0E3E5B5
:100A4000F1E001900D929A95E1F79FEF9093530199
:100A5000895F90915A019F3F79F0A82FB0E0A85F7D
:100A6000BE4F87E0EAE5F1E001900D928A95E1F74B
:100A70008FEF80935A0104C0811102C087E008956E
:100A800085E1089527E0829FC0011124FC01E45B09
:100A9000FE4F81E090819F3F09F480E00895F89433
:100AA000A5E6B1E0E3E8F1E0818190E0982F8827A6
:100AB0002081820F911D11969C938E93838190E0EB
:100AC000982F88272281820F911D13969C938E93D5
:100AD0001297858190E0982F88272481820F911D9D
:100AE00015969C938E931497878190E0982F882772
:100AF0002681820F911D17969C938E931697818560
:100B000090E0982F88272085820F911D19969C933D
:100B10008E9318977894F89422858091480190914B
:100B20004901AC01420F511D9385892F90E0982F08
:100B30008827840F951F909362018093610124851B
:100B40008091460190914701AC01420F511D95855E
:100B5000892F90E0982F8827840F951F90937A0112
:100B600080937901878590E0982F88272685820FCA
:100B7000911D9093A2018093A101818990E0982F0B
:100B800088272089820F911D9093780180937701A7
:100B9000838990E0982F88272289820F911D909356
:100BA0004B0180934A01858990E0982F88272489FA
:100BB000820F911D90938201809381017894F89423
:100BC000808D90E0982F88272789820F911D909320
:100BD000640180936301828D90E0982F8827218D96
:100BE000820F911D90939F0180939E01789481E0E4
:100BF0000895F89481E080934C0178940895F894D6
:100C00008AE080934C01789481E00895F894ECE4B4
:100C1000F1E025E020838183928363837483789459
:100C200081E00895F894ECE4F1E022E020838183F0
:100C3000928363837483789481E0089520914801BE
:100C400030914901821B930B20914601309147015D
:100C5000621B730BF894ECE4F1E023E020838183C2
:100C600092836383748345835683789481E00895E7
:100C7000F894ECE4F1E024E02083818392836383A1
:100C8000748345835683789481E008951F93CF93AE
:100C9000DF93182FD62FC42F82E00E94DA04F89435
:100CA000ECE4F1E086E086871787D08BC18B7894DF
:100CB00081E0DF91CF911F91089581E00895F8942C
:100CC000E3E8F1E0258530E0322F22274485240F28
:100CD000311D438550E0542F4427E2854E0F511DAE
:100CE000FC01E41BF50BF0934901E0934801AB01D3
:100CF000421B530B5093470140934601909362016E
:100D00008093610170937A0160937901789481E016
:100D1000089581E00E94DA04F89488E080935301FA
:100D2000789481E0089581E00E94DA04F89487E0E5
:100D300080935301789481E00895CF93DF93D82F67
:100D4000C92F81E00E94DA04F894ECE4F1E089E034
:100D50008783D087C187789481E0DF91CF91089510
:100D6000CF92DF92EF92FF920F931F93CF93DF9377
:100D700000E011E0C3EAD1E02885398588819981B6
:100D8000281B390B40E050E0C12CD12C80E1E82E2B
:100D9000F12CC701B6010E94720BF8013183208348
:100DA0002A853B858A819B81281B390B40E050E0D6
:100DB000C701B6010E94720BF801338322832C8590
:100DC0003D858C819D81281B390B40E050E0C70197
:100DD000B6010E94720BF801358324832E853F856E
:100DE0008E819F81281B390B40E050E0C701B6017E
:100DF0000E94720BF80137832683DF91CF911F91F8
:100E00000F91FF90EF90DF90CF9008950F931F9375
:100E1000CF93DF9382E00E94A10AC3EBD1E00FEFF2
:100E200013E09801281B390B3983288383E00E9443
:100E3000A10A9801281B390B3B832A8381E00E9479
:100E4000A10A9801281B390B3D832C8380E00E9466
:100E5000A10A081B190B1F830E8380E00E94A10AC0
:100E60002E813F8121503C4F281B390B3F832E831D
:100E700081E00E94A10A2C813D8121503C4F281B1A
:100E8000390B3D832C8383E00E94A10A2A813B8198
:100E900021503C4F281B390B3B832A8382E00E9460
:100EA000A10A2881398121503C4F281B390B3983F5
:100EB0002883DF91CF911F910F9108958091620057
:100EC0008F7B8093620081E090E00E9419040E9471
:100ED00006078091B3019091B4019093BC01809377
:100EE000BB018091B5019091B6019093BE018093B2
:100EF000BD018091B7019091B8019093C00180939A
:100F0000BF018091B9019091BA019093C201809381
:100F1000C1018091620080648093620081E090E072
:100F20000E9419040E9406078091B3019091B401B8
:100F30002091BB013091BC018217930708F49C01FA
:100F4000821B930B9093B4018093B3018091B50100
:100F50009091B6012091BD013091BE018217930797
:100F600008F49C01821B930B9093B6018093B5010A
:100F70008091B7019091B8012091BF013091C001DB
:100F80008217930708F49C01821B930B9093B8017E
:100F90008093B7018091B9019091BA012091C1016C
:100FA0003091C2018217930708F49C01821B930BB6
:100FB0009093BA018093B9010895CF92DF92EF9296
:100FC000FF920F931F93CF93DF930E945E07E3EB93
:100FD000F1E043EA51E0DA018D919C9124E096958D
:100FE00087952A95E1F720813181281B390BC0E0D4
:100FF000D1E0C880D980D6010E94940BBB27A92FCD
:10100000982F872F91838083DA0112968D919C917E
:10101000139764E0969587956A95E1F7228133816D
:10102000281B390BEA80FB80D7010E94940BBB2759
:10103000A92F982F872F93838283DA0114968D919D
:101040009C911597B4E096958795BA95E1F7248120
:101050003581281B390B0C811D81D8010E94940B0E
:10106000BB27A92F982F872F95838483DA011696A3
:101070008D919C91179734E0969587953A95E1F775
:1010800026813781281B390B4E815F81DA010E944E
:10109000940BBB27A92F982F872F97838683EBEB81
:1010A000F1E0A081B18196010E94940BBB27A92F8A
:1010B000982F872F91838083A281B38197010E940B
:1010C000940BBB27A92F982F872F93838283A4810A
:1010D000B58198010E94940BBB27A92F982F872FC9
:1010E00095838483A681B7819A010E94940BBB27C4
:1010F000A92F982F872F97838683DF91CF911F91F8
:101100000F91FF90EF90DF90CF900895CF931092C2
:10111000A4011092A3011092A6011092A5011092B1
:10112000A8011092A7011092AA011092A901C0E192
:101130000E945E072091A3013091A4018091B30128
:101140009091B401820F931F9093A4018093A30107
:101150002091A5013091A6018091B5019091B60131
:10116000820F931F9093A6018093A5012091A70160
:101170003091A8018091B7019091B801820F931F1F
:101180009093A8018093A7012091A9013091AA0111
:101190008091B9019091BA01820F931F9093AA0197
:1011A0008093A901C15021F6CF910C94B006CF9342
:1011B0001092AC011092AB011092AE011092AD01F1
:1011C0001092B0011092AF011092B2011092B101D1
:1011D000C0E10E945E072091AB013091AC0180918B
:1011E000B3019091B401820F931F9093AC0180934F
:1011F000AB012091AD013091AE018091B50190918C
:10120000B601820F931F9093AE018093AD012091A0
:10121000AF013091B0018091B7019091B801820F78
:10122000931F9093B0018093AF012091B101309151
:10123000B2018091B9019091BA01820F931F9093EE
:10124000B2018093B101C15021F6CF910C94B00648
:1012500040E150E060E070E083EA91E00E94A30B7F
:101260008091A3019091A401019611F51092A4011F
:101270001092A3011092A6011092A5011092A8014C
:101280001092A7011092AA011092A90180E091E0AA
:101290009093AC018093AB019093AE018093AD012C
:1012A0009093B0018093AF019093B2018093B1010C
:1012B0000C94B0060E942809E2E6F0E080818F7B62
:1012C0008083E1E6F0E080818064808381E00E9499
:1012D0008F0A80E00E948F0A82E00E948F0A83E0DA
:1012E0000C948F0A40E150E060E070E083EA91E006
:1012F0000C94B30B8F9A97988AE090E00E9419049F
:10130000979A84E690E00C94190487E00E94A10A61
:101310009093C4018093C3010895BF9AC79ABD9A60
:10132000BE9A8FEF82B984BB089595B321E030E077
:10133000062E01C0220F0A94EAF780FF02C0292B73
:1013400002C02095292325BB23B181FF08C081E07D
:1013500090E001C0880F6A95EAF7822B08C081E00F
:1013600090E001C0880F6A95EAF78095822383B9DF
:1013700008959093CC018093CB0108958091CB0187
:101380009091CC0108959093C6018093C501089572
:101390008091C5019091C60108959093C8018093F2
:1013A000C70108958091C7019091C80108951092D6
:1013B000CE011092CD011092CA011092C901109273
:1013C000CF011092D0011092D1011092D20110924F
:1013D000C6011092C5011092C8011092C7018FEF8B
:1013E00093E09093CC018093CB01C598C698BD9AA9
:1013F000BE9ABF9AC79A1DBC1CBC8AEA8FBD82E107
:101400008EBD80E094E097BD86BD87B7846087BFBE
:1014100008951F920F920FB60F9211242F933F93AE
:101420004F938F939F93AF93BF938091CD019091F2
:10143000CE019C01285E3F4F283E43E0340728F44C
:101440003093CE012093CD010FC0805D93409093E7
:10145000CE018093CD018091C9019091CA0101967E
:101460009093CA018093C9018091C9019091CA01EA
:101470009C012F5F3F4F283E43E0340728F4309310
:10148000CA012093C90119C0875E93409093CA0195
:101490008093C9018091CF019091D001A091D10199
:1014A000B091D2010196A11DB11D8093CF019093FF
:1014B000D001A093D101B093D2018091C501909148
:1014C000C6018F3F23E0920710F080E094E09BBDBF
:1014D0008ABD8091C7019091C8018F3F43E0940776
:1014E00010F080E094E099BD88BD8091CB0190918F
:1014F000CC018F3F23E0920710F080E094E09093BE
:10150000790080937800BF91AF919F918F914F9117
:101510003F912F910F900FBE0F901F901895E1E60D
:10152000F0E0908121E030E001C0220F8A95EAF7D7
:10153000209592239083E2E6F0E0808128232083A7
:10154000089590E497B997B18770982B97B987EC75
:1015500086B9369B02C00000FCCF24B185B190E073
:10156000982F8827820F911D2091D3013091D401AB
:10157000280F391F3093D4012093D301089580910F
:10158000D3019091D40108959C0140E050E084E0A3
:10159000220F331F441F551F8A95D1F760E074E274
:1015A00084EF90E00E94720B215030403093900005
:1015B00029B90895F8949091E601E92FF0E0EA52F4
:1015C000FE4F80812091E701283011F49093E701CC
:1015D0009F5F9093E601983010F01092E6017894A6
:1015E0000895F8949091E801E92FF0E0E252FE4F5F
:1015F00080839F5F9093E801983010F01092E8018B
:101600002091E8019091D501291719F498E0909361
:10161000E801559A7894089588EB8AB908951AB824
:1016200008951F920F920FB60F920BB60F921124CE
:101630008F939F93EF93FF939CB18091E701883044
:10164000A9F0E82FF0E0EA52FE4F90838F5F80937D
:10165000E701883010F01092E7019091E701809146
:10166000E601981719F488E08093E701FF91EF9164
:101670009F918F910F900BBE0F900FBE0F901F90F8
:1016800018951F920F920FB60F920BB60F9211245E
:101690002F938F939F93EF93FF938091D501909118
:1016A000E801891791F0E82FF0E0E252FE4F208127
:1016B000983011F48093E8018F5F8093D5018830D2
:1016C00010F01092D5012CB901C05598FF91EF91FF
:1016D0009F918F912F910F900BBE0F900FBE0F9087
:1016E0001F901895A1E21A2EAA1BBB1BFD010DC06D
:1016F000AA1FBB1FEE1FFF1FA217B307E407F507C2
:1017000020F0A21BB30BE40BF50B661F771F881F9D
:10171000991F1A9469F760957095809590959B0133
:10172000AC01BD01CF010895A29FB001B39FC001DC
:10173000A39F700D811D1124911DB29F700D811DFD
:101740001124911D0895DC01CB01FC01E199FECF2C
:1017500006C0FFBBEEBBE09A31960DB20D92415030
:101760005040B8F70895DC01CB0103C02D910E94D1
:10177000BE0B41505040D0F70895262FE199FECF7F
:101780009FBB8EBB2DBB0FB6F894E29AE19A0FBEB9
:0817900001960895F894FFCFC3
:00000001FF
